:020000040800F2
:1000000028040024AD020008F91D0008311D000875
:10001000F11D000819030008A921000800000000D4
:10002000000000000000000000000000492000085F
:100030002103000800000000011E000851200008F4
:10004000C7020008C7020008C7020008C70200086C
:10005000C7020008C7020008C7020008C70200085C
:10006000C7020008C7020008C7020008C70200084C
:10007000C7020008C7020008C7020008C70200083C
:10008000C7020008C7020008C7020008C70200082C
:10009000C7020008C7020008C7020008C70200081C
:1000A000C7020008C7020008C7020008C70200080C
:1000B000C7020008C7020008C7020008C7020008FC
:1000C000C7020008C7020008C7020008C7020008EC
:1000D000C7020008C7020008C7020008C7020008DC
:1000E000C7020008C702000800000000C70200089D
:1000F000C7020008C7020008C7020008C7020008BC
:10010000C7020008C7020008C7020008C7020008AB
:10011000C7020008C7020008C7020008C70200089B
:10012000C7020008C7020008C7020008C70200088B
:10013000C7020008C7020008C7020008C70200087B
:1001400000000000000000000000000000000000AF
:10015000C7020008C7020008C7020008C70200085B
:10016000C7020008C7020008C7020008C70200084B
:10017000C7020008C7020008C7020008C70200083B
:10018000C7020008C7020008C7020008C70200082B
:10019000C7020008C7020008C7020008C70200081B
:1001A000C7020008C7020008C7020008C70200080B
:1001B000C7020008C7020008C7020008C7020008FB
:1001C000C7020008C7020008C7020008C7020008EB
:1001D000C7020008C7020008C7020008C7020008DB
:1001E000C7020008C7020008C7020008C7020008CB
:1001F000C7020008C7020008C7020008C7020008BB
:10020000C7020008C7020008C7020008C7020008AA
:10021000C7020008C7020008C7020008C70200089A
:10022000C7020008C7020008C7020008000000005B
:10023000C7020008C702000800000000C70200084B
:10024000C7020008C7020008C7020008C70200086A
:10025000C7020008C7020008C7020008C70200085A
:10026000C7020008C7020008C7020008C70200084A
:10027000C7020008C7020008C7020008000000000B
:10028000C7020008C7020008C702000800000000FB
:1002900000000000C7020008DFF80CD000F02AF8C8
:1002A00000480047B1210008280400240648804780
:1002B00006480047FEE7FEE7FEE7FEE7FEE7FEE74B
:1002C000FEE7FEE7FEE7FEE72921000899020008A5
:1002D000D2B201E000F8012B491EFBD27047002288
:1002E000F6E710B513460A4604461946FFF7F0FF35
:1002F000204610BD064C074D06E0E06840F00103C3
:1003000094E8070098471034AC42F6D3FFF7C8FFD3
:1003100090230008B0230008FEE700000000000062
:10032000704700000000000070470000000000005F
:10033000B0B5044600F01CF940F200010546C2F2D7
:100340000041621C097818BF0C4400BF00F010F98E
:10035000401BA042FAD3B0BD2DE9F04F85B00D6827
:100360000290002D00F0E68002988E4600F12642B1
:100370000A2102F1FF7342F20042C5F60202002494
:1003800090424FEAB32208BF0921092A4FF0010722
:1003900038BF4FEAB32100264FF000080091CDF896
:1003A0000CE00DE0DEF8005008F1010835FA07F026
:1003B00006F1020607F1010704F1040400F0BA8017
:1003C000A7F1010A012000FA0AF315EA0309E9D0AE
:1003D000DEF804B00BF003056A1E012A22D8029849
:1003E0004FEA4801D0F808C00191032101FA06F252
:1003F00003992CEA020CD1F80CE00EFA06F1DDF8B4
:100400000CE041EA0C01816041686FEA020CCBF319
:10041000001299430346019802FA0AF21143596007
:100420000CE000BF0320032D00FA06F0029B6FEAE8
:10043000000C304602D13046032526E0D968DEF8AC
:10044000082001EA0C018240022D41EA0201D96034
:100450001BD102466FF0030000EA5A010F20194435
:1004600004F01C0300FA03F51046D1F820E0039ACB
:100470002EEA0505DDF80CE012699A40029B2A433A
:100480000A62DEF804B00BF00305196805FA00F003
:1004900001EA0C011BF4403F40EA010018603FF400
:1004A00081AF44F2F44140F20845C5F60201C5F6B9
:1004B00000050F23086840F002000860086800F09B
:1004C000020004902AF00300049904F00C01425940
:1004D0008B409A43009B03FA01F1114341514FF0C5
:1004E000B0452868DEF8041040EA0902CB0258BF84
:1004F00020EA09028B022A6040F20405C5F60005D5
:10050000286840EA090258BF20EA09028B032A60E2
:10051000D5F8800040EA090258BF20EA0902C90361
:10052000C5F88020E86F40EA090258BF20EA0902B6
:10053000EA6737E705B0BDE8F08F00000000000073
:10054000426902EA0103914341EA03418161704734
:10055000002A08BF09048161704700000000000004
:1005600041F20000C5F600400068000C7047000032
:1005700040F22400C2F20040006870470000000012
:1005800040F2000040F22401C2F20040C2F20041F9
:1005900000780A68104408607047000000000000FE
:1005A00080B5032000F0E8F800F0DEFF44F21841C7
:1005B00042F28033C5F60201C0F600030A68C2F3B6
:1005C0000322096801F00F019A5C595C02F01F02D6
:1005D000D04040F20C02C2F2004201F01F0120FAAA
:1005E00001F1116040F20801C2F2004108600020F0
:1005F00000F00AF800281CBF012080BD00F07CF844
:10060000002080BD0000000070B540F20006C2F27C
:1006100000463178E1B1044640F20800C2F20040E1
:100620004FF47A72B2FBF1F10068B0FBF1F001F027
:1006300067FB0F2C4FF0010508D838B94FF0FF3099
:1006400000222146002500F067F87460284670BD3E
:10065000012070BD00000000B0B502784EF69C5C31
:10066000CEF2000C43784CF8043CF2B14368CCF86D
:100670000030037BC17A90F80AE0457B447A42EA75
:100680000372837B42EA0161C27B41EACE41007A78
:1006900041EA854141EA434141EA024141EA0421FC
:1006A00041EA4000CCF80400B0BD0020CCF80000C6
:1006B000CCF80400B0BD00004EF62450CEF200008D
:1006C000BFF35F8F016821F4803101600021016771
:1006D00070470000000000004EF6245140F0010079
:1006E000CEF200010867086840F480300860BFF36C
:1006F0004F8FBFF36F8F704781B044F2F440C5F65F
:100700000200016841F002010160006800F002008F
:100710000090009801B0704770B54EF60C5C4FF039
:10072000FF36CEF2000C00F16045DCF80030C3F378
:10073000022E8EF00703042B28BF0423BEF103040E
:1007400006FA03F321EA030100F00F0338BF002487
:10075000043BB0F1FF3F634406FA04F003F10C03DD
:1007600001FA04F1C8BF05F5644322EA000008431A
:100770000001187070BD00004EF60C514FF6FF03DB
:10078000CEF200010A681A4060F30A2242F080604B
:1007900040F0FD7008607047B0B544F60C05C5F632
:1007A000020529684907296805D401F00701081ADC
:1007B00018BF0120B0BD21F0070108432860FFF7F2
:1007C000D7FE044655F8080C800407D4FFF7D0FE86
:1007D000001BB0F57A7FF5D90120B0BD0020B0BD77
:1007E0002DE9F0470446C07844F22C480007C5F6CE
:1007F000020830D5A06E4FEA305103290AD8DFE84D
:1008000001F0020E1A23D8F8001041F40031C8F8A4
:10081000001019E001266078C0070AD01FE004F13B
:100820000800022101F0F0FA064660B16078C007C6
:1008300015D1354645E004F12800022101F074FB92
:1008400006460028F2D1A06ED8F8241021F44011F9
:100850000843C8F8240000266078C007E9D0A06DDE
:1008600004280DD83546DFE800F00311171D1D00E0
:10087000D8F80000354640F40030C8F8000011E018
:1008800001250127607880071FD450E004F108009B
:10089000002101F0B9FA04E004F12800002101F080
:1008A00043FB05462F461DB1607880070DD43EE01E
:1008B000D8F82400A16D20F0070000250843C8F8EF
:1008C000240037466078800731D5E06D4FEAB010DC
:1008D00004280BD8DFE800F00310161C1C00D8F821
:1008E000000040F40030C8F8000011E001250126A6
:1008F000607840071FD453E004F10800002101F0A4
:1009000083FA04E004F12800002101F00DFB054604
:100910002E461DB1607840070DD441E0D8F8240080
:10092000E16D20F4E07000250843C8F824003E463D
:100930006078400734D5D4F8A8004FEA70500428F6
:100940000BD8DFE800F00311171D1D00D8F80000D8
:1009500040F40030C8F8000012E001254FF0010912
:100960006078000720D453E004F10800002101F072
:100970004BFA04E004F12800002101F0D5FA054605
:10098000A9461DB1607800070ED441E0D8F82C00CC
:10099000D4F8A81020F4600000250843C8F82C0003
:1009A000B1466078000733D5D4F8AC004FEA306028
:1009B00004280BD8DFE800F00310161C1C00D8F840
:1009C000000040F40030C8F8000011E001250127C4
:1009D000E078800720D44CE004F10800002101F009
:1009E00013FA04E004F12800002101F09DFA054605
:1009F0002F461DB1E07880070ED43AE0D8F82C00DD
:100A0000D4F8AC1020F0E06000250843C8F82C00B2
:100A10004F46E07880072CD5E06C4FEA3010032871
:100A20000CD8DFE800F008021108D8F8000040F404
:100A30000030C8F800002E4675B911E001250126E6
:100A40006078C00619D44AE004F10800022101F0E0
:100A5000DBF905462E461DB16078C0060DD43EE098
:100A6000D8F82000E16C20F0300000250843C8F8D9
:100A700020003E466078C00631D5206E4FEA303007
:100A800004280BD8DFE800F00310161C1C00D8F86F
:100A9000000040F40030C8F8000011E001250127F3
:100AA000607880061FD44FE004F10800002101F0B7
:100AB000ABF904E004F12800002101F035FA054605
:100AC0002F461DB1607880060DD43DE0D8F8240093
:100AD000216E20F4E04000250843C8F82400374682
:100AE0006078800630D5606E4FEA3040052807D820
:100AF000DFE800F0030C180303032E4675B91AE073
:100B0000012501266078400622D454E004F1080053
:100B1000012101F079F905462E4665B1607840065D
:100B200016D448E004F12800012101F0FDF9054642
:100B3000002D2E46F2D1D8F82400616E20F4E0207A
:100B400000250843C8F824003E466078400632D5A8
:100B5000D4F8B0004FEA3070052807D8DFE800F07D
:100B6000030C180303032F4675B91AE0012501276A
:100B70006078000623D444E004F10800012101F06C
:100B800043F905462F4665B16078000617D438E072
:100B900004F12800012101F0C7F90546002D2F4678
:100BA000F2D1D8F82C00D4F8B01020F0E0400025A5
:100BB0000843C8F82C0037466078000621D5206F1E
:100BC00058B1B0F1005F0BD0B0F1805F2DD1D8F8F3
:100BD000000040F40030C8F800002E4695B907E048
:100BE00004F10800012101F00FF905462E464DB928
:100BF000D8F82400216F20F0405000250843C8F8A1
:100C000024003E46E078C00731D0A06C032812D8FB
:100C1000DFE800F008021808D8F8000040F40030BF
:100C2000C8F80000A946ADB918E001250126E07812
:100C3000C007EAD11BE001254FF00109A07840066A
:100C400019D51AE004F10800022101F0DDF805468B
:100C5000A9461DB1A07840060DD50EE0D8F82000B9
:100C6000A16C20F0030000250843C8F82000B1461D
:100C7000A078400601D44F4616E0D8F8D40340F4DB
:100C80008070C8F8D403FFF773FC0646D8F8D40385
:100C9000C00507D4FFF76CFC801B6428F6D9032538
:100CA000032701E02F4685B12078C00761D0E06FAF
:100CB0004FEAF000052838D8DFE800F0033D49038B
:100CC0000303002D2E463ED14AE0D8F84410D4F854
:100CD000B400414011F4407F11D0D8F84410D8F846
:100CE000442042F48032C8F84420D8F8442021F44B
:100CF000407122F48032C8F84420C8F84410B0F59E
:100D0000807F40F0E482FFF733FC064641F2883AE8
:100D100003250327D8F84400800700F1D682FFF7A7
:100D200027FC801B5045F5D9BEE701260125207818
:100D3000800722D450E004F10800012101F064F89A
:100D400005462E4665B12078800716D444E004F1AC
:100D50002800012101F0E8F80546002D2E46F2D1C9
:100D6000D8F82800E16F20F0380000250843C8F8C3
:100D700028003E46207880072ED5A06F052807D88A
:100D8000DFE800F0030C180303032F4675B91AE0DF
:100D9000012701252078400722D452E004F1080001
:100DA000012101F031F805462F4665B12078400752
:100DB00016D446E004F12800012101F0B5F80546FB
:100DC000002D2F46F2D1D8F82800A16F20F007009F
:100DD00000250843C8F8280037462078400730D55A
:100DE000D4F89400052807D8DFE800F0030C1803B6
:100DF00003032E4675B91AE00126012520788006E6
:100E000023D455E004F10800012100F0FDFF054660
:100E10002E4665B12078800617D449E004F12800F9
:100E2000012101F081F80546002D2E46F2D1D8F8B7
:100E30002C00D4F8941020F0070000250843C8F8CF
:100E40002C003E462078800632D5D4F890004FEA38
:100E50003070052807D8DFE800F0030C18030303FF
:100E60002F4675B91AE0012701252078400623D4C2
:100E700055E004F10800002100F0C6FF05462F46AA
:100E800065B12078400617D449E004F1280002211A
:100E900001F04AF80546002D2F46F2D1D8F8280077
:100EA000D4F8901020F0E04000250843C8F828004E
:100EB00037462078400632D5D4F89C004FEAB0205F
:100EC000052807D8DFE800F0030C180303032E46BB
:100ED00075B91AE0012601252078000623D45AE0CE
:100EE00004F10800002100F08FFF05462E4665B191
:100EF0002078000617D44EE004F12800022101F00A
:100F000013F80546002D2E46F2D1D8F82C00D4F85F
:100F10009C1020F4E05000250843C8F82C003E4601
:100F20002078000637D5D4F8A0004FEA70300528A5
:100F30000ED8DFE800F003131D0303032F4605B3AB
:100F4000206801072BD4C10642D4000359D479E0AC
:100F50000127012520680107F5D520E004F10800EC
:100F6000002100F051FF0546002D2F46E8D108E092
:100F700004F12800022100F0D7FF0546002D2F467E
:100F8000DED1D8F82C00D4F8A01020F46040002561
:100F90000843C8F82C00374620680107D3D5D4F899
:100FA0008410B1F5805F0AD104F12800022100F01D
:100FB000BBFF002818BF01272068D4F88410D8F898
:100FC000282022F440521143C8F82810C106BCD58D
:100FD000D4F89810B1F5807F0AD104F128000221DD
:100FE00000F0A2FF002818BF01272068D4F898104D
:100FF000D8F82C2022F440721143C8F82C100003BA
:1010000020D5D4F8A400B0F5003F0FD0B0F5803F54
:1010100006D078BB04F10800002100F0F5FE04E0E2
:1010200004F12800022100F07FFF05462E4655B945
:10103000D8F82C00D4F8A41020F440300025084340
:10104000C8F82C003E46A07840072BD5D4F888007D
:10105000B0F5401F0BD0B0F5001F11D0B0F5801FC8
:1010600029D1D8F8000040F40030C8F800002F461D
:10107000CDB90DE001260125A0784007E6D411E0A6
:1010800004F12800012100F04FFF05462F4655B915
:10109000D8F82800D4F8881020F440100025084320
:1010A000C8F828003746A078C00709D13E46216815
:1010B000880015D530E001270125A078C007F5D0BC
:1010C000206DB0F5803F0FD008BBD8F8000040F489
:1010D0000030C8F800002E467DB1216888001BD47E
:1010E00060688A0324D468E004F10800022100F05B
:1010F0008BFE0546002D2E46EFD1D8F82000216D3D
:1011000020F4803000250843C8F82000CEE70126EF
:10111000012521688800E3D504F12800022100F0B0
:1011200003FF002818BF0126D4E900108A0344D524
:10113000D4F880206FF0010303EB3223022B0BD392
:101140004FEA322343B1012B40F0BA80D8F8003087
:1011500043F40033C8F8003045B3CA0230D4CA00A3
:1011600038D48A0241D44A0049D4B1F1FF3F56DD58
:1011700009025ED4C10767D1810770D441077AD4D0
:10118000010700F18480C10600F18D80800607D53B
:1011900004F12800022100F0C7FE002818BF012535
:1011A000002D18BF01252846BDE8F087D8F8283063
:1011B00023F440731A43C8F828203546CA02CED516
:1011C000D8F82420636F22F000421A43C8F8242084
:1011D000CA00C6D558F81C2CD4F8B83022F4804286
:1011E0001A4348F81C2C8A02BDD5D8F82420E36E97
:1011F00022F080721A43C8F824204A00B5D558F866
:101200001C2C22F4004248F81C2CD4F8BC2058F8BE
:101210001C3C1A4348F81C2CB1F1FF3FA8DCD8F85D
:101220002020636D22F040521A43C8F820200902A2
:10123000A0D5D8F82810D4F88C2021F4400111430F
:10124000C8F82810C10797D004F10800002100F069
:10125000DBFD002818BF0546606881078ED504F1C4
:101260000800012100F0D0FD002818BF0546606885
:1012700041077FF585AF04F10800022100F0C4FDAD
:10128000002818BF0546606801077FF57CAF04F1B0
:101290002800002100F048FE002818BF05466068BD
:1012A000C1067FF573AF04F12800012100F03CFE78
:1012B000002818BF0546606880067FF571AF67E7B4
:1012C0000125CA027FF54BAF7AE7D4F8B4004FF698
:1012D000CF7358F81C2CC0F2FF0300F4407122F4C5
:1012E0007C5203EA1013B1F5407F4FF0000508BFB0
:1012F0001A436FF31F3048F81C2CD8F844100843E9
:10130000C8F84400FFF7B7BC2DE9F04381B00028CE
:1013100000F0268142F200080446C5F20028894602
:10132000D8F8000000F00F0088420ED2D8F8000074
:1013300020F00F0040EA0900C8F80000D8F80000CB
:1013400000F00F00484540F00B81206844F2184738
:101350004107C5F602070AD521693A6802F0700212
:10136000914204D93A6822F07002114339600107B2
:101370000AD561697A6802F07002914204D97A68EC
:1013800022F0700211437960C1060AD5A1697A681A
:1013900002F4E062914204D97A6822F4E0621143D7
:1013A000796081060AD5E169BA6802F0700291425B
:1013B00004D9BA6822F070021143B96010F002013A
:1013C0000AD0E2683B6803F00F039A4204D93B68F5
:1013D00023F00F031A433A60C20743D0386820F461
:1013E0007061D4E90102032841EA0201396007D0A3
:1013F00002280BD157F8181C890340F1B18010E086
:1014000057F8181C890140F1AB800AE0012857F811
:10141000181C03D1C90540F1A38002E0490740F13F
:101420009F8057F8081C21F00701084347F8080C73
:10143000FFF79EF8064641F2883500BF57F8080CC2
:10144000616800F03800B0EBC10F08D0FFF790F8EA
:10145000801BA842F2D9032001B0BDE8F0832068C8
:1014600000F0020151B1E1683A6802F00F029142C6
:1014700004D23A6822F00F0211433960D8F8001004
:1014800001F00F0149450DD9D8F8001021F00F01E6
:1014900041EA0901C8F80010D8F8001001F00F0166
:1014A00049455DD141070AD521693A6802F07002C9
:1014B000914204D23A6822F0700211433960010768
:1014C0000AD561697A6802F07002914204D27A68A2
:1014D00022F0700211437960C1060AD5A1697A68C9
:1014E00002F4E062914204D27A6822F4E06211438D
:1014F000796080060AD5E069B96801F07001884218
:1015000004D2B96821F070010843B86000F02CF8EB
:10151000396842F28033C0F60003C1F303213A6810
:1015200002F00F02595C9A5C01F01F0120FA01F1F0
:1015300002F01F0040F20C0221FA00F0C2F2004259
:10154000106040F2040040F20802C2F20040C2F211
:1015500000420068116001B0BDE8F043FFF754B8E5
:10156000012001B0BDE8F08344F20041C5F602015C
:101570000869C0F3C20003280FD002282BD078BB23
:101580000868800649F20000C0F2D03058BF7047AA
:101590000968C1F3C101C84070478A6A886AC0F30C
:1015A000051CCB6A486B03F00103BCF1000FC0F3CC
:1015B000CC0003FB00F000EE100AB8EE400A14D095
:1015C00002F00302022A12D0A2B90868800614D4DD
:1015D0009FED251A1EE047F64000C0F27D107047CF
:1015E00040F60010C0F23D007047002070479FEDAC
:1015F0001D1A0FE09FED1A1A0CE0086849F200026C
:10160000C0F2D032C0F3C10022FA00F001EE100A9D
:10161000B8EE411A02EE10CA9FED144AB8EE422A03
:10162000086B6FF35F2003EE100A81EE021AB8EE2A
:10163000433A086B00EE043AB7EE000AC0F34620C6
:10164000013033EE000A21EE000A01EE100AB8EE76
:10165000411A80EE010ABCEEC00A10EE100A704773
:101660000024744A20BCBE4B0024744C0000003996
:10167000F0B581B0002800F057810446007844F2AC
:101680000046C007C5F6020621D12078800740F148
:10169000B280306910F03801B06A3CD0182908BF18
:1016A0005FEA807037D0E068316800285CD021F0B4
:1016B000190108433060FEF75BFF054630684007BC
:1016C00043D4FEF755FF401B0228F7D969E1306982
:1016D00000F03801B06A102905D018290AD100F0AD
:1016E0000300022806D130688003CED56068002848
:1016F000CBD119E16068002847D0B0F5803F06D013
:10170000B0F5A02F30685ED140F4802030603068A2
:1017100040F480305DE030684007E06802D5002882
:1017200000F00281316821F0190108433060FEF7B2
:101730001FFF05463068400707D4FEF719FF401B1E
:1017400002284FF00300F5D915E2FEF709FF41F238
:101750000301884230D820697168402821F47C3127
:1017600046D141F4003045E021F001003060FEF741
:10177000FFFE0546306840073DD5FEF7F9FE401BE9
:1017800002284FF00300F5D9F5E1306820F48030ED
:101790003060306820F480203060FEF7E9FE0546B6
:1017A000306880037FF571AFFEF7E2FE401B6428CE
:1017B0004FF00300F4D9DEE17068216920F0FE40AB
:1017C00040EA016016E020F480303060306820F498
:1017D00080203060FEF7CCFE054600BF30688003F5
:1017E0003FF553AFFEF7C4FE401B6428F6D9D8E09E
:1017F00041EA003070602078C00653D5306900F0AF
:101800003801B06A082905D0182919D100F0030061
:10181000012815D13068C00503D5E069802840F063
:101820008380FEF79DFE41F2030188421DD8206AA5
:101830007168202821F0F84131D141F0804030E03A
:10184000E0690028306818D040F080003060FEF772
:101850008FFE05463068C005E3D4FEF789FE401BC5
:1018600002284FF00300F5D985E1F068216A20F0E5
:101870007C5040EA0160F06014E020F080003060AD
:10188000FEF776FE054600BF3068C0050AD5FEF7B4
:101890006FFE401B02284FF00300F5D96BE141EACF
:1018A000806070602078000741D42078800652D490
:1018B0002078400763D4656A9DB3306900F0380032
:1018C000182840F0A580012DB16A306B2CD001F0B2
:1018D0000302A36A9A4227D1C1F30511E26A914239
:1018E00022D10146226B6FF35F21013A91421BD155
:1018F000C0F34621626B013A914215D1C0F3064113
:10190000A26B013A91420FD1C0F30660E16B01393D
:10191000884209D1706BC0F3CC00A16C814240F0C9
:101920002C81002001B0F0BD012001B0F0BD606944
:101930000028706F38D040F001007067FEF718FE85
:10194000054600BF706F8007AFD4FEF711FE401B45
:101950000228F7D925E0A0690028306846D040F475
:1019600080503060FEF704FE054600BF30688004FA
:101970009ED4FEF7FDFD401B0228F7D911E0D6F8F2
:10198000000440F48070C6F80004FEF7F1FD05463F
:10199000D6F80004C00519D4FEF7EAFD401B642800
:1019A000F6D9032001B0F0BD20F001007067FEF70A
:1019B000DFFD0546706F80077FF577AFFEF7D8FD36
:1019C000401B02284FF00300F4D9D4E0A06800289F
:1019D00040D0012806D00528306F40F0B58040F097
:1019E00004003067306F40F00100B3E020F4805015
:1019F0003060FEF7BDFD0546306880047FF558AFC6
:101A0000FEF7B6FD401B02284FF00300F4D9B2E008
:101A1000306820F080703060FEF7AAFD022D054688
:101A20000CD100BF306880012ED5FEF7A1FD401B10
:101A300002284FF00300F5D99DE000BF3068800117
:101A40007FF56FAFFEF794FD401B02284FF00300B7
:101A5000F4D990E0306F20F001003067306F20F053
:101A600004003067FEF784FD054641F2883700BF69
:101A7000306F80077FF51FAFFEF77AFD401BB8423D
:101A80004FF00300F4D976E004F12807B06A40F281
:101A9000F33188438ECF0843591E40EA02104FF4B9
:101AA0007E42B06202EB47206FF35F214FF4FE02EB
:101AB00080B2E36B0844A16B02EB01414FF0FE42A0
:101AC00001F4FE0102EB0362084402F0FE41084407
:101AD0003063F06A4FF6F87120F00100F062706B2D
:101AE000A26C884340EAC2007063F06A216C20F067
:101AF0000C000843F062F06A616C20F002000843B9
:101B0000F062F06A40F48030F062F06A40F4003035
:101B1000F062F06A40F48020F062F06A40F0010068
:101B2000F062306840F080703060FEF721FD0446BE
:101B3000306880013FF5F5AEFEF71AFD001B022864
:101B40004FF00300F4D916E020F001003067306F49
:101B500020F004003067FEF70BFD054641F28837A0
:101B6000306F80073FF5A7AEFEF702FD401BB8427D
:101B70004FF00300F4D901B0F0BDF06A20F001008D
:101B8000F062FEF7F5FC0546FEF7F2FCA842FBD03A
:101B9000706B4FF6F871A26C884340EAC200706324
:101BA000F06A40F00100F062002001B0F0BD0000DA
:101BB00070B50446007A012801D1022070BD0120D1
:101BC0002072607A01281ED10D4602206072FEF755
:101BD000CFFC21684A68D2071BD1064603E000BF4C
:101BE0004868C00715D1FEF7C3FC801B2168032895
:101BF000F6D34868C007F3D1012060720221E1608A
:101C00000021217270BD0420E060012000212172BA
:101C100070BD88682061286001206072002000216A
:101C2000217270BD00000000B0B510B30446407AC8
:101C300020B900202072204600F036F802206072A1
:101C4000D4E90001026822F020021143016001681A
:101C500041F004010160406840060CD4FEF788FCA6
:101C60002168496849070AD4012060720020E060B9
:101C7000B0BD0120B0BD042060720120B0BD05469A
:101C800003E000BF40684007EED5FEF771FC401B43
:101C900003282068F6D341684907F3D50420607211
:101CA0000220E0600120B0BD10B5B2B0044602A829
:101CB000C021FEF714FB41F600012068C4F60201C2
:101CC000884201D032B010BD00200390229002A8BB
:101CD0004FF400310291FEF783FD08B1FEF724FBBB
:101CE00044F2DC40C5F60200016841F040010160A9
:101CF000006800F040000190019832B010BD000073
:101D0000411E0020B0EB116F01D0012070474EF250
:101D10001002F023CEF2000251604EF62351CEF2B3
:101D200000010B70072190601160704700000000F7
:101D3000FEE700000000000070B586B044F2E0400D
:101D40000025C5F60200059541F200040022016855
:101D5000C5F6020441F0100101600168082601F097
:101D6000100100910099016841F0040101600168CF
:101D700001F0040100910099016841F080010160C7
:101D8000016801F0800100910099016841F00101B2
:101D900001600068082100F00100009000982046D2
:101DA000FEF7D6FB01960120CDE9020501A92046E8
:101DB0000495FEF7D1FA06B070BD000000000000E7
:101DC00080B540F2100041F60001C2F20040C4F6B6
:101DD0000201016000214160FFF726FF002808BFD3
:101DE00080BDBDE88040FEF79FBA00000000000003
:101DF000FEE7000000000000704700000000000047
:101E00007047000000000000F0B581B044F22C479C
:101E1000C5F6020757F8042C02F00302032A02D188
:101E2000012001B0F0BD054657F82C0C0C4620F0FF
:101E3000806047F82C0CFEF79BFB064657F82C0CED
:101E4000000105D5FEF794FB801B0228F6D964E05B
:101E500057F8040CEE6895E80E0020F47C3040EA58
:101E60000130A2F101014FF47E4247F8040C02EB6D
:101E700043224FF0FE436FF35F2192B202EB010069
:101E80004FF4FE012A6901EB064101F4FE0103EB68
:101E90000262084402F0FE410844F860386869694B
:101EA00020F0C00040EA010038603868A96920F0DD
:101EB000200040EA0100386038684FF6F87120F0E1
:101EC000100038603869EA6920EA010040EAC2007F
:101ED0003861386840F0100038602CB1012C386847
:101EE00006D140F4801005E0386840F4002001E09D
:101EF00040F40010386057F82C0C40F0806047F830
:101F00002C0CFEF735FB044657F82C0C000107D4C7
:101F1000FEF72EFB001B0328F6D3032001B0F0BD13
:101F2000002001B0F0BD0000F0B581B044F22C47B4
:101F3000C5F6020757F8042C02F00302032A02D167
:101F4000012001B0F0BD054657F82C0C0C4620F0DE
:101F5000805047F82C0CFEF70BFB064657F82C0C6C
:101F6000800005D5FEF704FB801B0228F6D964E04B
:101F700057F8040CEE6895E80E0020F07C7040EAFB
:101F80000150A2F101014FF47E4247F8040C02EB2C
:101F900043224FF0FE436FF35F2192B202EB010048
:101FA0004FF4FE012A6901EB064101F4FE0103EB47
:101FB0000262084402F0FE410844786138686969A9
:101FC00020F4406040EA010038603868A96920F4D4
:101FD000007040EA0100386038684FF6F87120F46C
:101FE00080703860B869EA6920EA010040EAC200FE
:101FF000B861386840F4807038602CB1012C3868C2
:1020000006D140F4000005E0386840F4800001E0AB
:1020100040F08070386057F82C0C40F0805047F842
:102020002C0CFEF7A5FA044657F82C0C800007D4B8
:10203000FEF79EFA001B0328F6D3032001B0F0BD83
:10204000002001B0F0BD000070470000000000005B
:10205000FEF796BA0000000070B59CB044F6180474
:1020600009A84C21C5F60204FEF739F90220002523
:10207000CDE90755CDE90555CDE90355CDE9015524
:102080000226FEF789FB40F22C400095C5F60000C1
:10209000016821F001010160006800F0010000907A
:1020A000206866F38F302060206800F44040009084
:1020B00000982068800409D4206880045CBF2068F0
:1020C0005FEA804002D420688004F2D52120099084
:1020D0004FF480300A9001200F9002200521CDE9B5
:1020E00012001491C02115910421CDE9161009A800
:1020F0001891082419940025CDE91A55FFF7B8FA6C
:102100003F20019003204FF48061CDE90205049443
:102110004020CDE90500CDE9071001A80221FFF715
:10212000F3F81CB070BD00004EF6885C4EF67F5090
:10213000CEF2000CCEF6F620DCF8001041F470016F
:10214000CCF8001044F20041C5F602010A6842F0E2
:1021500001020A6000220A610B68184008608A6167
:10216000CA610A628A62CA620A634A638A63CA638C
:102170000A644A64086820F48020086041F2000084
:102180000A66C5F600400068B2EB507F05D148F200
:1021900008100121C5F2001001604FF000604CF8FA
:1021A000800C704700000000FEE700000000000007
:1021B00086B04EF660750124CEF200050294FEF75B
:1021C0007BFA059402AC1B208DF8100020464FF0DE
:1021D000104703974FF000088DF813804FF4807676
:1021E000ADF81160FEF738FA40F20110ADF80800C2
:1021F00016208DF8100005208DF81300002003979D
:10220000C0F2011005902046ADF81160FEF724FAE7
:102210000420FEF761FA4FF6B451CFF6FF7168580B
:10222000800311D4BFF34F8FBFF36F8F45F8108C2D
:10223000BFF34F8FBFF36F8F685840F40030685082
:10224000BFF34F8FBFF36F8F6858C00360D44FF652
:1022500024600021CFF6FF70012343F6E07B295074
:102260004FF62060CFF6FF70BFF34F8F2858C2089B
:10227000C0F34E31C0F3C90703EBD0007E1E9307B5
:10228000A7F1020A4FEA867E00F003044FEA8A7043
:102290000190F81E009003E00029A1F1010129D06E
:1022A0000BEA41103A467CB1012C43EA00022A6055
:1022B000324609D0022C4EEA00022A60524603D070
:1022C000019A02432A60009A032FE5D340EA827004
:1022D000013200F1404C80F0004800F1804900BF1D
:1022E000043A2860C5F800C0C5F80080C5F8009021
:1022F000F6D1D1E74FF6B451CFF6FF71BFF34F8F50
:10230000685840F480306850BFF34F8FBFF36F8F31
:10231000FEF746F9FFF7A0FEFFF70EFDFFF750FDB1
:1023200040F2100841F2000648F2B517C2F2004828
:1023300002ADC5F60206C1F64E374FF4167400BF63
:1023400040462946FFF734FC08213046FEF7F8F8EE
:102350000298A0FB0712910901FB1400FDF7E8FFAA
:10236000EEE702E008C8121F08C1002AFAD1704740
:102370007047002001E001C1121F002AFBD1704705
:10238000000000000102030401020304060708091B
:10239000B0230008000000241000000062230008A1
:1023A000C023000810000024180400007223000855
:1023B00001000000100000000090D0030090D00346
:040000050800029954
:00000001FF
