:020000040800F2
:1000000090260024AD02000899450008D943000855
:10001000914500089908000891760008000000004A
:10002000000000000000000000000000D94F0008A0
:100030004109000800000000B1450008E14F000838
:10004000C7020008C7020008C7020008C70200086C
:10005000C7020008C7020008C7020008C70200085C
:10006000C7020008C7020008C7020008C70200084C
:10007000C7020008C7020008C7020008C70200083C
:10008000C7020008C7020008C7020008C70200082C
:10009000C7020008C7020008C7020008C70200081C
:1000A000C7020008C7020008C7020008C70200080C
:1000B000C7020008C7020008C7020008C7020008FC
:1000C000C7020008C7020008C7020008C7020008EC
:1000D000C7020008C7020008C7020008C7020008DC
:1000E000C7020008C702000800000000C70200089D
:1000F000C7020008C7020008C7020008C7020008BC
:10010000C7020008C7020008C7020008C7020008AB
:10011000C7020008C7020008C7020008C70200089B
:10012000C7020008C7020008C7020008C70200088B
:10013000C7020008C7020008C7020008C70200087B
:1001400000000000000000000000000000000000AF
:10015000C7020008C7020008C7020008C70200085B
:10016000C7020008C7020008C7020008C70200084B
:10017000C7020008C7020008C7020008C70200083B
:10018000C7020008C7020008C7020008C70200082B
:10019000C7020008C7020008C7020008C70200081B
:1001A000C7020008C7020008C7020008C70200080B
:1001B000C7020008C7020008C7020008C7020008FB
:1001C000C7020008C7020008C7020008C7020008EB
:1001D000C7020008A1450008C7020008C7020008BE
:1001E000C7020008C7020008C7020008C7020008CB
:1001F000C7020008C7020008C7020008C7020008BB
:10020000C7020008C7020008C7020008C7020008AA
:10021000C7020008C7020008C7020008C70200089A
:10022000C7020008C7020008C7020008000000005B
:10023000C7020008C702000800000000C70200084B
:10024000C7020008C7020008C7020008C70200086A
:10025000C7020008C7020008C7020008C70200085A
:10026000C7020008C7020008C7020008C70200084A
:10027000C7020008C7020008C7020008000000000B
:10028000C7020008C7020008C702000800000000FB
:1002900000000000C7020008DFF80CD000F030FAC0
:1002A00000480047997600089026002406488047B9
:1002B00006480047FEE7FEE7FEE7FEE7FEE7FEE74B
:1002C000FEE7FEE7FEE7FEE761510008990200083D
:1002D000D2B201E000F8012B491EFBD27047002288
:1002E000F6E710B513460A4604461946FFF7F0FF35
:1002F000204610BD421C10F8011B0029FBD1801ABA
:10030000704730B50B46014600202022012409E049
:1003100021FA02F59D4205D303FA02F5491B04FABE
:1003200002F52844151EA2F10102F1DC30BD2DE9D1
:10033000F05F0546002092469B4688460646814669
:1003400040241BE0284641464746224600F0F9F982
:1003500053465A46C01A914110D3114618462246B8
:1003600000F0E0F92D1A67EB01084F462246012004
:10037000002100F0D7F917EB00094E41201EA4F12F
:100380000104DFDC484631462A464346BDE8F09F7B
:100390002DE9FE4F804681EA0300C00F0C46009015
:1003A00021F0004123F00045B8EB0200A94105D23D
:1003B0004046214690461C460B46024623F000402C
:1003C000104347D0270DC7F30A00C3F30A51029028
:1003D000401A019040286BDAC3F3130040F4801BED
:1003E0000098924620B10023D2EB030A63EB0B0B7B
:1003F00001985946C0F14002504600F093F9064674
:100400000D4650465946019A00F0ABF910EB080032
:100410006141002487EA115284EAE7731A4340D00D
:10042000009A62B3019A012A4FEA075215DC001BB9
:1004300061EB02014FF0004202EA0752CDE90042AF
:10044000001C41F5801132462B4600F0ABF903B099
:10045000BDE8F08F40462146F9E7001B61EB020141
:10046000001C41F5801300185B412018A2F500170D
:1004700047EB030140EAD570B6196D4111E06D08F4
:100480004FEA360645EAC0754FEA0752001B61EB9A
:100490000201001C41F5801149084FEA30000019A3
:1004A000514132462B4603B0BDE8F04F00F06BB926
:1004B0000098012240000023D0EB020263EBE073BE
:1004C000009821464FEAE074B8EB000061EB0401AC
:1004D000E9E783F000435BE781F0004158E72DE94D
:1004E000FE4F81EA030404F0004421F0004100942F
:1004F0004FF0000B23F0004350EA01045ED052EAB3
:1005000003045BD0C3F30A54C1F30A552C44A4F28C
:10051000F3340194A0FB0254C1F3130141F48011A0
:10052000C3F3130343F4801301FB024400FB034EA7
:10053000840A970A44EA815447EA8357A4FB076870
:1005400002958D0A05FB07854FEA932C04FB0C549A
:100550002705029D4FEA065847EA1637B5EB08050E
:100560006EEB070C870E920E47EA811742EA831260
:10057000A7FB0201B6EB0B0164EB00042B0D43EA71
:100580000C335E1844EB1C50DA465146E7FB02017F
:10059000C5F313044FEA0B3343EA14534FEA043212
:1005A000019C43EA0603A4F10C040294009CCDE9EB
:1005B00000B400F0F7F803B0BDE8F08F002001466A
:1005C000F9E72DE9F04D81EA030404F0004B21F036
:1005D000004514464FF0000A23F0004150EA05029E
:1005E00020D054EA01021DD0C5F30A570246C5F3D4
:1005F0001303C1F31300C1F30A5640F4801543F40A
:100600008013A7EB0608101BD64608F2FD3873EBE3
:10061000050002D308F1010801E092185B41B8F12E
:10062000000F03DA00200146BDE8F08D00204FF4F2
:100630008011064684460EE0171B73EB050705D3B1
:10064000121B63EB050306434CEA010C49084FEA11
:10065000300092185B4150EA0107EDD152EA0300E5
:1006600012D082EA040083EA0501084305D0101B7A
:10067000AB4106D20122002306E000224FF00043E6
:1006800002E06FF0010253101AEB06004CEB085128
:1006900010EB0A0041EB0B01BDE8F04D00F073B820
:1006A000C1F30A52C1F3130140F2FF3341F4801148
:1006B0009A4202DA00200146704740F233439A42E0
:1006C000A2F2334202DC524200F03BB800F02AB8FA
:1006D00030B5041E71F1000404DB4FF000444042C9
:1006E00064EB0101141E73F1000405DB1C464FF09E
:1006F0000043524263EB0403994208BF904230BD6D
:10070000064C074D06E0E06840F0010394E807005E
:1007100098471034AC42F6D3FFF7C2FD6080000862
:1007200080800008202A04DB203A00FA02F1002031
:1007300070479140C2F1200320FA03F3194390401F
:100740007047202A04DB203A21FA02F0002170478A
:1007500021FA02F3D040C2F1200291400843194629
:100760007047202A06DBCB17203A41FA02F043EA11
:10077000E07306E041FA02F3D040C2F1200291405A
:1007800008431946704710B5141E73F1000408DAC7
:10079000401C41F1000192185B411A4301D120F045
:1007A000010010BD2DE9F04D92469B4611B1B1FA02
:1007B00081F202E0B0FA80F220329046FFF7B2FFF9
:1007C00004460F4640EA0A0041EA0B0153465A46E6
:1007D000084313D0114653EA010019D0C8F1400272
:1007E0005046FFF7AEFF05460E4650465946424674
:1007F000FFF798FF084305D0012004E02046394662
:10080000BDE8F08D0020054346EAE0762C433743EF
:100810000A986305E40AA0EB08000022FD0A44EAF6
:1008200047540A3002D500200146E9E701051019B6
:100830006941DDE9084500196941BDE8F04DA2E7CD
:1008400070B58C1810F8015B15F0070301D110F892
:10085000013B2A1106D110F8012B03E010F8016BBF
:1008600001F8016B5B1EF9D12B0705D40023521E42
:100870000DD401F8013BFAE710F8013BCB1A921CAA
:1008800003E013F8015B01F8015B521EF9D5A142A8
:10089000D8D3002070BD0000FEE70000000000007B
:1008A000002070470000000000207047000000009A
:1008B00010B541F6242441F22421C2F20044C2F2D0
:1008C00000410022204604F063FE40F62421204629
:1008D000C2F2004104F04CFE002010BD00000000F8
:1008E00010B541F624240146C2F20044204604F02B
:1008F0003FFE204604F018FE002010BD000000005E
:10090000002070470000000010B541F62422C2F21A
:100910000042D2F8BC22D2F81422002A1CBF0120C7
:1009200010BD41F624240A46C2F200440146204686
:1009300004F02EFE2046BDE8104004F0B5BE0000D5
:10094000704700000000000010B541F200040821CB
:10095000C5F602040122204600F01AF940F2F31015
:1009600000F00EF808210022204600F011F940F2B4
:10097000F310BDE8104000F003B8000000000000D4
:10098000B0B5044600F014F940F200010546C2F289
:100990000041621C097818BF0C4400BF00F008F940
:1009A000401BA042FAD3B0BD2DE9F04F85B00D68D1
:1009B0000290002D00F0E68002988E4600F126425B
:1009C0000A2102F1FF7342F20042C5F6020200243E
:1009D00090424FEAB32208BF0921092A4FF00107CC
:1009E00038BF4FEAB32100264FF000080091CDF840
:1009F0000CE00DE0DEF8005008F1010835FA07F0D0
:100A000006F1020607F1010704F1040400F0BA80C0
:100A1000A7F1010A012000FA0AF315EA0309E9D057
:100A2000DEF804B00BF003056A1E012A22D80298F2
:100A30004FEA4801D0F808C00191032101FA06F2FB
:100A400003992CEA020CD1F80CE00EFA06F1DDF85D
:100A50000CE041EA0C01816041686FEA020CCBF3C3
:100A6000001299430346019802FA0AF211435960B1
:100A70000CE000BF0320032D00FA06F0029B6FEA92
:100A8000000C304602D13046032526E0D968DEF856
:100A9000082001EA0C018240022D41EA0201D960DE
:100AA0001BD102466FF0030000EA5A010F201944DF
:100AB00004F01C0300FA03F51046D1F820E0039A75
:100AC0002EEA0505DDF80CE012699A40029B2A43E4
:100AD0000A62DEF804B00BF00305196805FA00F0AD
:100AE00001EA0C011BF4403F40EA010018603FF4AA
:100AF00081AF44F2F44140F20845C5F60201C5F663
:100B000000050F23086840F002000860086800F044
:100B1000020004902AF00300049904F00C014259E9
:100B20008B409A43009B03FA01F1114341514FF06E
:100B3000B0452868DEF8041040EA0902CB0258BF2D
:100B400020EA09028B022A6040F20405C5F600057E
:100B5000286840EA090258BF20EA09028B032A608C
:100B6000D5F8800040EA090258BF20EA0902C9030B
:100B7000C5F88020E86F40EA090258BF20EA090260
:100B8000EA6737E705B0BDE8F08F0000000000001D
:100B9000002A08BF090481617047000000000000BE
:100BA00041F20000C5F600400068000C70470000EC
:100BB00042F28820C2F20040006870470000000046
:100BC00040F2000042F28821C2F20040C2F200412D
:100BD00000780A68104408607047000000000000B8
:100BE00080B5032000F0A8F802F032FC44F218416E
:100BF00048F25003C5F60201C0F600030A68C2F3CA
:100C00000322096801F00F019A5C595C02F01F028F
:100C1000D04040F20C02C2F2004201F01F0120FA63
:100C200001F1116040F20801C2F2004108600020A9
:100C300000F00AF800281CBF012080BD00F02CF84D
:100C4000002080BD0000000070B540F20006C2F236
:100C500000463178E1B1044640F20800C2F200409B
:100C60004FF47A72B2FBF1F10068B0FBF1F003F0DF
:100C70009BFB0F2C4FF0010508D838B94FF0FF301F
:100C800000222146002500F027F87460284670BD38
:100C9000012070BD0000000081B044F2F440C5F6B0
:100CA0000200016841F002010160006800F00200EA
:100CB0000090009801B07047002848BF704700F0CE
:100CC0001F01012202FA01F14EF200124009CEF298
:100CD000000242F82010704770B54EF60C5C4FF0E1
:100CE000FF36CEF2000C00F16045DCF80030C3F3B3
:100CF000022E8EF00703042B28BF0423BEF1030449
:100D000006FA03F321EA030100F00F0338BF0024C1
:100D1000043BB0F1FF3F634406FA04F003F10C0317
:100D200001FA04F1C8BF05F5644322EA0000084354
:100D30000001187070BD00004EF60C514FF6FF0315
:100D4000CEF200010A681A4060F30A2242F0806085
:100D500040F0FD700860704701680122C0F800256E
:100D6000002280F8F424886940F000608861486DB2
:100D700040F08052002042F003024A6570470000B4
:100D800070470000000000000268002051627047B8
:100D900010B5D0F800E0DEF82400E1B3DEF828302A
:100DA000B1F1010C00EB13432DD00020002100BF56
:100DB0000EEB8000D0F8044141F00100C0B2844540
:100DC00003EB14431FD90EEB8000D0F8044141F02F
:100DD0000200C0B2844503EB144314D90EEB80002B
:100DE000D0F8044141F00300C0B2844503EB144342
:100DF00009D90EEB80000431D0F80441C8B2844513
:100E000003EB1443D4D80EEB8C0043EA0241C0F844
:100E10000411002010BD40EA0240CEF82800002056
:100E200010BD000000000000D0F8080504F048BF25
:100E300001EBC10200EB8202D0F80805926C04F0CD
:100E4000A7BE00000000000001EBC10200EB82021F
:100E5000D0F80805D2F8882204F0F6BE00000000A1
:100E6000D0F8080504F030BF10B5044601F00F00BB
:100E70000A0600EBC00104EB810213D402F51F71D6
:100E8000002382F87D3294F8BC240870012A13D024
:100E9000012084F8BC04206805F01EFD002084F8C1
:100EA000BC0410BD02F13C01012382F83D3094F8EE
:100EB000BC240870012AEBD1022010BD0000000004
:100EC000B0B5044601F00F006268904201D90120DC
:100ED000B0BD090609D400EBC001002304EB810278
:100EE00002F51F7182F87D3208E000EBC00101239A
:100EF00004EB810202F13C0182F83D3094F8BC24FD
:100F000000258D70012A087001D10220B0BD01209A
:100F100084F8BC04206805F0ABFF284684F8BC5474
:100F2000B0BD00000000000001F00F0101EBC101A5
:100F300000EB8100D0F89002704700000000000034
:100F4000B0B5054601F00F000C0600EBC00105EB43
:100F5000810C05D40CF51F7100248CF87D4204E04F
:100F60000CF13C0101248CF83D404C7808708A60FB
:100F7000002C0B7118BF4883022B01D1002048714F
:100F800095F8BC04012801D10220B0BD012085F8EC
:100F9000BC04286805F040FB002085F8BC04B0BD07
:100FA00080B501F00F0E0EEBCE0100EB810C00219D
:100FB000CCF88822CCE9A331C3688CF87D12012BD0
:100FC0008CF87CE208BFCCF898220CF51F71006801
:100FD000DAB205F09DFF002080BD00000000000097
:100FE000B0B5044601F00F054068854201D90120E3
:100FF000B0BD080609D401EBC100002204EB80005B
:1010000000F51F7180F87D2208E005EBC500012284
:1010100004EB800000F13C0180F83D2094F8BC24F2
:1010200001208870012A0D7001D10220B0BD84F822
:10103000BC04206805F044FF1DB1002084F8BC0406
:10104000B0BD217B206804F2C44205F0E1FE00201F
:1010500084F8BC04B0BD000080B501F00F0E0EEBAB
:10106000CE0100EB810C614601F83CEF4FF0000E21
:10107000C1F814E04FF0010E81F801E0D0F80CE067
:10108000CA60BEF1010F0B6108BFCCF858200068A0
:101090005FFA8EF205F03CFF002080BD00000000EA
:1010A0002DE9F04F89B005688246284606F04CF9D4
:1010B00010B109B0BDE8F08FDAF8000006F074F95D
:1010C0000028F6D0D5F80808C0F30D20CAF8FC04B3
:1010D000DAF8000006F068F98007DAF8000003D5B6
:1010E000416901F00201416105F50061039106F0DB
:1010F0005BF9C006DAF8000005953FD5816921F05B
:10110000100181612C6A04F00F05C4F343400628E6
:101110001CD002282BD147F6F070044027D005EBF5
:10112000C50022090AEB80050598D5F8881206F05B
:101130003FF9D5F88802D5F8901200EB1410C5F8E5
:10114000880201EB1410C5F8900210E00AF2C441C5
:101150000822059806F02CF905EBC500C4F30A1126
:101160000AEB8000D0F890221144C0F89012DAF80F
:101170000000816941F010018161059D06F014F9BC
:101180000003CDF820A040F10A81DAF8000006F053
:10119000E7F8002800F0038106460AF527780027C3
:1011A0004FF4306B00240AF2C44007900CE000BFFB
:1011B000B7EB560F04F101044FEA56060BF1200B72
:1011C00008F1240800F0EB80F007F1D05FFA84F911
:1011D000DAF80000494606F0DFF88246C0076CD016
:1011E00005EB0B0001218160089F38680BEB0001C3
:1011F000036C8A68FF68012F29D117073BD4970633
:1012000058D412F0280F4FF0000756D143F20B07C5
:10121000C4F65477BB4202D312F4004247D1D8F847
:10122000002009696FF3DF41A2EB01014FF00007D5
:1012300048F80C1CD4B9089BD3F88C22002A00F083
:10124000A980D3F888020844C3F888020EE043F26C
:101250000B07C4F65477FF37BB421AD1100426D4CB
:1012600090064FF0000701D5202088600898494675
:10127000FFF7EAFD21E043F20B000027C4F65470AB
:1012800083421AD312F4004017D04FF40040886014
:1012900013E03CB90899D1F88C1219B90021079ACA
:1012A00005F0B6FD08984946FFF7CEFD04E04FF47F
:1012B000004000E02020886000275FEA0A7029D5FE
:1012C00005EB0B0008218160089801680BEB010019
:1012D0000D6C8168090443F20B01C4F65471A1F14D
:1012E000010704D5BD4284BF4FF4004181600898D6
:1012F00000F0FEFCBD42059D4FF000070AD908989A
:10130000C068012806D108980121079A006805F0F5
:101310007FFD00BF5FEACA600CD45FEA8A7010D418
:101320005FEA8A6026D45FEA8A40DDF820A07FF574
:101330003FAF29E005EB0B00102181605FEA8A7066
:10134000EED56869000604D50399486840F48060CA
:10135000486018F81D0C012805D10898494608F87E
:101360001D7C00F095FB05EB0B00022181605FEA1C
:101370008A60D8D505EB0B00202181605FEA8A40A6
:10138000DDF820A07FF514AF05EB0B004FF4005102
:1013900081600DE70121079A05F03AFD66E7DAF86A
:1013A000000006F001F84003DDF80CB040F1E580E4
:1013B000DAF8000005F0CCFF002800F0DE800646D9
:1013C000002705F5106004900AF2C440029007E07F
:1013D00000200137B0EB560F4FEA560600F0CD80E3
:1013E000F007F5D0DAF80000A846F9B2079105F049
:1013F000BFFF0446C007049D0CD1200734D4E0068B
:1014000038D460063CD4A00740D420064546DFD53A
:1014100056E000BF07F00F00012305EB4712DBF891
:10142000341003FA00F021EA0000CBF83400936096
:10143000DAF80C00012811D107EBC7000AEB800095
:10144000D0E911121144816447B9DAF84C0028B987
:10145000DAF800000121029A05F0DAFC50460799FB
:10146000FFF7E6FC2007CAD505EB4710082181608D
:10147000E006C6D505EB4710102181606006C2D595
:1014800005EB471040218160A007BED54046394694
:1014900005F0EEFE07EBC7000AEB800010F83F1FD7
:1014A000012905D1002101705046079900F0ECFA9E
:1014B00005EB471002218160200645467FF588AF85
:1014C00007EBC7000AEB8002914659F84C1FC8464B
:1014D00058F8040F8142FFF47BAF9346DAF80040DE
:1014E0000D1A5BF8443F9D4288BF1D4604EB47132D
:1014F000069405F1030CD3F81859ADB2B5EB9C0F67
:1015000026D303F5106A02F1480500BF81421FD9B6
:101510000C1A0899DBF8000084420A7B88BF044655
:1015200029680092A3B2DDE9060206F071F8286886
:10153000E11C20442860D8F800002044C8F80000CE
:10154000DAF8182092B2B2EB910FD9F80010DDD280
:101550008142DDF820A0059DDDF80CB03FF638AFE4
:10156000069A07F00F00012101FA00F0D2F83418B2
:1015700021EA0000C2F834082AE7DAF8000005F092
:1015800013FF00281BD4DAF8000005F00DFF00055A
:1015900034D4DAF8000005F007FF00013FD4DAF890
:1015A000000005F001FFC0044BD4DAF8000005F09C
:1015B000FBFE8004DAF8000000F161817AE1DBF8DB
:1015C000040020F00100CBF804009AF8F40401288C
:1015D00007D100208AF8F40400215046FFF7D0FB21
:1015E00002E0504600F068FBDAF80000416901F0C3
:1015F0000041416105F0D8FE0005CAD5DBF80800BE
:10160000C00702D0504600F09BFBDAF800004169A9
:1016100001F40061416105F0C7FE0001BFD5DAF8B1
:101620000000416901F0006141619AF8F414F9B1D8
:10163000504600F085FBDAF8000005F0B5FEC00466
:10164000B3D5DBF80400102120F00100CBF8040032
:10165000DAF8000005F00CFEDAF80400002800F0CB
:10166000D580411E00F0030C032915D2002181E032
:1016700001218AF8F414406D0121C0F38300CAF8F7
:10168000F8045046FFF77CFBDAF8000005F08CFE0A
:10169000C0047FF58AAFD4E7A0EB0C0E05F53663E6
:1016A0004FF6A0584FF6C0554FF6E0544FF6006085
:1016B00000214FF67F37CFF6FF78CFF6FF75CFF6D4
:1016C000FF74CFF6FF7000BFA3F51872A3F5107674
:1016D000043197608E4553F8082022F4001243F835
:1016E000082043F8587C53F8602C22F4001243F889
:1016F000602C53F8602C42F0006243F8602CB76015
:10170000A3F508765A5922F400125A5143F8387C4E
:1017100053F8402C22F4001243F8402C53F8402C8C
:1017200042F0006243F8402CB760A3F500761A59E6
:1017300022F400121A5143F8187C53F8202C22F49A
:10174000001243F8202C53F8202C42F0006243F89A
:10175000202CB7601A5822F400121A509F601A68A1
:1017600022F400121A601A6842F000621A6003F153
:101770008003A9D1BCF1000F059847D000F5106295
:1017800000F5306002EB41164FF67F374B01BCF19C
:10179000010FB76000EB4115D65826F40016D6505D
:1017A000AF60C65826F40016C650C65846F000660C
:1017B000C6502BD00131BCF1020F4FEA411502EBAC
:1017C000411600EB4111B760565926F400165651E8
:1017D0008F60415921F400114151415941F000619C
:1017E000415113D003F140014FF67F37531846188B
:1017F0009F60535823F400135350B760425822F4AB
:1018000000124250425842F000624250DBF81C0085
:1018100040F00110CBF81C00DAF8300040B1DBF8E2
:10182000840040F00B00CBF884000BF1440008E08A
:10183000DBF8140042F22B010843CBF814000BF143
:10184000100001680AF2C44241F00B010160DBF8AC
:10185000000020F4FE60CBF800009AF80C10DAF8D3
:10186000000005F0D5FADAF80000416901F4805172
:10187000416105F099FD8004DAF800001AD504F002
:1018800017FFDAF8000005F04FFDCAF81000DAF88B
:10189000004001F085FD9AF810200146204605F031
:1018A0002BFE504600F0F0F9DAF80000416901F42F
:1018B0000051416105F078FD000706D4DAF8000018
:1018C00005F072FD00060DD434E0504600F0F8F942
:1018D000DAF80000416901F00801416105F064FD9A
:1018E000000627D50599886920F080008861DAF81C
:1018F000040002281ED30AF2A324012504E000BF3D
:1019000001352434854215D221780129F8D105F01A
:101910000F002A0600EBC0000AEB800000F13C013A
:1019200058BF00F51F71DAF8000005F011FCDAF875
:101930000400E5E7DAF8000005F036FDC00251D4F6
:10194000DAF8000005F030FD800240F18080DAF81E
:10195000040002282DD305990AF5297201F5326198
:101960000123012706E000BF01372031874202F141
:1019700024021ED20E68B6F1FF3FF5DC1578012D6A
:10198000F2D1DAF8FC5406F4803605F00105AE42D7
:10199000EAD1059D02F8013CAE6946F08006AE61D1
:1019A0006E693606E0D4DBF8040040F40070CBF832
:1019B0000400DAF80000416901F40011416105F00A
:1019C000F3FC400049D55046FFF72EFADAF8000044
:1019D000416901F08041416105F0E6FC400743D4D4
:1019E000FFF767BBDAF80400022825D305990AF14E
:1019F000640501F512640126012705E00137203452
:101A0000874205F1240517D22168B1F1FF3FF5DCCB
:101A100029780129F2D107F00F0005F8016C00EBDD
:101A2000C0000AEB800000F13C01DAF8000005F08C
:101A30008FFBDAF80400E1E7DAF80000416901F40D
:101A40008011416105F0B0FC80023FF580AFDAF80B
:101A5000000005F0A9FC4000B5D4DAF8000005F05C
:101A6000A3FC40077FF525ABDAF800004468610766
:101A700004D55046FFF7F4F9DAF800004168214335
:101A8000416009B0BDE8F08FD0F8080504F078B9DE
:101A9000D0F8080504F088B92DE9F04F8BB0002884
:101AA00000F085800446056890F8BD0428B9002040
:101AB00084F8BC04204600F093F8032084F8BD04A9
:101AC000E86BC00501D40020E060206805F098F9BB
:101AD00004F1040E04F11C0A20680A909EE80E58D6
:101AE0009AE8C007D4E90C50CDE9085003A88DE866
:101AF000005880E8C0070A9804F0EAFD002853D196
:101B000020680021002505F0AFFC616871B3012059
:101B10000023002203EBC30304EB8307D3B287F84F
:101B20003C200132A7F85630D3B287F83D009942E5
:101B300087F840507D64BD64FD64EBD8002000232D
:101B4000002200BF03EBC30304EB830787F87C226A
:101B50000132D3B287F87D02994287F88002C7F834
:101B60008402C7F88802C7F88C02EBD804F1140E7F
:101B700004F1240AA0680A902268D4E903379EE899
:101B800040589AE80007D4E90C50CDE9085002A863
:101B9000CDE9007680E8005805A880E800071046E7
:101BA0000A9A04F001FF30B1022084F8BD0401203C
:101BB0000BB0BDE8F08F002084F83800012084F8D5
:101BC000BD04606A012802D12046FFF7C5F82068ED
:101BD00004F0DAFE00200BB0BDE8F08F000000003A
:101BE000B0B5B8B0044602A8C0210025CDE93655ED
:101BF000CDE934553395FEF772FB00212068C4F21D
:101C00000801884201D038B0B0BD4FF48020029066
:101C10004FF44010249002A8039500F0FDFC08B199
:101C2000FEF792FE00F0CCF844F2D84433A9C5F692
:101C30000204A06840F00100A060A06800F001006C
:101C4000019001984FF4C05033900220349000204E
:101C5000CDE935000A2037900020C5F60200FEF7D6
:101C6000A3FE2068002140F0006020602068002270
:101C700000F00060019001986520FFF72DF86520C5
:101C8000FFF71AF838B0B0BD10B50446006918B1B6
:101C9000022803D1012104E0002102E0FEF754FEF6
:101CA0000121D4F8080504F00FF9D4F80805BDE8BF
:101CB000104004F0B9B80000D0F8080504F0E8B806
:101CC000D0F8080504F0F0B810B5044690F8BC044C
:101CD000012801D1022010BD012084F8BC0484F841
:101CE0003810206805F0F4FB002084F8BC0410BD17
:101CF000D0F8082500F2C441104604F0FDB80000F9
:101D000010B5044690F8BC04012801D1022010BD92
:101D10002068012184F8BC14C16BC90506D4A16AEE
:101D2000012903D1816B41F48031816305F098FA78
:101D3000206804F019FE002084F8BC0410BD0000E7
:101D400010B50446D0F8080504F02EF92068D0F844
:101D5000001E41F00101C0F8001E206A002808BFE3
:101D600010BD4EF61050CEF20000016841F00601A1
:101D7000016010BD00000000B0B544F60C05C5F6CA
:101D8000020529684907296805D401F00701081AE6
:101D900018BF0120B0BD21F0070108432860FEF7FD
:101DA00007FF044655F8080C800407D4FEF700FF2F
:101DB000001BB0F57A7FF5D90120B0BD0020B0BD81
:101DC00044F60C00C5F60200016841F08071016024
:101DD000704700000000000080B544F2304EC5F6A8
:101DE000020E5EF8083C5EF8082CC2F3051C5EF893
:101DF000042CDEF8041002F00102BCF1000FC1F364
:101E0000CC0102FB01F100EE101AB8EE400A0DD031
:101E100003F00303022B0ED0012B0FD01BB95EF889
:101E2000301C89060DD49FED351A18E00021C0E959
:101E30000011816080BD9FED301A10E09FED2D1ADA
:101E40000DE05EF8301C49F20002C0F2D032C1F35E
:101E5000C10122FA01F101EE101AB8EE411A02EEA8
:101E600010CA9FED274AB8EE422ADEF800106FF341
:101E70005F2103EE101A81EE021AB8EE433ADEF843
:101E8000001000EE043AB7EE000AC1F3462133EE2B
:101E9000002A03EE101AB8EE433A21EE021A33EE8E
:101EA000002A81EE022ABCEEC22A80ED002ADEF86A
:101EB0000010C1F3064102EE101AB8EE422A32EECB
:101EC000002A81EE022ABCEEC22A80ED012ADEF849
:101ED0000010C1F3066102EE101AB8EE422A32EE8B
:101EE000000A81EE000ABCEEC00A10EE101A8160F2
:101EF00080BD00BF0024744A20BCBE4B0024744C3B
:101F0000000000390000000080B544F2384EC5F6EC
:101F1000020E5EF8103C5EF8102CC2F3053C5EF831
:101F20000C2CBCF1000FC2F30012DEF80410C1F358
:101F3000CC0102FB01F100EE101AB8EE400A0BD002
:101F400003F00303022B0CD073B95EF8381C89062A
:101F50000DD49FED351A18E00021C0E90011816011
:101F600080BD9FED301A10E09FED2D1A0DE05EF858
:101F7000381C49F20002C0F2D032C1F3C10122FA8A
:101F800001F101EE101AB8EE411A02EE10CA9FEDEF
:101F9000274AB8EE422ADEF800106FF35F2103EE05
:101FA000101A81EE021AB8EE433ADEF8001000EE85
:101FB000043AB7EE000AC1F3462133EE002A03EEDD
:101FC000101AB8EE433A21EE021A33EE002A81EEDF
:101FD000022ABCEEC22A80ED002ADEF80010C1F30E
:101FE000064102EE101AB8EE422A32EE002A81EEC5
:101FF000022ABCEEC22A80ED012ADEF80010C1F3ED
:10200000066102EE101AB8EE422A32EE000A81EEA4
:10201000000ABCEEC00A10EE101A816080BD00BF3D
:102020000024744A20BCBE4B0024744C00000039CC
:1020300080B544F2404EC5F6020E5EF8183C5EF8DC
:10204000182CC2F3055C5EF8142CBCF1000FC2F32F
:102050000022DEF80410C1F3CC0102FB01F100EE16
:10206000101AB8EE400A0BD003F00303022B0CD079
:1020700073B95EF8401C89060DD49FED351A18E03F
:102080000021C0E90011816080BD9FED301A10E091
:102090009FED2D1A0DE05EF8401C49F20002C0F2DF
:1020A000D032C1F3C10122FA01F101EE101AB8EEEB
:1020B000411A02EE10CA9FED274AB8EE422ADEF816
:1020C00000106FF35F2103EE101A81EE021AB8EED2
:1020D000433ADEF8001000EE043AB7EE000AC1F30E
:1020E000462133EE002A03EE101AB8EE433A21EEF1
:1020F000021A33EE002A81EE022ABCEEC22A80EDDB
:10210000002ADEF80010C1F3064102EE101AB8EE04
:10211000422A32EE002A81EE022ABCEEC22A80ED6B
:10212000012ADEF80010C1F3066102EE101AB8EEC3
:10213000422A32EE000A81EE000ABCEEC00A10EE1E
:10214000101A816080BD00BF0024744A20BCBE4BC1
:102150000024744C0000003910B584B0024641F6EA
:10216000FF7300209B1A70EB01032EDB40F2FF335C
:102170009B1A70EB010354DA82F480630B4300F086
:10218000CD8082F400630B4300F0E08082F4805243
:10219000114340F0448144F20041C5F60201086D4C
:1021A000C0F30232042A00F2058248F20000C0F2B5
:1021B000BB00DFE812F0050036013B0134014001AD
:1021C0000868800140F1F68103E147F6FF739B1A2E
:1021D00070EB010348DA82F400430B4300F0CE8039
:1021E00082F480330B4300F0DB8082F40022114341
:1021F00040F0158144F20040C5F60200816D01F403
:102200004031B1F5003F00F0EA80B1F5803F00F0C9
:10221000F480002940F0CE810068000100F1708157
:10222000C8E182F480730B4348D082F400721143FA
:1022300040F0F58044F20041C5F60201086DC0F39C
:102240008212042A00F2B68148F20000C0F2BB00FC
:10225000DFE812F0050003010801E5000D01086840
:10226000800140F1A781B4E082F400530B433FD0DA
:1022700082F48042114340F0D28044F20044C5F61B
:102280000204A06DC0F30270052800F29381DFE81C
:1022900010F00600630167016B017001720101F02B
:1022A0007FF8216A48F25002C0F60002C1F3021121
:1022B000515C01F01F01C84004B010BD44F2004160
:1022C000C5F60201086D00F00702042A00F27281CF
:1022D00048F20000C0F2BB00DFE812F00500DB00AE
:1022E000E000A100E5000868800140F1638170E032
:1022F00044F20040C5F60200016DC1F30241052918
:1023000000F25881DFE811F0060041014A01530153
:1023100059014A0001F06CF804B010BD44F20041CC
:10232000C5F60201886DC0F34252042A00F24281D0
:1023300048F20000C0F2BB00DFE802F003C7CB7137
:10234000CF000868800140F1358142E044F200414D
:10235000C5F60201886DC0F30262042A00F22A81E8
:1023600048F20000C0F2BB00DFE802F003C7D0591A
:10237000D9000868800140F11D812AE044F2004044
:10238000C5F60200016D01F04051B1F1005F3ED091
:10239000B1F1805F19D0002940F00C810068EBE0BA
:1023A00044F20040C5F60200C16C0068C90303D4C2
:1023B000800140F1FF800CE0000140F1FB8001A8AA
:1023C000FFF7A2FD039804B010BD0068800140F142
:1023D000F18001A8FFF700FD029804B010BDC16CA8
:1023E000036811F04051026840F0F18013F00403DB
:1023F00000F0ED80C2F3C100F8E00068800040F119
:10240000D98001A8FFF714FE039804B010BD00683E
:10241000000140F1CF8001A8FFF776FD029804B0DB
:1024200010BD0868000140F1C58069E008688000BF
:1024300040F1C0806DE0C86C0B6810F04052086835
:1024400003D113F0040340F0CF80B2F1805F75D167
:1024500010F4807040F0C18070E00868000140F125
:10246000A9804DE00868800040F1A48051E0C86C6C
:102470000B6810F04052086803D113F0040340F0D9
:10248000B380B2F1805F59D110F4807040F0A58024
:1024900054E00868000140F18D8031E00868800058
:1024A00040F1888035E0C86C0B6810F04052086835
:1024B00003D113F0040340F09780B2F1805F3DD167
:1024C00010F4807040F0898038E00868000171D510
:1024D00016E0086880006DD51BE0C86C0B6810F032
:1024E0004052086802D113F004037DD1B2F1805F3D
:1024F00024D110F4807070D120E00868000159D513
:1025000001A8FFF701FD019804B010BD0868800024
:1025100050D501A8FFF78CFD019804B010BDC86C20
:102520000B6810F04052086802D113F004035BD12D
:10253000B2F1805F02D110F480704ED1086810F4BF
:1025400000301CBF47F64000C0F27D10B2F1005FC2
:1025500018BF002004B010BD206800012AD517E084
:102560002068800026D51CE02068400722D520681E
:102570003AE0206822E0206847F640018003C0F27C
:102580007D1101EAE07004B010BD0068000111D5B2
:1025900001A8FFF7B9FC029804B010BD00688000E4
:1025A00008D501A8FFF744FD029804B010BD0168EA
:1025B000490718D4002004B010BD006840F600118F
:1025C000C005C0F23D0101EAE07004B010BDB1F1F8
:1025D000805F13D112F4807210D040F60010C0F268
:1025E0003D0004B010BD0068C0F3C10049F2000115
:1025F000C0F2D03121FA00F004B010BD006810F430
:1026000000301CBF47F64000C0F27D10B1F1005F02
:1026100018BF002004B010BD2DE9F0470446C07873
:1026200044F22C480007C5F6020830D5A06E4FEAE8
:10263000305103290AD8DFE801F0020E1A23D8F836
:10264000001041F40031C8F8001019E0012660784C
:10265000C0070AD01FE004F10800022101F0ACFF1E
:10266000064660B16078C00715D1354645E004F1F3
:102670002800022102F030F806460028F2D1A06EB0
:10268000D8F8241021F440110843C8F8240000268B
:102690006078C007E9D0A06D04280DD83546DFE882
:1026A00000F00311171D1D00D8F80000354640F456
:1026B0000030C8F8000011E001250127607880078C
:1026C0001FD450E004F10800002101F075FF04E080
:1026D00004F12800002101F0FFFF05462F461DB13F
:1026E000607880070DD43EE0D8F82400A16D20F07A
:1026F000070000250843C8F82400374660788007A3
:1027000031D5E06D4FEAB01004280BD8DFE800F0B7
:102710000310161C1C00D8F8000040F40030C8F864
:10272000000011E001250126607840071FD453E026
:1027300004F10800002101F03FFF04E004F128004B
:10274000002101F0C9FF05462E461DB16078400703
:102750000DD441E0D8F82400E16D20F4E0700025AC
:102760000843C8F824003E466078400734D5D4F8C2
:10277000A8004FEA705004280BD8DFE800F00311DE
:10278000171D1D00D8F8000040F40030C8F8000004
:1027900012E001254FF001096078000720D453E0D2
:1027A00004F10800002101F007FF04E004F1280013
:1027B000002101F091FF0546A9461DB16078000790
:1027C0000ED441E0D8F82C00D4F8A81020F4600012
:1027D00000250843C8F82C00B1466078000733D5BF
:1027E000D4F8AC004FEA306004280BD8DFE800F0E2
:1027F0000310161C1C00D8F8000040F40030C8F884
:10280000000011E001250127E078800720D44CE08A
:1028100004F10800002101F0CFFE04E004F12800DB
:10282000002101F059FF05462F461DB1E0788007D1
:102830000ED43AE0D8F82C00D4F8AC1020F0E060C8
:1028400000250843C8F82C004F46E07880072CD5B7
:10285000E06C4FEA301003280CD8DFE800F00802E3
:102860001108D8F8000040F40030C8F800002E46E7
:1028700075B911E0012501266078C00619D44AE037
:1028800004F10800022101F097FE05462E461DB115
:102890006078C0060DD43EE0D8F82000E16C20F04E
:1028A000300000250843C8F820003E466078C00686
:1028B00031D5206E4FEA303004280BD8DFE800F025
:1028C0000310161C1C00D8F8000040F40030C8F8B3
:1028D000000011E001250127607880061FD44FE039
:1028E00004F10800002101F067FE04E004F1280073
:1028F000002101F0F1FE05462F461DB160788006EB
:102900000DD43DE0D8F82400216E20F4E0400025ED
:102910000843C8F8240037466078800630D5606EDA
:102920004FEA3040052807D8DFE800F0030C180311
:1029300003032E4675B91AE001250126607840068A
:1029400022D454E004F10800012101F035FE0546CF
:102950002E4665B16078400616D448E004F12800A0
:10296000012101F0B9FE0546002D2E46F2D1D8F81E
:102970002400616E20F4E02000250843C8F82400FC
:102980003E466078400632D5D4F8B0004FEA307049
:10299000052807D8DFE800F0030C180303032F46CF
:1029A00075B91AE0012501276078000623D444E0B8
:1029B00004F10800012101F0FFFD05462F4665B135
:1029C0006078000617D438E004F12800012101F0F6
:1029D00083FE0546002D2F46F2D1D8F82C00D4F8FE
:1029E000B01020F0E04000250843C8F82C0037461E
:1029F0006078000621D5206F58B1B0F1005F0BD090
:102A0000B0F1805F2DD1D8F8000040F40030C8F854
:102A100000002E4695B907E004F10800012101F0FD
:102A2000CBFD05462E464DB9D8F82400216F20F085
:102A3000405000250843C8F824003E46E078C0070F
:102A400031D0A06C032812D8DFE800F00802180883
:102A5000D8F8000040F40030C8F80000A946ADB92D
:102A600018E001250126E078C007EAD11BE0012526
:102A70004FF00109A078400619D51AE004F10800CA
:102A8000022101F099FD0546A9461DB1A078400636
:102A90000DD50EE0D8F82000A16C20F00300002531
:102AA0000843C8F82000B146A078400601D44F463C
:102AB00016E0D8F8D40340F48070C8F8D403FEF7C9
:102AC00077F80646D8F8D403C00507D4FEF770F8A7
:102AD000801B6428F6D90325032701E02F4685B122
:102AE0002078C00761D0E06F4FEAF000052838D8A1
:102AF000DFE800F0033D49030303002D2E463ED1DD
:102B00004AE0D8F84410D4F8B400414011F4407FB2
:102B100011D0D8F84410D8F8442042F48032C8F8D4
:102B20004420D8F8442021F4407122F48032C8F8BF
:102B30004420C8F84410B0F5807F40F0E482FEF7EE
:102B400037F8064641F2883A03250327D8F84400AF
:102B5000800700F1D682FEF72BF8801B5045F5D98F
:102B6000BEE7012601252078800722D450E004F139
:102B70000800012101F020FD05462E4665B12078B0
:102B8000800716D444E004F12800012101F0A4FDDF
:102B90000546002D2E46F2D1D8F82800E16F20F02E
:102BA000380000250843C8F828003E4620788007F2
:102BB0002ED5A06F052807D8DFE800F0030C180316
:102BC00003032F4675B91AE0012701252078400735
:102BD00022D452E004F10800012101F0EDFC054689
:102BE0002F4665B12078400716D446E004F128004E
:102BF000012101F071FD0546002D2F46F2D1D8F8D4
:102C00002800A16F20F0070000250843C8F828001D
:102C100037462078400730D5D4F89400052807D8E7
:102C2000DFE800F0030C180303032E4675B91AE021
:102C3000012601252078800623D455E004F1080000
:102C4000012101F0B9FC05462E4665B120788006C9
:102C500017D449E004F12800012101F03DFD0546AB
:102C6000002D2E46F2D1D8F82C00D4F8941020F084
:102C7000070000250843C8F82C003E46207880064F
:102C800032D5D4F890004FEA3070052807D8DFE835
:102C900000F0030C180303032F4675B91AE001274F
:102CA00001252078400623D455E004F108000021D6
:102CB00001F082FC05462F4665B12078400617D406
:102CC00049E004F12800022101F006FD0546002D2F
:102CD0002F46F2D1D8F82800D4F8901020F0E04028
:102CE00000250843C8F8280037462078400632D52A
:102CF000D4F89C004FEAB020052807D8DFE800F0A0
:102D0000030C180303032E4675B91AE001260125AA
:102D10002078000623D45AE004F10800002101F0D5
:102D20004BFC05462E4665B12078000617D44EE0D0
:102D300004F12800022101F0CFFC0546002D2E46AB
:102D4000F2D1D8F82C00D4F89C1020F4E0500025E3
:102D50000843C8F82C003E462078000637D5D4F842
:102D6000A0004FEA703005280ED8DFE800F003130A
:102D70001D0303032F4605B3206801072BD4C106AA
:102D800042D4000359D479E00127012520680107C6
:102D9000F5D520E004F10800002101F00DFC054606
:102DA000002D2F46E8D108E004F12800022101F0AF
:102DB00093FC0546002D2F46DED1D8F82C00D4F820
:102DC000A01020F4604000250843C8F82C003746C6
:102DD00020680107D3D5D4F88410B1F5805F0AD1FB
:102DE00004F12800022101F077FC002818BF012718
:102DF0002068D4F88410D8F8282022F440521143D7
:102E0000C8F82810C106BCD5D4F89810B1F5807F59
:102E10000AD104F12800022101F05EFC002818BF4D
:102E200001272068D4F89810D8F82C2022F440729A
:102E30001143C8F82C10000320D5D4F8A400B0F535
:102E4000003F0FD0B0F5803F06D078BB04F10800FA
:102E5000002101F0B1FB04E004F12800022101F09F
:102E60003BFC05462E4655B9D8F82C00D4F8A410E2
:102E700020F4403000250843C8F82C003E46A078D6
:102E800040072BD5D4F88800B0F5401F0BD0B0F523
:102E9000001F11D0B0F5801F29D1D8F8000040F4F0
:102EA0000030C8F800002F46CDB90DE001260125FD
:102EB000A0784007E6D411E004F12800012101F0D8
:102EC0000BFC05462F4655B9D8F82800D4F88810D1
:102ED00020F4401000250843C8F828003746A078A1
:102EE000C00709D13E462168880015D530E001278A
:102EF0000125A078C007F5D0206DB0F5803F0FD038
:102F000008BBD8F8000040F40030C8F800002E4696
:102F10007DB1216888001BD460688A0324D468E0EE
:102F200004F10800022101F047FB0546002D2E4662
:102F3000EFD1D8F82000216D20F48030002508431F
:102F4000C8F82000CEE70126012521688800E3D5D6
:102F500004F12800022101F0BFFB002818BF012660
:102F6000D4E900108A0344D5D4F880206FF001031F
:102F700003EB3223022B0BD34FEA322343B1012B55
:102F800040F0BA80D8F8003043F40033C8F800307D
:102F900045B3CA0230D4CA0038D48A0241D44A00A8
:102FA00049D4B1F1FF3F56DD09025ED4C10767D1B4
:102FB000810770D441077AD4010700F18480C106EB
:102FC00000F18D80800607D504F12800022101F070
:102FD00083FB002818BF0125002D18BF01252846B6
:102FE000BDE8F087D8F8283023F440731A43C8F8B6
:102FF00028203546CA02CED5D8F82420636F22F0A7
:1030000000421A43C8F82420CA00C6D558F81C2C20
:10301000D4F8B83022F480421A4348F81C2C8A02B3
:10302000BDD5D8F82420E36E22F080721A43C8F888
:1030300024204A00B5D558F81C2C22F4004248F848
:103040001C2CD4F8BC2058F81C3C1A4348F81C2C03
:10305000B1F1FF3FA8DCD8F82020636D22F0405288
:103060001A43C8F820200902A0D5D8F82810D4F8AF
:103070008C2021F440011143C8F82810C10797D0D3
:1030800004F10800002101F097FA002818BF054656
:10309000606881078ED504F10800012101F08CFAE7
:1030A000002818BF0546606841077FF585AF04F129
:1030B0000800022101F080FA002818BF0546606868
:1030C00001077FF57CAF04F12800002101F004FB2B
:1030D000002818BF05466068C1067FF573AF04F18C
:1030E0002800012101F0F8FA002818BF05466068A1
:1030F00080067FF571AF67E70125CA027FF54BAF08
:103100007AE7D4F8B4004FF6CF7358F81C2CC0F20D
:10311000FF0300F4407122F47C5203EA1013B1F56E
:10312000407F4FF0000508BF1A436FF31F3048F887
:103130001C2CD8F844100843C8F84400FFF7B7BC6B
:103140002DE9F04381B0002800F0268142F200080A
:103150000446C5F200288946D8F8000000F00F00A8
:1031600088420ED2D8F8000020F00F0040EA090093
:10317000C8F80000D8F8000000F00F00484540F003
:103180000B81206844F218474107C5F602070AD5AB
:1031900021693A6802F07002914204D93A6822F03B
:1031A00070021143396001070AD561697A6802F03B
:1031B0007002914204D97A6822F07002114379605A
:1031C000C1060AD5A1697A6802F4E062914204D985
:1031D0007A6822F4E0621143796081060AD5E169D8
:1031E000BA6802F07002914204D9BA6822F0700203
:1031F0001143B96010F002010AD0E2683B6803F0A5
:103200000F039A4204D93B6823F00F031A433A6034
:10321000C20743D0386820F47061D4E90102032862
:1032200041EA0201396007D002280BD157F8181C77
:10323000890340F1B18010E057F8181C890140F172
:10324000AB800AE0012857F8181C03D1C90540F1EA
:10325000A38002E0490740F19F8057F8081C21F045
:103260000701084347F8080CFDF7A2FC064641F2A7
:10327000883500BF57F8080C616800F03800B0EBE3
:10328000C10F08D0FDF794FC801BA842F2D903209F
:1032900001B0BDE8F083206800F0020151B1E1689F
:1032A0003A6802F00F02914204D23A6822F00F020B
:1032B00011433960D8F8001001F00F0149450DD9CC
:1032C000D8F8001021F00F0141EA0901C8F80010F8
:1032D000D8F8001001F00F0149455DD141070AD52A
:1032E00021693A6802F07002914204D23A6822F0F1
:1032F00070021143396001070AD561697A6802F0EA
:103300007002914204D27A6822F07002114379600F
:10331000C1060AD5A1697A6802F4E062914204D23A
:103320007A6822F4E0621143796080060AD5E06988
:10333000B96801F07001884204D2B96821F07001C7
:103340000843B86000F084F8396848F25003C0F6CA
:103350000003C1F303213A6802F00F02595C9A5C42
:1033600001F01F0120FA01F102F01F0040F20C02EF
:1033700021FA00F0C2F20042106040F2040040F274
:103380000802C2F20040C2F200420068116001B0BF
:10339000BDE8F043FDF758BC012001B0BDE8F08363
:1033A00080B500F055F844F2184148F25003C5F6D4
:1033B0000201C0F600030A68C2F30322096801F0A3
:1033C0000F019A5C595C02F01F0220FA02F201F030
:1033D0001F0040F20C0122FA00F0C2F20041086026
:1033E00040F20801C2F200410A6080BD0000000006
:1033F00080B500F02DF844F2184C48F25001C5F6A3
:10340000020CC0F60001DCF80020C2F30322DCF855
:10341000003003F00F038A5CCB5C02F01F02D04047
:1034200003F01F0240F20C0320FA02F2C2F2004342
:103430001A6040F20803C2F200431860DCF804008E
:10344000C0F30210085C00F01F0022FA00F080BDFB
:1034500044F20041C5F602010869C0F3C200032826
:103460000FD002282BD078BB0868800649F20000F4
:10347000C0F2D03058BF70470968C1F3C101C840DD
:1034800070478A6A886AC0F3051CCB6A486B03F0F0
:103490000103BCF1000FC0F3CC0003FB00F000EE11
:1034A000100AB8EE400A14D002F00302022A12D029
:1034B000A2B90868800614D49FED251A1EE047F6CD
:1034C0004000C0F27D10704740F60010C0F23D0091
:1034D0007047002070479FED1D1A0FE09FED1A1AEC
:1034E0000CE0086849F20002C0F2D032C0F3C1001B
:1034F00022FA00F001EE100AB8EE411A02EE10CAEC
:103500009FED144AB8EE422A086B6FF35F2003EE7A
:10351000100A81EE021AB8EE433A086B00EE043A44
:10352000B7EE000AC0F34620013033EE000A21EE68
:10353000000A01EE100AB8EE411A80EE010ABCEE54
:10354000C00A10EE100A70470024744A20BCBE4B1B
:103550000024744C00000039F0B581B0002800F060
:1035600057810446007844F20046C007C5F60206BB
:1035700021D12078800740F1B280306910F0380105
:10358000B06A3CD0182908BF5FEA807037D0E06885
:10359000316800285CD021F0190108433060FDF744
:1035A00007FB05463068400743D4FDF701FB401B8D
:1035B0000228F7D969E1306900F03801B06A1029B2
:1035C00005D018290AD100F00300022806D130687E
:1035D0008003CED560680028CBD119E1606800284F
:1035E00047D0B0F5803F06D0B0F5A02F30685ED14F
:1035F00040F480203060306840F480305DE0306816
:103600004007E06802D5002800F00281316821F00F
:10361000190108433060FDF7CBFA054630684007D2
:1036200007D4FDF7C5FA401B02284FF00300F5D977
:1036300015E2FDF7B5FA41F20301884230D820695E
:103640007168402821F47C3146D141F4003045E0D6
:1036500021F001003060FDF7ABFA05463068400705
:103660003DD5FDF7A5FA401B02284FF00300F5D920
:10367000F5E1306820F480303060306820F480203C
:103680003060FDF795FA0546306880037FF571AF2D
:10369000FDF78EFA401B64284FF00300F4D9DEE1F9
:1036A0007068216920F0FE4040EA016016E020F4D5
:1036B00080303060306820F480203060FDF778FA88
:1036C000054600BF306880033FF553AFFDF770FA41
:1036D000401B6428F6D9D8E041EA003070602078B9
:1036E000C00653D5306900F03801B06A082905D00A
:1036F000182919D100F00300012815D13068C00540
:1037000003D5E069802840F08380FDF749FA41F253
:10371000030188421DD8206A7168202821F0F841F1
:1037200031D141F0804030E0E0690028306818D0A5
:1037300040F080003060FDF73BFA05463068C00578
:10374000E3D4FDF735FA401B02284FF00300F5D90A
:1037500085E1F068216A20F07C5040EA0160F06069
:1037600014E020F080003060FDF722FA054600BF2B
:103770003068C0050AD5FDF71BFA401B02284FF040
:103780000300F5D96BE141EA8060706020780007A2
:1037900041D42078800652D42078400763D4656AEB
:1037A0009DB3306900F03800182840F0A580012D45
:1037B000B16A306B2CD001F00302A36A9A4227D180
:1037C000C1F30511E26A914222D10146226B6FF3E7
:1037D0005F21013A91421BD1C0F34621626B013A4D
:1037E000914215D1C0F30641A26B013A91420FD12B
:1037F000C0F30660E16B0139884209D1706BC0F3F8
:10380000CC00A16C814240F02C81002001B0F0BDC1
:10381000012001B0F0BD60690028706F38D040F021
:1038200001007067FDF7C4F9054600BF706F80079F
:10383000AFD4FDF7BDF9401B0228F7D925E0A069F8
:103840000028306846D040F480503060FDF7B0F971
:10385000054600BF306880049ED4FDF7A9F9401BDF
:103860000228F7D911E0D6F8000440F48070C6F8B9
:103870000004FDF79DF90546D6F80004C00519D4EB
:10388000FDF796F9401B6428F6D9032001B0F0BD7E
:1038900020F001007067FDF78BF90546706F800717
:1038A0007FF577AFFDF784F9401B02284FF0030046
:1038B000F4D9D4E0A068002840D0012806D005281B
:1038C000306F40F0B58040F004003067306F40F05A
:1038D0000100B3E020F480503060FDF769F905463F
:1038E000306880047FF558AFFDF762F9401B02286D
:1038F0004FF00300F4D9B2E0306820F080703060FF
:10390000FDF756F9022D05460CD100BF3068800145
:103910002ED5FDF74DF9401B02284FF00300F5D9D5
:103920009DE000BF306880017FF56FAFFDF740F983
:10393000401B02284FF00300F4D990E0306F20F0D4
:1039400001003067306F20F004003067FDF730F978
:10395000054641F2883700BF306F80077FF51FAF03
:10396000FDF726F9401BB8424FF00300F4D976E08A
:1039700004F12807B06A40F2F33188438ECF084340
:10398000591E40EA02104FF47E42B06202EB47201B
:103990006FF35F214FF4FE0280B2E36B0844A16B2A
:1039A00002EB01414FF0FE4201F4FE0102EB036223
:1039B000084402F0FE4108443063F06A4FF6F871A3
:1039C00020F00100F062706BA26C884340EAC200F4
:1039D0007063F06A216C20F00C000843F062F06A1A
:1039E000616C20F002000843F062F06A40F480301D
:1039F000F062F06A40F40030F062F06A40F4802037
:103A0000F062F06A40F00100F062306840F08070CF
:103A10003060FDF7CDF80446306880013FF5F5AE23
:103A2000FDF7C6F8001B02284FF00300F4D916E09A
:103A300020F001003067306F20F004003067FDF7A0
:103A4000B7F8054641F28837306F80073FF5A7AEDB
:103A5000FDF7AEF8401BB8424FF00300F4D901B0B7
:103A6000F0BDF06A20F00100F062FDF7A1F8054614
:103A7000FDF79EF8A842FBD0706B4FF6F871A26C70
:103A8000884340EAC2007063F06A40F00100F062CF
:103A9000002001B0F0BD00002DE9F04184B00446E3
:103AA00003200D4684F83000A06B03280FD14FF09F
:103AB0008050616B40F6FF7808436063606BC1F62D
:103AC000E07858B32068C0F8388001259BE0002DCD
:103AD00050D0B5F5004FEAD0B5F5804F61D1002048
:103AE0000021CDE90200206801F0DEF980015BD4FD
:103AF00002A9204601F0FCF90028DAD19DF80E0059
:103B000040074BD5616C2068090400F075FE002861
:103B1000CFD12068022100F0E3FECAE74FF48030E5
:103B20000021FEF719FB00B343F689316369C5F242
:103B3000E651A268A0FB01166168D4F810C0B3EB8F
:103B4000166F59D2A76DB7F5007F55D0B7F5807FB6
:103B50002DD14FF2800E002BC0F2FA2E42D05F0022
:103B6000B0FBF7F070453FD846E0606B40F0006076
:103B70006063AAE700200021CDE90200206801F07F
:103B800093F9800110D402A9204601F0B1F9002870
:103B90007FF48FAF9DF80E00C00716D14FF0806004
:103BA00087E74FF0006084E74FF4006081E747F655
:103BB000400E4FEA1666C0F27D1EBBB15F00B0FB3F
:103BC000F7F0704588BF334616E0616C2068090441
:103BD00000F012FE00287FF46CAF2068002100F096
:103BE0007FFE66E7704506D9730E05E0704598BF05
:103BF0000026334600E000232068CDE900C32B46B1
:103C000001F056F9002520684FF4007100F054FED1
:103C100030B121680125C1F83880616B08436063C9
:103C2000012084F83000284604B0BDE8F08100008F
:103C300080B5D0F838C0D0E9173EBCF1010F4FEA8B
:103C400093720A70C3F383624A70C3F301628A708D
:103C50004FEA1342CA704FEA13220A714B714FEABE
:103C60001E52CA80CEF303420A72CEF3C0324A72A9
:103C7000CEF380328A72CEF34032CA72CEF3003273
:103C80000A734FF000024A7337D0BCF1000F40F0C6
:103C9000888040F6FC72436E02EA8E0242EA93721A
:103CA0000A61426EC2F3C2630B75C2F302634B75C5
:103CB000C2F342538B75C2F38243CB75C2F3C23356
:103CC0000B76D1F810C00B7E0CF1010C03F007034A
:103CD00002330CFA03FCC0F848C00B7A03F00F0E55
:103CE000012303FA0EF3C3644FEA532E0EFB0CF3C9
:103CF00003654FF40073436512E00EF03F02B0F825
:103D0000663043EA02420A610A694FF4806303EBBA
:103D1000822282644FF40073C0E91332426E43651D
:103D2000C2F380334B76C2F3C6138B7602F07F0268
:103D3000CA76806EC20F0A77C0F341724A77C0F329
:103D400082628A77C0F38352CA77C0F3405281F807
:103D50002020002281F82120C0F3004381F8223086
:103D6000C0F3C03381F82330C0F3803381F82430AE
:103D7000C0F3403381F82530C0F3003381F826309A
:103D8000C0F3812381F82730C0F3012381F8283064
:103D9000C0B2400881F82900012081F82A001046AD
:103DA00080BD016840F6FF72C1F6E0728A630122AD
:103DB000416B41F08051416380F83020104680BD56
:103DC0002DE9F04196B0044690F83000032804D164
:103DD0000125284616B0BDE8F08140F6FF780D4673
:103DE000C1F6E078FCF7E4FE06462068002101F009
:103DF0005BF8800123D42068402100F05DFDD0B93C
:103E0000616C2068090400F0F7FCA0B94FF0FF30A6
:103E100010904020119060201290022013900020FA
:103E2000149001201590206810A900F06DFF206803
:103E300000F056FFF8B10146606B606301E04FF49B
:103E4000006120680125C0F83880626B114361630E
:103E500084F830504FF4007100F02EFD0028B8D0E7
:103E600021680125C1F83880606384F83050284605
:103E700016B0BDE8F0816F4607E000BFFCF798FE82
:103E8000801B4FF000410130DBD02068416B11F402
:103E9000957F416B22D10904F0D501F025F83860F7
:103EA000206801F021F87860206801F01DF8B86002
:103EB000206801F019F8F860206801F015F8386101
:103EC000206801F011F87861206801F00DF8B86100
:103ED000206801F009F8F8612037CFE7090750D4CE
:103EE000416B89074FD4416B89064ED4416BC9049D
:103EF0000CD500F0F9FF3860FCF75AFE801B01304A
:103F000045D020680437416BC904F2D440F63A71B9
:103F1000C1F600018163DDE9001CCEB2DDE90237A4
:103F2000B2092A70C6F340126FF0FF066A7006EA03
:103F3000112242EA116169809CFA8CF169602B724E
:103F4000190A6972C3F30351A97206EA1341FAB25E
:103F50001144A981C7F38521A973C7F30121E9732E
:103F60001109297407F00F0169749DF81310A974E1
:103F700000254FF4007100F09FFC00287FF470AF23
:103F800027E708215DE702215BE7202159E74FF091
:103F9000004156E700000000B0B586B068B30446A3
:103FA00090F8300020B900202076204600F084F9F7
:103FB000042084F83000204600F052F8E8B901A946
:103FC0002046FFF7FDFEC0B99DF814109DF815209E
:103FD000A06B012805D11143C9B211B14FF4007093
:103FE00005E0012802D14FF4807000E00020A065B8
:103FF0002046E168FFF750FD10B1012006B0B0BDCA
:10400000FCF7D6FD054607E0616B08436063FCF7EB
:10401000CFFD401B013017D0616C2068090400F00F
:10402000DBFD0028F0D12068002100F03DFF00F406
:10403000F050B0F5006FEAD100206063E06201212A
:1040400084F8301006B0B0BD4FF00040606301202E
:1040500084F83000032006B0B0BD0000000000006E
:10406000F0B58FB004464FF4803000210027FEF7F2
:1040700073F8A0B348F659310546000AC0F24F1153
:10408000A0FB01012068002200230E0900210097F7
:10409000019600F00DFF206800F01EFF43F2005073
:1040A000C0F20C00854202D37000B5FBF0F542F27D
:1040B0001010C0F20100B0FBF5F00130FCF760FC1D
:1040C00000200490206800F01FFC88B1012184F8D2
:1040D0003010626B1043606308460FB0F0BD0121E1
:1040E00084F830104FF00060606308460FB0F0BDF8
:1040F000206800F041FCB0F1004F0AD10020E063DD
:10410000206800F001FC0028E0D1E06B012802D01B
:1041100009E00120E0632068002100F06DFB10B190
:104120004FF08050D2E704984FF6FE71884220D8B5
:1041300000254FF6FF76CCF2101500BF2068002155
:1041400000F05AFB0028C1D12068294600F068FB26
:10415000A8BB2068002100F0A7FE0499002801F107
:1041600001010491049901D4B142E7D3C0F38070F6
:1041700000E0002004994FF6FF72914202D34FF005
:104180008070A3E7A0630020ADF80E00FCF710FDDF
:104190000546206800F084FEA0B1A06B032814D16E
:1041A0002068042100F080FE000D206404A9204650
:1041B000FFF73EFD002859D04FF0805086E74FF0C2
:1041C000805083E74FF0806080E7206800F040FC7B
:1041D00000287FF47BAF2068002100F065FEE066D8
:1041E0002068042100F060FE20672068082100F0AC
:1041F0005BFE606720680C2100F056FEA16BA06793
:104200000329CDD00DF10E0641F2873720683146E3
:1042100000F0F6FC00287FF459AFFCF7C9FC401B06
:10422000B84244D8BDF80E100029EFD0A06B032887
:10423000B6D061642068090400F062FC00287FF4B5
:1042400045AF2068002100F02FFEE06520680421C2
:1042500000F02AFE20662068082100F025FE606636
:1042600020680C2100F020FEA06699E7616C2068B0
:10427000090400F0D9FB00287FF428AF20684FF430
:10428000007100F019FB70B1216840F6FF72C1F6B1
:10429000E0728A63616B08430121606384F8301027
:1042A00008460FB0F0BD002108460FB0F0BD4FF03A
:1042B00000400BE7000000002DE9F043B7B00446D2
:1042C00002A8C0210025CDE93555CDE933553295F9
:1042D000FCF705F847F200012068C5F2002188428A
:1042E00002D037B0BDE8F08303954FF480300290E0
:1042F000052104911E2105914FF00208CDF8188088
:10430000802107910122CDE908212021CDE90A155C
:10431000169002A8FEF780F908B1FCF715FB44F2ED
:10432000E04040F60004C5F60200C5F6020432ADD6
:104330004FF0000950F80C1C032641F4803140F87E
:104340000C1C50F80C1C0C2701F4803101910199D0
:10435000016841F004010160016801F0040101916C
:104360000199016841F0080101600068294600F0E8
:104370000800019001984FF4F850CDE9320820462A
:10438000CDF8D09035963697FCF70EFB32A9042075
:1043900081E8010304F580602946CDE93567FCF723
:1043A00003FB37B0BDE8F083411E0020B0EB116F76
:1043B00001D0012070474EF21002F023CEF200022D
:1043C00051604EF62351CEF200010B700721906030
:1043D0001160704700000000FEE7000000000000D0
:1043E0002DE9F04387B044F2E0400026C5F6020014
:1043F000069641F2000400220168C5F6020441F06D
:10440000100101600168082501F010010191019976
:10441000016841F004010160016801F004010191AB
:104420000199016841F080010160016801F080019B
:1044300001910199016841F001010160016801F0F9
:10444000010101910199016841F0080101600068D2
:10445000082100F00800019001982046FCF798FB25
:104460004FF42051012220464FF420584FF001090B
:10447000FCF78EFBCDE9025902AD20462946CDE975
:104480000466FCF791FA4FF400502946CDE9020684
:10449000A4F5006002270497FCF786FA4FF48060C9
:1044A0002946CDE902072046CDE90466CDF81890EB
:1044B000FCF77AFACDE902890320059020462946C7
:1044C0000496FCF771FA4FF4A0402946CDE90207A3
:1044D000CDE90467052006902046FCF765FA07B091
:1044E000BDE8F0830000000080B542F20C2047F2E6
:1044F0000001C2F20040C5F200214FF48042016089
:104500000021C0E90111C0E9032105214161FFF744
:1045100043FD002808BF80BDBDE88040FCF714BA09
:1045200080B541F6242040F21001C2F20040C2F2F0
:104530000041002201F0F0FA08B1FCF705FA41F65B
:10454000242040F22C01C2F20040C2F2004101F0EE
:104550005BFD08B1FCF7F8F941F6242040F2C801F0
:10456000C2F20040C2F2004100F0F6FF08B1FCF7D1
:10457000EBF941F62420C2F2004001F071FD08B1D0
:10458000FCF7E2F9BDE88040FDF71ABC000000002E
:10459000FEE700000000000070470000000000007F
:1045A00041F60050C2F20040FCF77ABD0000000066
:1045B0007047000000000000F0B581B044F22C47C5
:1045C000C5F6020757F8042C02F00302032A02D1B1
:1045D000012001B0F0BD054657F82C0C0C4620F028
:1045E000806047F82C0CFCF7E3FA064657F82C0CD1
:1045F000000105D5FCF7DCFA801B0228F6D964E03F
:1046000057F8040CEE6895E80E0020F47C3040EA80
:104610000130A2F101014FF47E4247F8040C02EB95
:1046200043224FF0FE436FF35F2192B202EB010091
:104630004FF4FE012A6901EB064101F4FE0103EB90
:104640000262084402F0FE410844F8603868696973
:1046500020F0C00040EA010038603868A96920F005
:10466000200040EA0100386038684FF6F87120F009
:10467000100038603869EA6920EA010040EAC200A7
:104680003861386840F0100038602CB1012C38686F
:1046900006D140F4801005E0386840F4002001E0C5
:1046A00040F40010386057F82C0C40F0806047F858
:1046B0002C0CFCF77DFA044657F82C0C000107D4AB
:1046C000FCF776FA001B0328F6D3032001B0F0BDF7
:1046D000002001B0F0BD0000F0B581B044F22C47DD
:1046E000C5F6020757F8042C02F00302032A02D190
:1046F000012001B0F0BD054657F82C0C0C4620F007
:10470000805047F82C0CFCF753FA064657F82C0C4F
:10471000800005D5FCF74CFA801B0228F6D964E02E
:1047200057F8040CEE6895E80E0020F07C7040EA23
:104730000150A2F101014FF47E4247F8040C02EB54
:1047400043224FF0FE436FF35F2192B202EB010070
:104750004FF4FE012A6901EB064101F4FE0103EB6F
:104760000262084402F0FE410844786138686969D1
:1047700020F4406040EA010038603868A96920F4FC
:10478000007040EA0100386038684FF6F87120F494
:1047900080703860B869EA6920EA010040EAC20026
:1047A000B861386840F4807038602CB1012C3868EA
:1047B00006D140F4000005E0386840F4800001E0D4
:1047C00040F08070386057F82C0C40F0805047F86B
:1047D0002C0CFCF7EDF9044657F82C0C800007D49C
:1047E000FCF7E6F9001B0328F6D3032001B0F0BD67
:1047F000002001B0F0BD000081604EF2C002C1682F
:10480000CFF6FE7201EA020341F2371C372141F272
:10481000883243EA0C03C36000F08EBA0000000047
:1048200081604EF2C002C168CFF6FE72114041F2C3
:1048300029121143C16040F2080144F6D352C2F27A
:104840000041C1F262026FF003030968A1FB02128A
:10485000510A41F2883201FB123100BF043126D0E7
:10486000426B12F0450F02D012F4005214D0426B8A
:1048700012F0450F02D012F400520DD0426B12F02C
:10488000450F02D012F4005206D0426B12F0450FD1
:10489000E4D012F40052E1D1416B042211F0040182
:1048A00004BFC522C0F220028263084670474FF061
:1048B000004108467047000081604EF2C002C168A6
:1048C000CFF6FE7201EA020341F2101C102141F200
:1048D000883243EA0C03C36000F02EBA00000000E7
:1048E00081604EF2C002C168CFF6FE7201EA020397
:1048F00041F2061C062141F2883243EA0C03C360F0
:1049000000F01ABA00000000002181604EF2C002DF
:10491000C168CFF6FE726FF00303114044F6D35224
:1049200001F58051C16040F20801C1F26202C2F299
:1049300000410968A1FB0212510A41F2883201FBD1
:104940001231043112D0426B120609D4426B1206A6
:104950005CBF426B5FEA026202D4426B1206F0D582
:10496000C521C0F220018163002070474FF0004054
:1049700070470000000000004FF4D57181604EF2D6
:10498000C002C168CFF6FE726FF00303114041F21E
:1049900008121143C16040F2080144F6D352C2F23A
:1049A0000041C1F262020968A1FB0212510A41F200
:1049B000883201FB123100BF04312DD0426B12F05E
:1049C000450F02D012F4005214D0426B12F0450F82
:1049D00002D012F400520DD0426B12F0450F02D0FB
:1049E00012F4005206D0426B12F0450FE4D012F4DC
:1049F0000052E1D1416B49070AD4416BC9070FD17D
:104A0000416B490601D5402181630021084670476A
:104A100004218163084670474FF000410846704703
:104A2000012181630846704781604EF2C002C1686F
:104A3000CFF6FE7201EA020341F2071C072141F2A0
:104A4000883243EA0C03C36000F076B9000000002E
:104A5000002181604EF2C002C168CFF6FE726FF095
:104A60000303114041F202321143C16040F20801D8
:104A700044F6D352C2F20041C1F262020968A1FBBE
:104A80000212510A41F2883201FB123104312CD05A
:104A9000426B12F0450F02D012F4005214D0426B58
:104AA00012F0450F02D012F400520DD0426B12F0FA
:104AB000450F02D012F4005206D0426B12F0450F9F
:104AC000E4D012F40052E1D1416B490709D4416BA3
:104AD000C9070ED1C521C0F220018163002108461B
:104AE000704704218163084670474FF00041084633
:104AF00070470121816308467047000000000000F4
:104B000081604EF2C002C168CFF6FE72114041F2E0
:104B100009321143C16040F2080144F6D352C2F297
:104B20000041C1F262026FF003030968A1FB0212A7
:104B3000510A41F2883201FB123100BF04312CD0FE
:104B4000426B12F0450F02D012F4005214D0426BA7
:104B500012F0450F02D012F400520DD0426B12F049
:104B6000450F02D012F4005206D0426B12F0450FEE
:104B7000E4D012F40052E1D1416B490709D4416BF2
:104B8000C9070ED1C521C0F220018163002108466A
:104B9000704704218163084670474FF00041084682
:104BA0007047012181630846704700000000000043
:104BB000002181604EF2C002C168CFF6FE7241F260
:104BC000331C01EA0203332141F2883243EA0C0329
:104BD000C36000F0B1B8000081604EF2C002C1684D
:104BE000CFF6FE7201EA020341F20D1C0D2141F2E3
:104BF000883243EA0C03C36000F09EB80000000056
:104C0000002282604EF2C003C268CFF6FE7341F20A
:104C1000883C1A4041F203131A43C26040F2080272
:104C200044F6D353C2F20042C1F262031268A2FBFF
:104C300003235A0A6FF0030302FB1C3204323BD0F9
:104C4000436B13F0450F02D013F4005314D0436BA1
:104C500013F0450F02D013F400530DD0436B13F043
:104C6000450F02D013F4005306D0436B13F0450FE9
:104C7000E4D013F40053E1D1426B520718D4426BD5
:104C8000D2071DD10269D2B2032A1DD1C522C0F2BA
:104C900020028263406910F4604F18D041041BD495
:104CA0004FF48051000458BF4FF4803108467047DC
:104CB00004218163084670474FF000410846704761
:104CC0000121816308467047012108467047000CA6
:104CD00008800021084670474FF40051084670478D
:104CE000002181604EF2C002C168CFF6FE7241F22F
:104CF0000D1C01EA02030D2141F2883243EA0C0344
:104D0000C36000F019B8000080B50246D1E900E3A5
:104D1000D1E902C0C2F824E040EA0C0093620B69BA
:104D2000496918430143D06A20F0FF03002019436A
:104D3000D16280BD0000000040F20803C2F20043CF
:104D4000D3F800C044F6D353C1F26203ACFB033C7A
:104D50004FEA5C2340F2450C53430246C0F2200C5C
:104D6000002B5FD0506B10EA0C0F02D010F40050F3
:104D70001BD0012B56D0506B10EA0C0F02D010F450
:104D8000005012D0022B4DD0506B10EA0C0F02D005
:104D900010F4005009D0043B581C43D0506B10EA6B
:104DA0000C0FDDD010F40050DAD1506B40073CD42A
:104DB000506BC0073CD10CF1800090631069C0B209
:104DC000884238D14EF208015069CFF6FF510842AF
:104DD00033D0002833D4410034D4810034D4C1000E
:104DE00034D4010135D4410136D4C10137D4010294
:104DF00038D4410239D481023AD4C1023BD44103B0
:104E00003CD481033DD4C1033ED401043FD44104CA
:104E100040D4810441D400074FF4000058BF4FF440
:104E2000803070474FF00040704704209063704717
:104E300001209063704701207047002070474FF0B9
:104E40000070704740207047802070474FF480709A
:104E500070474FF4007070474FF4806070474FF414
:104E6000006070474FF4805070474FF40050704717
:104E70004FF4804070474FF4004070474FF40030CB
:104E800070474FF4802070474FF4002070474FF474
:104E9000801070474FF4001070474FF48000704747
:104EA000006800F003007047084440697047000044
:104EB0001143009A1943019B0A4301461A4342F6E3
:104EC00000434068CFF6C073034000201A434A6095
:104ED000704700000000000001460268002042F018
:104EE00003020A6070470000D0F88000704700009D
:104EF0002DE9F04786B00C460546FBF759FE0646FD
:104F000028680821FFF7D8FC10B106B0BDE8F0878B
:104F1000696C28680904FFF76FFC0028F5D14FF091
:104F2000FF30009008200190302002900220039072
:104F3000002004900120059028686946FFF7E4FEF0
:104F40002868FFF735FE0028DFD1002740F22A5AF3
:104F50004FF000084FF0000907E000BFFBF728FE04
:104F6000801B01304FF00040CFD02968486B10EA19
:104F70000A0F486B0DD100F400203843EED10846EB
:104F8000FFF7B2FF80462868FFF7AEFF8146012792
:104F9000E4E7000714D4486B800713D4486B8006FD
:104FA00012D440F63A70C1F60000886399FA89F08D
:104FB00098FA88F1C4E90001002006B0BDE8F08746
:104FC000082002E0022000E02020886306B0BDE84F
:104FD000F0870000000000007047000000000000A3
:104FE000FBF7EEBD0000000070B59CB044F618045D
:104FF00040F22C4509A84C21C5F60204C5F600056F
:10500000FBF76DF902200026CDE90766CDE90566BC
:10501000CDE90366CDE90166FCF7AEFE009628688F
:1050200020F001002860286800F00100009020684E
:1050300040F440402060206800F440400090009818
:10504000206880045CBF20685FEA804005D4206847
:10505000800402D420688004F2D54FF6DC40CFF6FD
:10506000FF70215841F002012150205800F0020049
:105070000090009800200090206840F4404020609C
:10508000206800F440400090286840F0010028604B
:10509000286800F001000090009800BF206880049C
:1050A0005CBF20685FEA804005D42068800402D499
:1050B00020688004F2D5212009904FF480300A90B6
:1050C00001200F9002200521CDE9120014916021EA
:1050D000CDE91510CDE9170041F2000409A8082612
:1050E000199600251A95C5F602041B95FEF734FAA9
:1050F00088B1082101222046FBF74AFD40F2F31057
:10510000FBF73EFC082100222046FBF741FD40F260
:10511000F310FBF735FC02A93F200190032061C189
:1051200001A80121CDE90555CDE90755FEF708F89D
:1051300088B1082101222046FBF72AFD40F2F31036
:10514000FBF71EFC082100222046FBF721FD40F260
:10515000F310FBF715FC1CB070BD00000000000050
:105160004EF6885C4EF67F50CEF2000CCEF6F6205E
:10517000DCF8001041F47001CCF8001044F200415A
:10518000C5F602010A6842F001020A6000220A61C3
:105190000B68184008608A61CA610A628A62CA6242
:1051A0000A634A638A63CA630A644A64086820F42B
:1051B0008020086041F200000A66C5F600400068E1
:1051C000B2EB507F05D148F208100121C5F2001062
:1051D00001604FF000604CF8800C70470000000048
:1051E00070B5D0F8D42200EB8203D3F8C0222AB3E2
:1051F00001F00F0E8C460EEB8E0100EB810151F891
:10520000184F5CB1D0F8C8620EEBCE0506EB8506F0
:10521000766CB4FBF6F505FB16468EB10024C2F899
:105220001442D3F8C402036933B1D2F8080202F57C
:105230000471624698470024204670BD032070BD6B
:1052400000240C6000220023614600F0BDFE2046D1
:1052500070BD000000000000B0B50446D0F8D402D4
:1052600004EB8000D0F8C05295B1204600F03CFD20
:10527000D4F8D412C5F80C02D5F8040204EB81016D
:10528000D1F8C42205F50371D26890470020B0BD63
:105290000320B0BD0000000070B58121044600F07D
:1052A00063FC012120460025258700F05DFC82215A
:1052B0002046A4F8785100F057FCD4F8D402E564F5
:1052C00004EB8000D0F8C01289B1D0F8C402406865
:1052D0008047D4F8D40204F5307656F8200001F067
:1052E0008FF9D4F8D40246F82050C4F8BC520020FC
:1052F00070BD00000000000010B5D0F8D41200EB23
:105300008100D0F8C04284B1D0F8C41279B194F8C9
:105310000002FF280BD094F801228B6821469847A1
:10532000FF2084F80002002010BD032010BD0020E3
:1053300010BD00000000000040F2A8010A22C2F2E5
:105340000041028008467047F0B581B040F2640722
:105350000446C2F200478221384600F051FB06465F
:105360000121384600F04CFB05468121384600F00B
:1053700047FB002E1CBF1021B171002D1CBF402126
:10538000A98000281CBF4021818040F26400432195
:10539000C2F20040218001B0F0BD0000000000001A
:1053A000F0B581B040F264070446C2F200478221A2
:1053B000384600F025FB06460121384600F020FB68
:1053C00005468121384600F01BFB002E1CBF102132
:1053D000B171002D1CBF4FF40071A98000281CBFC3
:1053E0004FF40071818040F264004321C2F200401A
:1053F000218001B0F0BD0000F0B581B040F264073B
:105400000446C2F200478221384600F0F9FA064607
:105410000121384600F0F4FA05468121384600F0B3
:10542000EFFA002E1CBF1021B171002D1CBF4021CE
:10543000A98000281CBF4021818040F264004321E4
:10544000C2F20040218001B0F0BD00000000000069
:105450002DE9F04104464FF4077001F0D5F800281B
:105460004FD04FF407710546FAF739FFD4F8D4024C
:10547000217C4027022204EB800000294FF08101AB
:105480004FF00206C0F8C0522046C4F8BC5208BF14
:105490004FF400773B4600F09BFC0121022220469E
:1054A0003B464FF00108A4F8388000F091FC102032
:1054B000A4F84E008221032208232046A4F8788114
:1054C00000F086FCD4F8D4020027C5F8047204EB7F
:1054D0008000A4F84C80D0F8C40200688047C5F86A
:1054E0001472C5F81872D5F804223AB1207C012153
:1054F00088B14023204600F083FC00263046BDE8FA
:10550000F081D4F8D402002104EB8000C0F8C0126E
:105510000220BDE8F0814FF40073204600F070FCDB
:105520000020BDE8F081000080B5D0F8D41200EB77
:105530008101D1F8C01269B1027C4023002AD1F860
:1055400004224FF0010108BF4FF4007300F058FC33
:10555000002080BD032080BD39B1D0F8D42200EBFB
:105560008200C0F8C412002070470320704700007A
:10557000D0F8D42200EB8200D0F8C00218B1C0F8F5
:105580000412002070470320704700000000000054
:10559000D0F8D43200EB8300D0F8C00228B1C0F8B4
:1055A0000812C0F810220020704703207047000046
:1055B00070B582B00446D0F8D40200228DF80720DE
:1055C00004EB8000ADF80420D0F8C062CEB10D46E7
:1055D000097811F0600218D0202A5AD1EA88002AEE
:1055E00029D0090632D46878402A86F8000220467D
:1055F00028BF4022314686F8012200F0A5F8002697
:1056000016E00326304602B070BD68780B2840D8FB
:105610000026DFE800F0060D3E3E3E3E3E3E3E3EAA
:10562000283694F89C02032833D101A9022221E0F4
:10563000304602B070BDD0F8C4126878002200264F
:105640008B6829469847304602B070BDD0F8C41226
:1056500068788B6831469847EA8820463146072AA1
:1056600028BF072207E094F89C02032811D10DF10E
:1056700007010122204600F083F80026304602B0E0
:1056800070BD94F89C02032803D10026304602B076
:1056900070BD2046294600F04BF80326304602B084
:1056A00070BD00000000000080B5D0F8D41200EBFF
:1056B0008101D1F8C0323BB1D3F8141200294FF068
:1056C000010103D0084680BD032080BDC3F8141239
:1056D0008121D3F80822D3F81032C36200F074FCA1
:1056E0000021084680BD000080B5D0F8B82252687D
:1056F0009047002818BF032080BD00000000000074
:1057000000207047000000000020704700000000EB
:1057100080B513460A46002100F072FB002080BDD0
:1057200080B513460A46002100F04EFC002080BDE3
:1057300010B58021044600F00FFC00212046BDE892
:10574000104000F009BC000080B50323C0F894327B
:105750001346C0F858210A460021C0F85C3100F019
:105760004FFB002080BD000080B50521C0F89412D9
:1057700000210022002300F043FB002080BD000038
:1057800080B50223C0F89432134682610A46002194
:10579000C36100F019FC002080BD00000000000083
:1057A00080B50421C0F8941200210022002300F0EB
:1057B0000BFC002080BD000010B540F204640A46D6
:1057C000C2F2004402A0214600F03EF9204610BD7E
:1057D00043444320436F6E66696700000000000089
:1057E00040F2B4001222C2F200400A80704700006A
:1057F00010B540F204640A46C2F2004402A02146F9
:1058000000F022F9204610BD43444320496E7465E0
:10581000726661636500000040F2DC000422C2F29F
:1058200000400A807047000010B540F204640A4648
:10583000C2F2004402A0214600F006F9204610BD45
:1058400053544D6963726F656C656374726F6E69F2
:10585000637300000000000010B540F204640A46C3
:10586000C2F2004402A0214600F0EEF8204610BD2E
:1058700053544D3332205669727475616C20436FF6
:105880006D506F7274000000B0B54EF60000C1F6A6
:10589000F170026883689B184FF01A020A8000F0CA
:1058A000AA804FF0370C190F0CEB13724068B3F15C
:1058B000204F4FF0000E38BF01F1300240F2E001FE
:1058C000C2F200418A701A0181F803E0B2F1204F60
:1058D000C3F3036404F137054FEA032238BF04F130
:1058E000300581F805E0B2F1204F0D714FEA033227
:1058F000C3F3035404F1370538BF04F1300581F8D0
:1059000007E0B2F1204F8D714FEA0342C3F3034425
:1059100004F1370538BF04F1300581F809E0B2F130
:10592000204F0D724FEA0352C3F3033404F13705DD
:1059300038BF04F1300581F80BE0B2F1204F8D72D1
:105940004FEA0362C3F3032404F1370538BF04F1BF
:10595000300581F80DE0B2F1204F0D734FEA03726C
:10596000C3F3031403F00F0304F1370538BF04F148
:10597000300503F13704B2F1204F8D734FEA1072F6
:1059800081F80FE038BF03F130040CEB1073B0F175
:10599000204F0C7481F811E038BF02F1300381F818
:1059A00013E002018B74B2F1204FC0F3036303F1E3
:1059B00037054FEA002238BF03F1300581F815E0C2
:1059C000B2F1204F0D754FEA0032C0F3035303F1DB
:1059D000370538BF03F1300581F817E0B2F1204FE9
:1059E0008D75C0F3034000F1370338BF00F1300379
:1059F00081F819E00B7640F2E000C2F20040B0BD41
:105A000080B5B0F802C090F800E0F44516D97346AE
:105A100050FA8EF04278052A03D100BF82788A427C
:105A20000DD053FA8EF39AB2624509D290F800E095
:105A300050FA8EF04278052AF0D0F2E7002080BDBF
:105A4000002080BD0000000010B5002862D003785F
:105A5000B3B100F1020E4FF0000C00BF1EF8013C84
:105A600083B19EF8003083B19EF8013083B19EF877
:105A700002300CF1040C0EF1040E002BEED109E003
:105A800002230CE04CF0010C04E04CF0020C01E0AD
:105A90004CF0030C5FFA8CFC022303EB4C031380E5
:105AA00003220B704A7090F800E0BEF1000F08BFAF
:105AB00010BD023002224FF0000CD3B243F00104BB
:105AC00001F803E001F804C010F8013C13B3941C82
:105AD000E4B244F0010E0B5501F80EC00378002B20
