:020000040800F2
:10000000380B0024AD020008973C00088534000836
:10001000953C00089106000891510008000000007E
:10002000000000000000000000000000A74C0008D5
:100030009306000800000000993C0008A94C000845
:10004000C7020008C7020008C7020008C70200086C
:10005000C7020008C7020008C7020008C70200085C
:10006000C7020008C7020008C7020008C70200084C
:10007000C7020008C7020008C7020008C70200083C
:10008000C7020008C7020008C7020008C70200082C
:10009000C7020008C7020008C7020008C70200081C
:1000A000C7020008C7020008C7020008C70200080C
:1000B000C7020008C7020008C7020008C7020008FC
:1000C000C7020008C7020008C7020008C7020008EC
:1000D000C7020008C7020008C7020008C7020008DC
:1000E000C7020008C702000800000000C70200089D
:1000F000C7020008C7020008C7020008C7020008BC
:10010000C7020008C7020008C7020008C7020008AB
:10011000C7020008C7020008C7020008C70200089B
:10012000C7020008C7020008C7020008C70200088B
:10013000C7020008C7020008C7020008C70200087B
:1001400000000000000000000000000000000000AF
:10015000C7020008C7020008C7020008C70200085B
:10016000C7020008C7020008C7020008C70200084B
:10017000C7020008C7020008C7020008C70200083B
:10018000C7020008C7020008C7020008C70200082B
:10019000C7020008C7020008C7020008C70200081B
:1001A000C7020008C7020008C7020008C70200080B
:1001B000C7020008C7020008C7020008C7020008FB
:1001C000C7020008C7020008C7020008C7020008EB
:1001D000C7020008C7020008C7020008C7020008DB
:1001E000C7020008C7020008C7020008C7020008CB
:1001F000C7020008C7020008C7020008C7020008BB
:10020000C7020008C7020008C7020008C7020008AA
:10021000C7020008C7020008C7020008C70200089A
:10022000C7020008C7020008C7020008000000005B
:10023000C7020008C702000800000000C70200084B
:10024000C7020008C7020008C7020008C70200086A
:10025000C7020008C7020008C7020008C70200085A
:10026000C7020008C7020008C7020008C70200084A
:10027000C7020008C7020008C7020008000000000B
:10028000C7020008C7020008C702000800000000FB
:1002900000000000C7020008DFF80CD000F05CF896
:1002A0000048004729530008380B002406488047BF
:1002B00006480047FEE7FEE7FEE7FEE7FEE7FEE74B
:1002C000FEE7FEE7FEE7FEE7994D00089902000809
:1002D000D2B201E000F8012B491EFBD27047002288
:1002E000F6E710B513460A4604461946FFF7F0FF35
:1002F000204610BD2DE9F05F0546002092469B4642
:1003000088460646814640241BE02846414647462B
:10031000224600F042F853465A46C01A914110D383
:1003200011461846224600F029F82D1A67EB0108FD
:100330004F4622460120002100F020F817EB00096B
:100340004E41201EA4F10104DFDC484631462A4616
:100350004346BDE8F09F0000064C074D06E0E0680C
:1003600040F0010394E8070098471034AC42F6D3FC
:10037000FFF796FFE4C8000804C90008202A04DB40
:10038000203A00FA02F1002070479140C2F12003A8
:1003900020FA03F3194390407047202A04DB203AE7
:1003A00021FA02F00021704721FA02F3D040C2F195
:1003B000200291400843194670470000B0B504463A
:1003C0000068364940F48070884214BF354834488C
:1003D000006810F4403F0ED002F040F80546606817
:1003E000B0F5803F05D0B0F5403F20D0B0F5003FDC
:1003F0001ED1000C18E04FF40020002101F022F97A
:1004000005466068A0F580214FEAB1410A290FD85E
:10041000DFE801F00606060606063A3C3E404200CA
:100420006FF0010101EA5040B5FBF0F500E0AD08C6
:1004300000F05AFE41F20301884209D820681D4AA3
:100440009542816834BF21F4807141F4807119E0D4
:100450001548854204D82068816821F4407111E074
:100460001248854203D820680122816805E020688F
:100470000F4A9542816803D8022262F3092101E004
:1004800041F440718160B0BD2D09D1E76D09CFE71E
:10049000AD09CDE7ED09CBE72D0AC9E70021024000
:1004A000082302400863025821BCBE0041787D0148
:1004B00081F0FA02012D310170B5044600688268AE
:1004C0008368DB0843EA9202D20701D1002070BDA5
:1004D000C26892010CD5627D012A09D1227D012AD0
:1004E00006D122490268520607D40139FAD133E015
:1004F000022905D10221082610E0402101600121D6
:100500008268520707D58268920704D482685D4BDF
:100510001A4010328260042601290DD08268120729
:1005200007D58268920704D48268564B1A4020325D
:100530008260032908BF0C2600F0DCFD0546206818
:1005400080683042C2D000F0D5FD401B0628F6D3AB
:10055000206880683042F2D0606D40F01000606525
:10056000A06D40F00100A065012070BD01DC0C0011
:10057000B0B50168044688688A6880074FF00000BB
:1005800027D412F0010224D0886800F00D00012861
:1005900016D188683B4A104002308860032008600A
:1005A00000F0A8FD054620688068C00712D000F062
:1005B000A1FD401B0328F6D320688068C007F2D055
:1005C000606D40F010006065A06D40F00100A06516
:1005D0000120B0BD0020B0BD2DE9F84304460068FD
:1005E0008168C9074AD1274B816803F17F02114214
:1005F0000AD0606D40F010006065A06D40F0010011
:10060000A0650120BDE8F88381689846194041F053
:10061000010181601C4800F5807700F54076814635
:1006200000F068FD054620681849B84208BF314609
:100630000246484508BF3146B842896804BF42F2C5
:100640000002C4F20202824218BF11F01F0115D14C
:1006500046460168C90711D18168C90704D181687C
:10066000314041F00101816000F044FD411B2068F0
:100670000329EED30168C907EBD1BAE70020BDE832
:10068000F88300BFC0FFFF7F0020024000630258D4
:10069000FEE770474FF4FA7003F090F9FAE70000B4
:1006A0007CB504460020019094F85000012801D147
:1006B00002207CBD012084F8500016460D462046DD
:1006C000FFF756FF616D10B141F0100127E041F2D4
:1006D0000212914305F48032134D0231616506F038
:1006E00080410A4421688B682B401A4402F1004281
:1006F0008A600E4A8B68B3F1FF3F0CDC019B01332B
:100700000193019B9342F5D3606D40F0100020F0FF
:100710000201012003E0616D012262F30101002268
:1007200084F8502061657CBDC0FFFE3F00F8C32502
:10073000F8B504460020009094F85000012801D13B
:100740000220F8BD20680D46012184F8501082680F
:10075000520700F13E81D5E90023160392FAA2F672
:10076000B6FA86F608BF960E06F01F06B140C669B7
:100770003143C1611F2603F01F01C3F301238E40E3
:1007800000EB83031F6BC2F3846227EA060602FABA
:1007900001F13143196381688268D20842EA91010C
:1007A000C90770D12968AA6803F01EF9A14800683A
:1007B00000F07040B0F1805F06D120680E22C16861
:1007C00002EA510269690AE020686969C368C2687F
:1007D0005208DB064CBF02F0080202F00E022B6941
:1007E000042B27D12A68036E03F0F8439106B3EB7C
:1007F000826F03D1026E22F000420266426E02F066
:10080000F8428A4203D1426E22F000424266826E72
:1008100002F0F8428A4203D1826E22F000428266E0
:10082000C26E02F0F8428A422DD1C16E21F0004121
:10083000C16628E091402A6802F0F842114300F1B5
:10084000600252F8236006F00046314342F823105C
:10085000296952F821306E7E23F00043012E08BF33
:1008600003F1004342F82130297E2A6902F01F0279
:100870000139B1FA81F14909C9029140026922F4B2
:10088000F042114301618168C90765D1EE68684A89
:10089000296806F0180701EA0203FA40D0F8C07090
:1008A0001A409F433A43C0F8C020634A964250D151
:1008B00091FAA1F2002BB2FA82F2164608BF8E0E10
:1008C000013606F01E078E0E092F0CD8C3B1511C3D
:1008D0004FF0806606EB826201F01F030121994010
:1008E00002F0F84217E0E3B1511C4FF0806606EBCE
:1008F000826201F01F030121994002F0F8421BE0DF
:1009000001F0F841721C01F1806102F01F03012225
:100910009A4001F0F841114303EB430241EA0251CE
:1009200013E001F0F841721C01F1806102F01F0335
:1009300001229A4001F0F841114303EB43023F4B7F
:1009400003EB0252114341F00071AA6803F04CF826
:100950002968B1F1FF3F01DD00203FE0B548236881
:10096000374AB54F00F5807500F54076AB42354605
:1009700018BF02F54075834208BF354643F48076C0
:10098000AD68BE4211BF90688668D0F80801304358
:10099000C0071ED12B4805F0E076814208BF15F450
:1009A00000001FD02848814208BF15F0807033D066
:1009B0000020934212D1254B994208BF15F48001C3
:1009C0000CD1D2F8080320F0E070304340F48000EE
:1009D0002BE0606D40F0200060650120002184F86C
:1009E0005010F8BD9342B7D1D2F80803904920F0D7
:1009F000E070304340F40000C2F808038B48006800
:100A0000B0FBF1F0022101EB4000009000980028BB
:100A1000A2D000980138F8E793429DD1D2F808039C
:100A200020F0E070304340F08070C2F8080393E794
:100A3000FFFF0F000010005C0000FF47000020FED9
:100A400000600258000084CB000052C70000B8CFFD
:100A50000068006C70470000F8B504460020009064
:100A6000A4B3606D30B9204600F0F2F8002084F89D
:100A70005000A06520688168890003D581686A4AB2
:100A8000114081608168C90013D46749826801F10F
:100A900080511140664A01F18051816063490968C3
:100AA000B1FBF2F101310091009911B100990139C6
:100AB000F9E78168C9000BD4616D012541F010018F
:100AC0006165A16D41F00101A16502E00125A9E088
:100AD00000258168C1F38001626D02F0100289185F
:100AE000616D03D041F0100001259AE021F481717D
:100AF000023161658168C90721D140F480724E4B93
:100B0000F2499A4204D18A68D1F808311A4301E0C7
:100B10004A4A1268D20712D101F5807201F540737A
:100B2000464E90421A4618BF06F53E72884208BFEC
:100B30001A469068616820F47C100843906000F0C9
:100B4000D3FA637D41F20406216BA268B0424FEAFA
:100B5000433308D3102A06D1207F194341EA0041CC
:100B600041F01C0106E043EA010040EA0201207F57
:100B700041EA0041012804D1206A314A02EB404099
:100B80000143606A20B100F478700843A16A014310
:100B900020682C4BC2681A401143C160816882688A
:100BA000D20842EA9101C9072DD1C16844F203027B
:100BB000E36A9143227D43EA82321143C1600169B5
:100BC00094F83820012A11D104F13C0C1E4EA76C78
:100BD0009CE80C1006EB02421C4E314019431143B5
:100BE00041EA0C01394341F0010101E021F001012A
:100BF0000161616B026922F070421143016120467C
:100C0000FFF7DCFB2068016BE26821F00F01012A8D
:100C100002D1A269013A114301630121606D61F3C0
:100C2000010060652846F8BDC0FFFF5F0800002492
:100C3000400D0300002002400021024008600258DD
:100C40000000FEFF03C0F0FF0000FFFF1EF800FCE5
:100C5000B0B5B2B0044602A8C021FFF740FB1E4D5C
:100C6000216805F5D950814234D1002003901390BA
:100C70004FF4002102914FF4007012904FF4803134
:100C80002B914FF48060119002201090CDE90E005E
:100C90003C200D900A200C9002A800F01BFE08B129
:100CA000FFF7F8FC28684FF0806140F08070286002
:100CB000286800F0807001900198286840F00400D6
:100CC0002860286800F00400019001984FF08060CF
:100CD00002F0F0F932B0B0BDE04402582DE9F84F0F
:100CE00004467A4E0D460068794906F5807806F587
:100CF00040732269404508BF1946B04208BF1946F3
:100D00008B6803F01F09082A02D1B34608270EE0BA
:100D1000B9F1090F61D8012240F2212302FA09F248
:100D20001A425AD0C068C0075BD1B346042700F00E
:100D3000E1F982466E1C20680168394216D1002E06
:100D4000F9D000F0D7F91DB1A0EB0A00A842F2D902
:100D5000206800683842EED1002084F85000606DB1
:100D600040F0040060650320BDE8F88F616D41F438
:100D700000716165C16811F4406F0FD1617D69B97F
:100D8000016809070AD5616D21F480716165616DA3
:100D9000C90403D4616D41F001016165404518BF8C
:100DA0008346834518BFDB46B9F1000F08BF834671
:100DB000B9F1050F08BF8346B9F1090F08BF834693
:100DC000DBF80C10082F01D1082102E0490401D4FE
:100DD0000C2101600020BDE8F88F886810F4404FB6
:100DE000A3D0606D40F0200060650120BDE8F88F61
:100DF000F8B5364D04460068354A05F5807605F5A8
:100E00004071B04208BF0A46A84208BF0A46976828
:100E10008068400703D494F85000012801D10220D3
:100E2000F8BD012084F850002046FFF7D5FB18B12B
:100E3000002184F85010F8BD2068626D40F60173FF
:100E400007F01F019A43B04202F58072626518BF35
:100E5000054609B1854203D1626D22F480126265B4
:100E6000626D0023D20444BFA36D23F00603A36583
:100E70000022854284F850204FF01C02026008D006
:100E8000092915D8012202FA01F140F2212211426A
:100E90000ED0C168890104D5616D012262F30D3164
:100EA000616581680B4A1140043181600020F8BD02
:100EB000606D40F480106065E8688001F6D5606D73
:100EC000012161F30D306065F0E700BF00200240B2
:100ED00000630258C0FFFF7F10B5044690F8500031
:100EE000012801D1022010BD012084F85000032107
:100EF0002046FFF7E1FA50B92046FFF739FB30B939
:100F0000606D41F2011188430130606500200021CD
:100F100084F8501010BD0000B0B5044600F0EAF8A7
:100F200005469F48611C007818BF044400F0E2F8B1
:100F3000401BA042FAD3B0BD2DE9FC4F5E4A0A2403
:100F40004FF0000A4FF0000990425C4A08BF0924A4
:100F500002444FEAB223092B38BF4FEAB2240022E1
:100F600000940E6836FA02F700F0A380012303FA1A
:100F700002F716EA070B00F09680D1F804E003238D
:100F80000EF0030CACF10105012D13D803FA09F59D
:100F90008468CB68AC4303FA09F36FEA050823437E
:100FA0008360CEF300134468BC439340570023434F
:100FB00043600BE003FA09F3BCF1030F4F466FEAFD
:100FC000030803D14F464FF0030C22E0C3688C683E
:100FD000BCF1020F03EA080304FA07F443EA04032E
:100FE000C36016D10AF01C030F2404FA03FC6FF04F
:100FF000030404EA520505442C6A24EA0C0C0C692B
:1010000004FA03F343EA0C032B62D1F804E00EF078
:10101000030C04681EF4403F0CFA07F304EA0804CA
:1010200043EA040303603ED08D4C264E236843F010
:101030000203236023680F2403F002030193019D40
:101040000AF00C0322F003059C40AF5927EA040480
:10105000009F07FA03F32343AB514FF0B0463368C8
:101060004D6843EA0B04EF0258BF23EA0B043460D7
:10107000134EAF02336843EA0B0458BF23EA0B0454
:101080003460AF03D6F8803043EA0B0458BF23EA3C
:101090000B04C6F88040ED03F36F43EA0B0458BF1E
:1010A00023EA0B04F4670AF1040A09F10209013288
:1010B00057E7BDE8FC8F00BF002402580000FEA7E0
:1010C00004000058080400580069084018BF0120B7
:1010D0007047002A08BF090481617047044800680E
:1010E0006FF31F30704700BF01480068000C704765
:1010F0000010005C05480068704700BF284803499D
:1011000000780A6810440860704700BF3007002468
:1011100080B5032000F0C2F801F0D0F90E49814BF0
:101120000A68C2F30322096801F00F019A5C595C56
:1011300002F01F02D0401B4A01F01F011060C8409E
:1011400006490860002000F00BF808B1012080BDBE
:1011500000F06AF8002080BD184402580C000024FA
:1011600070B50F4E04463078B0B14FF47A71B1FBD0
:10117000F0F00C490968B1FBF0F001F0B5FF012572
:101180000F2C0AD848B94FF0FF3021460022002525
:1011900000F068F8746000E00125284670BD00BFCB
:1011A00000000024080000240278114943780B60F5
:1011B000D2B143684B60037B42EA0372C37A42EACE
:1011C0000362837A42EAC342437B42EA8342837BDF
:1011D00042EA4342C37B42EA0342437A007A42EA4C
:1011E000032242EA400001E0002048608860704726
:1011F00098ED00E00B48BFF35F8F016821F4803168
:101200000160002101677047064940F0010008674E
:10121000086840F480300860BFF34F8FBFF36F8FD2
:10122000704700BF24ED00E0E0B50D48016841F0D3
:1012300002010160016801F0020101910199016858
:1012400041F400410160006800F400400090009803
:1012500001F03AFF0220BDE88C4001F03BBF00BF27
:10126000F444025870B5134B4FF0FF351B68C3F3BD
:101270000223DC1E83F0070338BF0024042B28BFA1
:10128000042305FA04F605FA03F3B2439943A14097
:101290001143BDE8704003F07DBF00BF05494FF624
:1012A000FF030A681A4060F30A22034810430860EB
:1012B000704700BF0CED00E00000FA05B0B5104D1E
:1012C0002A682968520705D401F00701081A18BFD7
:1012D0000120B0BD21F0070108432860FFF70AFF95
:1012E000044655F8080C800407D4FFF703FF001BE1
:1012F000B0F57A7FF5D90120B0BD0020B0BD00BFA8
:101300000C48025880B501F0A9F80549054A09685A
:10131000C1F30211515C01F01F01C84080BD00BF44
:1013200020440258045A0008B0B53C498B6A8A6AC6
:10133000CC6A4D6B04F00104C5F3CC056C4300EEA0
:10134000104AB8EE400AC2F3051262B103F003037B
:10135000022B0CD0012B0DD013B90B689B060CD4BB
:101360009FED311A13E00021C0E9001153E09FED19
:101370002D1A0CE09FED2A1A09E00B682B4CC3F3E1
:10138000C10324FA03F301EE103AB8EE411A0B6BD5
:101390009FED273A6FF35F2302EE103AB8EE422A30
:1013A00000EE032A03EE102AB7EE000AB8EE433A25
:1013B0000A6BC2F3462232EE002A81EE031A21EEB6
:1013C000021A02EE102AB8EE422A32EE002A81EE0C
:1013D000022ABCEEC22A80ED002A0A6BC2F3064242
:1013E00002EE102AB8EE422A32EE002A81EE022ADC
:1013F000BCEEC22A80ED012A096BC1F3066102EE40
:10140000101AB8EE422A32EE000A81EE000ABCEE53
:10141000C00A10EE101A8160B0BD00BF004402582F
:101420000024744A20BCBE4B0024744C0090D003AE
:1014300000000039B0B53B498B6A8A6ACC6AC4F3B4
:101440000014CD6BC5F3CC056C4300EE104AB8EE2A
:10145000400AC2F30532AAB103F00303022B15D0F0
:10146000BBB90B689B0651BF9FED311A0B68C3F3E4
:10147000C103304C42BF24FA03F301EE103AB8EE38
:10148000411A08E00021C0E9001148E09FED271A49
:1014900001E09FED251A8B6B9FED273A6FF35F23D9
:1014A00002EE103AB8EE422A00EE032A03EE102AAA
:1014B000B7EE000AB8EE433A8A6BC2F3462232EE28
:1014C000002A81EE031A21EE021A02EE102AB8EE6B
:1014D000422A32EE002A81EE022ABCEEC22A80EDB8
:1014E000002A8A6BC2F3064202EE102AB8EE422AA4
:1014F00032EE002A81EE022ABCEEC22A80ED012AD9
:10150000896BC1F3066102EE101AB8EE422A32EE80
:10151000000A81EE000ABCEEC00A10EE101A8160CB
:10152000B0BD00BF004402580024744A20BCBE4B2A
:101530000024744C0090D00300000039B0B53B4942
:101540008B6A8A6ACC6AC4F300244D6CC5F3CC055F
:101550006C4300EE104AB8EE400AC2F30552AAB13D
:1015600003F00303022B15D0BBB90B689B0651BFD8
:101570009FED311A0B68C3F3C103304C42BF24FA0C
:1015800003F301EE103AB8EE411A08E00021C0E979
:10159000001148E09FED271A01E09FED251A0B6C22
:1015A0009FED273A6FF35F2302EE103AB8EE422A1E
:1015B00000EE032A03EE102AB7EE000AB8EE433A13
:1015C0000A6CC2F3462232EE002A81EE031A21EEA3
:1015D000021A02EE102AB8EE422A32EE002A81EEFA
:1015E000022ABCEEC22A80ED002A0A6CC2F306422F
:1015F00002EE102AB8EE422A32EE002A81EE022ACA
:10160000BCEEC22A80ED012A096CC1F3066102EE2C
:10161000101AB8EE422A32EE000A81EE000ABCEE41
:10162000C00A10EE101A8160B0BD00BF004402581D
:101630000024744A20BCBE4B0024744C0090D0039C
:1016400000000039F8B580F400220A4300F07F80E2
:1016500080F400720A4332D080F480620A4300F0C2
:10166000878080F400620A4338D080F480520A43B5
:1016700000F08B8080F400520A4300F0948080F4E4
:1016800080420A4337D080F400420A4342D080F4BB
:1016900080320A434ED080F48070084340F0DF80EF
:1016A0008749086D00F00702042A00F2D8808848B4
:1016B000DFE812F0770087008E00D60096008049A0
:1016C000086DC0F38212042A00F2C9808048DFE866
:1016D00012F0680078007F00C70087007849886DA5
:1016E000C0F30262042A00F2BA807948DFE802F00F
:1016F000596970B878007248816DC1F3027105298B
:1017000000F2AD80DFE801F003869198A28DFFF72B
:10171000F9FDA5E06A48016D01F04051B1F1005FAB
:1017200000F07880B1F1805F00F09680002940F0F1
:10173000968076E06248C16C0068C90340F18D80F4
:10174000000140F18C8001A8FFF774FEA1E05C4825
:10175000816D01F44031B1F5003F00F08880B1F5B2
:10176000803F00F09080002940F07980006829E0F7
:101770005349886DC0F34252042A00F270805448E5
:10178000DFE802F00F1F266E2E004D49086DC0F3F2
:101790000232042A63D84E48DFE802F003131A62CB
:1017A0002200086859E04648016DC1F3024105294D
:1017B00055D8DFE801F0032F3A414B3600F06CFEBC
:1017C0004EE0086800014AD501A8FFF733FE05E0A6
:1017D0000868800043D501A8FFF7B0FE01983FE0FC
:1017E000C86C0B6810F04052086802D113F0040373
:1017F00026D1B2F1805F02D110F4807051D1086817
:1018000010F400301CBF47F64000C0F27D10B2F16A
:10181000005F52E00068000121D501A8FFF70AFE31
:1018200023E000682749800313E00068800016D594
:1018300001A8FFF783FE18E0016849070FD500688B
:10184000C0F3C100214921FA00F009E000681E49F7
:10185000C00501EAE07003E00068800102D40020C6
:1018600004B080BD01A8FFF75FFD0298F8E7C16CE6
:101870000368026811F040510DD113F004030AD03F
:10188000C2F3C100DEE700688000E8D501A8FFF7D9
:1018900055FE0398E4E7B1F1805F04D112F4807241
:1018A00001D00948DCE7006810F400301CBF47F69F
:1018B0004000C0F27D10B1F1005F18BF0020CFE7FB
:1018C0000044025840787D0100093D000090D0039B
:1018D0000080BB002DE9F0470446C078AD4F0007FB
:1018E00022D5A06E4FEA3051032908D8DFE801F075
:1018F00002090F17F96941F40031F9610FE001267F
:1019000013E004F10800022102F0C8F904E004F138
:101910002800022102F03EFA064630B9A06E396C6A
:1019200021F440110843386400266078BA46C007A5
:1019300001D1354629E0A06D04280BD83546DFE8F3
:1019400000F0030C12181800F869354640F4003016
:10195000F8610EE00125012718E004F108000021DC
:1019600002F09CF904E004F12800002102F012FAD0
:1019700005462F4655B9A06DDAF8401000255246AD
:1019800021F007010843CAF8400037466078800715
:101990002CD5E06D4FEAB01004280CD8DFE800F039
:1019A000030E141A1A00DAF81C00514640F40030F5
:1019B000CAF81C000EE00125012618E004F1080019
:1019C000002102F06BF904E004F12800002102F08C
:1019D000E1F905462E4655B9E06DDAF840100025CC
:1019E000524621F4E0710843CAF840003E46607850
:1019F000400702D4B04657462BE0D4F8A80057461B
:101A00004FEA7050042809D8DFE800F0030C1218E0
:101A10001800F86940F40030F8610FE001254FF03C
:101A2000010816E004F10800002102F037F904E093
:101A300004F12800002102F0ADF90546A84645B999
:101A4000D4F8A800B96C0025B04621F46001084321
:101A5000B864607800072BD5D4F8AC004FEA30604A
:101A6000042809D8DFE800F0030B11171700F86904
:101A700040F40030F8610EE00125012719E004F17F
:101A80000800002102F00AF904E004F12800002116
:101A900002F080F905462F465DB9D4F8AC00DAF8BB
:101AA00048100025524621F0E0610843CAF848007A
:101AB0004746E078800725D5E06C4FEA30100328D0
:101AC0000BD8DFE800F013020D13DAF81C005146C2
:101AD00040F40030CAF81C0008E00125012612E09D
:101AE00004F10800022102F0D9F805462E4655B946
:101AF000E06CDAF83C100025524621F03001084332
:101B0000CAF83C003E466078C0062CD5206E4FEAED
:101B1000303004280CD8DFE800F0030E141A1A0045
:101B2000DAF81C00514640F40030CAF81C000EE000
:101B30000125012718E004F10800002102F0AEF8A9
:101B400004E004F12800002102F024F905462F46A4
:101B500055B9206EDAF840100025524621F4E041D4
:101B60000843CAF8400037466078800626D5606E84
:101B70004FEA304005280AD8DFE800F014030E14BD
:101B8000141404F10800012102F088F809E001258D
:101B9000012614E01044025804F12800012102F04B
:101BA000F9F805462E4655B9606EDAF84010002562
:101BB000524621F4E0210843CAF840003E466078CE
:101BC000400626D5D4F8B0004FEA307005280AD870
:101BD000DFE800F012030C12121204F108000121D8
:101BE00002F05CF807E00125012713E004F128006A
:101BF000012102F0CFF805462F465DB9D4F8B000B8
:101C0000DAF848100025524621F0E0410843CAF8AE
:101C1000480037466078000621D5206F98B1B0F1B2
:101C2000005F0AD0B0F1805F2DD1DAF81C00514678
:101C300040F40030CAF81C0005E004F1080001215E
:101C400002F02CF805462E4655B9206FDAF8401000
:101C50000025524621F040510843CAF840003E4654
:101C6000E078C00702D1B046574623E0A06C574643
:101C700003280BD8DFE800F014020E14F86940F4D2
:101C80000030F8610CE001250126E9E701254FF05D
:101C900001080FE004F10800022101F0FFFF0546F2
:101CA000A8463DB9A06CF96B0025B04621F00301B0
:101CB0000843F863A078400601D4474616E0D7F8F9
:101CC000F00340F48070C7F8F003FFF713FA0646FC
:101CD000D7F8F003C00507D4FFF70CFA801B64287F
:101CE000F6D90325032701E02F4695B12078C007D8
:101CF0004FD0E06F4FEAF000052835D8DFE800F05C
:101D00003D03373D3D3D04F10800012101F0C6FFD0
:101D100032E0DAF86010D4F8B4005546414011F4CE
:101D2000407F0BD0296E2A6E42F480322A6621F45D
:101D300040712A6E22F480322A662966B0F5807FCF
:101D400040F06982FFF7D6F9064641F28839032749
:101D5000DAF86000800700F15B82FFF7CBF9801BA7
:101D600003254845F4D9C1E70125012612E004F115
:101D70002800012102F00EF805462E4655B9E06F05
:101D8000DAF844100025524621F038010843CAF819
:101D900044003E462078800722D5A06F05280AD847
:101DA000DFE800F012030C12121204F10800012106
:101DB00001F074FF07E00125012712E004F128007B
:101DC000012101F0E7FF05462F4655B9A06FDAF86B
:101DD00044100025524621F007010843CAF8440088
:101DE00037462078400724D5D4F8940005280AD82F
:101DF000DFE800F012030C12121204F108000121B6
:101E000001F04CFF07E00125012613E004F1280052
:101E1000012101F0BFFF05462E465DB9D4F89400BC
:101E2000DAF848100025524621F007010843CAF8A5
:101E300048003E462078800626D5D4F890004FEA28
:101E4000307005280AD8DFE800F012030C121212D5
:101E500004F10800002101F021FF07E0012501271E
:101E600013E004F12800022101F094FF05462F46FB
:101E70005DB9D4F89000DAF844100025524621F0FC
:101E8000E0410843CAF8440037462078400626D58A
:101E9000D4F89C004FEAB02005280AD8DFE800F00B
:101EA00012030C12121204F10800002101F0F6FED8
:101EB00007E00125012613E004F12800022101F0CA
:101EC00069FF05462E465DB9D4F89C00DAF8481043
:101ED0000025524621F4E0510843CAF848003E4626
:101EE0002078000626D5D4F8A0004FEA70300528E7
:101EF0000AD8DFE800F012030C12121204F10800F5
:101F0000002101F0CBFE07E00125012713E004F1D9
:101F10002800022101F03EFF05462F465DB9D4F8A6
:101F2000A000DAF848100025524621F46041084329
:101F3000CAF8480037462068010717D5D4F884103E
:101F4000B1F5805F0AD104F12800022101F022FFDF
:101F5000002818BF01272068D4F88410DAF844203C
:101F6000534622F440521143CAF84410C10617D513
:101F7000D4F89810B1F5807F0AD104F1280002212D
:101F800001F008FF002818BF01272068D4F8981036
:101F9000DAF84820534622F440721143CAF8481038
:101FA000000321D5D4F8A400B0F5003F0FD0B0F560
:101FB000803F06D080BB04F10800002101F06EFED6
:101FC00004E004F12800022101F0E4FE05462E465B
:101FD0005DB9D4F8A400DAF848100025524621F47F
:101FE00040310843CAF848003E46A078400729D54A
:101FF000D4F88800B0F5401F17D0B0F5001F0ED000
:10200000B0F5801F40F0FF80DAF81C00514640F424
:102010000030CAF81C0008E001250126E5E704F1BC
:102020002800012101F0B6FE05462F465DB9D4F81F
:102030008800DAF844100025524621F44011084384
:10204000CAF844003746A078C00701D13E4621E0D7
:10205000206DB0F5803F08D0D0B9DAF81C005146A9
:1020600040F40030CAF81C0005E004F10800022129
:1020700001F014FE05462E4665B9206DDAF83C10D5
:102080000025524621F480310843CAF83C00DDE7C0
:10209000012501262168880001D4606809E004F167
:1020A0002800022101F076FE002818BF0126D4E99D
:1020B00000108A031BD5D4F880206FF0010303EBD6
:1020C0003223022B0BD34FEA322343B1012B40F0D2
:1020D0009D80DAF81C3043F40033CAF81C303DB957
:1020E000DAF8443023F440731A43CAF844203546E2
:1020F000CA0207D5626FDAF8403023F000431A4372
:10210000CAF84020CA0008D5D4F8B820DAF8003060
:1021100023F480431A43CAF800208A0207D5E26EEE
:10212000DAF8403023F080731A43CAF840204A009E
:102130000CD5DAF8002022F40042CAF80020D4F8C6
:10214000BC20DAF800301A43CAF80020B1F1FF3F92
:1021500007DC626DDAF83C3023F040531A43CAF8CA
:102160003C20090208D5D4F88C10DAF8442022F477
:1021700040021143CAF84410C10708D004F1080016
:10218000002101F08BFD002818BF0546606881071B
:1021900008D504F10800012101F080FD002818BFD6
:1021A00005466068410708D504F10800022101F0E6
:1021B00075FD002818BF05466068010708D504F1C1
:1021C0002800002101F0E6FD002818BF05466068E0
:1021D000C10608D504F12800012101F0DBFD00282B
:1021E00018BF05466068800607D504F12800022163
:1021F00001F0D0FD002818BF0125002D18BF0125D2
:102200002846BDE8F087012501271CE701256FE777
:102210005546D4F8B4002A68094900F4407322F402
:102220007C5201EA1011B3F5407F6FF31F3008BFF5
:102230000A432A60296E0843286600253DE500BF51
:10224000CFFFFF002DE9F843002800F00081814D09
:1022500004468846286800F00F0088420BD22868A0
:1022600020F00F0040EA08002860286800F00F0006
:10227000404540F0EC802068C54F41070AD52169F0
:10228000BA6902F07002914204D9BA6922F0700270
:102290001143B96101070AD56169FA6902F0700258
:1022A000914204D9FA6922F070021143F961C10622
:1022B0000AD5A169FA6902F4E062914204D9FA6987
:1022C00022F4E0621143F96181060AD5E1693A6AB4
:1022D00002F07002914204D93A6A22F0700211436E
:1022E000396210F002010AD0E268BB6903F00F0303
:1022F0009A4204D9BB6923F00F031A43BA61C2079B
:102300003AD0D4E90101BA6922F47062032841EAA3
:102310000201B96105D0022807D1396889030DD4BB
:1023200095E03968890109D491E03968012802D122
:10233000C90503D48BE0490740F189803969A94672
:1023400021F0070108433861FEF7D4FE064641F24A
:1023500088356068396901F03801B1EBC00F07D0EA
:10236000FEF7C8FE801BA842F3D90320BDE8F8831E
:1023700020684D4600F0020151B1E168BA6902F0EF
:102380000F02914204D2BA6922F00F021143B961DF
:10239000296801F00F0141450AD9296821F00F0190
:1023A00041EA08012960296801F00F0141454ED139
:1023B00041070AD52169BA6902F07002914204D23C
:1023C000BA6922F070021143B96101070AD5616947
:1023D000FA6902F07002914204D2FA6922F07002A6
:1023E0001143F961C1060AD5A169FA6902F4E062F4
:1023F000914204D2FA6922F4E0621143F961800645
:102400000AD5E069396A01F07001884204D2396A5C
:1024100021F070010843386200F050F8B969264A8B
:102420001B4BC1F30321515C01F01F01C840B96986
:10243000186001F00F01515C01F01F01C8401549FF
:10244000086005480068BDE8F843FEF789BE012032
:10245000BDE8F883002000520400002480B500F09D
:102460002DF80A49144B0A68C2F30322096801F0E7
:102470000F019A5C595C02F01F02D040044A01F03F
:102480001F011060C8400349086080BD184402580D
:10249000080000240C00002480B5FFF7DFFF054989
:1024A000054A0968C1F30211515C01F01F01C840DF
:1024B00080BD00BF1C440258045A000810B53449BE
:1024C0000869C0F3C20003280BD002282FD080BBBC
:1024D0000868800634485AD50968C1F3C101C8406C
:1024E00010BD8A6A886ACB6A4C6B03F00103C4F39F
:1024F000CC04634300EE103AB8EE400AC0F3051076
:10250000C8B102F00302022A17D0CAB90A689206BB
:1025100051BF9FED241A0A68C2F3C102224B42BF89
:1025200023FA02F201EE102AB8EE411A0AE01A4824
:1025300010BD184810BD002010BD9FED191A01E014
:102540009FED161A0A6B9FED193A6FF35F2202EEA8
:10255000102AB8EE422A00EE032AB7EE000A32EE45
:10256000000A02EE100AB8EE422A086BC0F34620B9
:1025700081EE021A013021EE000A01EE100AB8EED7
:10258000411A80EE010ABCEEC00A10EE100A10BD1E
:102590000044025800093D0040787D010024744A3F
:1025A00020BCBE4B0024744C0090D00300000039C6
:1025B000F8B5002800F03F8104460078D44EC007EB
:1025C00021D12078800740F19A80306910F03801DD
:1025D000B06A3DD0182908BF5FEA807038D03068F3
:1025E000E16800295ED020F0190008433060FEF752
:1025F00081FD05463068400743D4FEF77BFD401B54
:102600000228F7D9C8E1306900F03801B06A102912
:1026100005D018290AD100F00300022806D130683D
:102620008003CED560680028CBD104E16068002823
:1026300048D0B0F5803F07D03168B0F5A02F40F00A
:10264000988141F480203060306840F4803096E119
:10265000E0683168490702D5002800F0EC80316855
:1026600021F0190108433060FEF744FD054630684B
:10267000400706D4FEF73EFD411B03200229F6D990
:10268000F8BDFEF731FD41F20301884230D82069E0
:10269000716821F47C31402814BF41EA003041F4D4
:1026A00000302BE020F001003060FEF723FD0546EE
:1026B0003068400723D5FEF71DFD411B032002298A
:1026C000F6D9DDE7306820F480303060306820F4DF
:1026D00080203060FEF70EFD0546306880037FF5F0
:1026E00070AFFEF707FD411B03206429F5D9C7E74A
:1026F0002069716821F0FE4141EA00607060207835
:10270000C00640D5306900F03801B06A082905D00C
:1027100018291CD100F00300012818D13068C00529
:1027200003D5E069802840F08680FEF7DDFC41F2A9
:102730000301884220D8206A716821F0F8412028DE
:1027400014BF41EA806041F0804070601BE0306857
:10275000E169002900F0DE8040F080003060FEF783
:10276000C9FC05463068C005DFD4FEF7C3FC411B39
:1027700003200229F6D983E7206AF16821F07C5111
:1027800041EA0060F0602078000756D42078800687
:1027900065D42078400776D4676A002F49D0306925
:1027A00000F03800182840F0C680B16A306B012F65
:1027B00041D0A26A01F0030393423CD1E26AC1F323
:1027C0000511914237D10146226B6FF35F21013A27
:1027D000914230D1C0F34621626B013A91422AD135
:1027E000C0F30641A26B013A914224D1C0F30660C6
:1027F000E16B013988421ED1A06C716BC1F3CC0131
:10280000884216D0F06A20F00100F062FEF772FCF8
:102810000546FEF76FFCA842FBD0706B4FF6F871CF
:102820008843A16C40EAC1007063F06A40F0010087
:10283000F0620020F8BD0120F8BD706F6169A9B396
:1028400040F001007067FEF755FC0546706F800789
:102850009CD4FEF74FFC401B0228F7D99CE030685F
:10286000A169002943D040F480503060FEF742FC5B
:102870000546306880043FF58CAFFEF73BFC401BFB
:102880000228F6D988E0D6F8000440F48070C6F833
:102890000004FEF72FFC0546D6F80004C00516D448
:1028A000FEF728FC401B6428F6D975E020F00100F3
:1028B0007067FEF71FFC0546706F80077FF566AFF7
:1028C000FEF718FC411B03200229F5D9D8E6A068C1
:1028D000002863D0012806D0316F052840F0D5804C
:1028E00041F004003067306F40F00100D3E020F485
:1028F00080503060FEF7FEFB0546306880047FF5AF
:1029000048AFFEF7F7FB411B03200229F5D9B7E6D4
:102910000044025820F080003060FEF7EBFB0546D3
:102920003068C0057FF52FAFFEF7E4FB411B0320A5
:102930000229F5D9A4E6306820F080703060FEF7F7
:10294000D9FB0546022F09D1306880013ED5FEF73C
:10295000D1FB411B03200229F6D991E630688001A2
:102960007FF567AFFEF7C6FB411B03200229F5D9AF
:1029700086E621F480303060306820F480203060BA
:10298000FEF7B8FB0546306880033FF51AAEFEF748
:10299000B1FB401B6428F6D90320F8BD306F20F04E
:1029A00001003067306F20F004003067FEF7A2FBB3
:1029B000054641F28837306F80077FF5EDAEFEF7B0
:1029C00099FB411B0320B942F5D959E604F12805CA
:1029D000B06A40F2F33188432ECD0843591E40EAD5
:1029E0000210B0626FF35F214FF4FE024FF47E409D
:1029F00000EB452080B20844A16B02EB01414FF08F
:102A0000FE4201F4FE010844E16B02EB016101F0BA
:102A1000FE41084430634FF6F871F06A20F001007F
:102A2000F062706B8843A16C40EAC1007063206C57
:102A3000F16A21F00C010843F062F06A616C20F049
:102A400002000843F062F06A40F48030F062F06AFD
:102A500040F40030F062F06A40F48020F062F06AE6
:102A600040F00100F062306840F080703060FEF7A6
:102A700041FB0446306880013FF5DBAEFEF73AFBD0
:102A8000011B03200229F5D9FAE521F00100306786
:102A9000306F20F004003067FEF72CFB054641F252
:102AA0008837306F80073FF577AEFEF723FB411B79
:102AB0000320B942F5D9E3E52DE9F84350B30446C4
:102AC00000206049A0622068884208D05E4A904297
:102AD00005D05E4A904202D0E2680F2A1AD8E26816
:102AE000E36B0125884202F1080205EB53134FEA1C
:102AF000D20203FB02F20BD05449884208D0524B59
:102B0000984218BF082A05D8884218BF984204D1B5
:102B1000102A02D90120BDE8F88394F8811031B958
:102B2000002084F88000204600F092F820680221FE
:102B300084F88110016821F001010160D4F8188047
:102B40006168836803F4F81CB8F1806F10D139B163
:102B5000B1F5800F0CD1A56B35B14FF480010EE0BB
:102B6000A56BB5F1805F6AD1056845F480550560B5
:102B70004D0204D4D4F80C904FF0010E0EE0D4F8BE
:102B80000C90B9F1070F07D3256D07684FF0000EC1
:102B900027F480772F4304E04FF0000E076827F4F6
:102BA00080770760E269A66AA768D4E9043542EA3B
:102BB0000C0242EA0602E66B42EA060242EA090217
:102BC000826041EA0802666B42EA0602666A42EAED
:102BD0000602A66B42EA060242EA0302236A42EABE
:102BE000050242EA0302D4E9123542EA050242EA4A
:102BF000070242EA0302A36D42EA0302C26049B936
:102C00008168012262F3CC2181600222816862F333
:102C10004A218160016DBEF1000F21F001010165C3
:102C200005D1616DC26822F000421143C1600020ED
:102C3000C4F88400012184F88110BDE8F8830021E4
:102C400098E700BF00380040003C004000300140E1
:102C500010B5B8B0044633A81421FDF740FB02A814
:102C6000C021FDF73CFB2068184988422CD14FF465
:102C700000500290002403941B9402A8FEF72AFE41
:102C800008B1FDF707FD1248016941F400510161E7
:102C9000016901F4005101910199016841F01001AD
:102CA0000160006833A900F0100001900520379002
:102CB0000120CDE93540022034904FF4A0403390FC
:102CC00001980448FEF738F938B010BD00340140CF
:102CD000E0440258001002582DE9F843044690F8E9
:102CE000800001282FD001201D4617460E46D4F83B
:102CF000009084F88000FEF7FDF9804694F881008A
:102D000001281DD116B30FB3042084F881000020E0
:102D1000C4F88400A4F86A70A4F868706666A4F821
:102D20006000E065C4E91C00A4F86200A1682068A6
:102D3000B1F5C02F10D1016821F40061016010E0ED
:102D4000002084F880000220BDE8F883002084F889
:102D500080000120BDE8F883C168022262F352417D
:102D6000C16041684FF6FF72914339444160016888
:102D700041F0010101606168B1F5800F03D1016884
:102D800041F400710160E06810282ED348F2080673
:102D90006F1CB4F86A00002863D020684169314292
:102DA00009D0006B616E01C16166B4F86A00013838
:102DB000A4F86A00EDE7FEF79DF9002FE9D0A0EB3B
:102DC0000800A842E5D3204601F062F8D4F8840058
:102DD00040F48070C4F88400002084F88000012052
:102DE00084F881000320BDE8F8836E1C07281BD9F6
:102DF000B4F86A00A8B320684069C00708D1FEF79C
:102E000079F9002EF4D0A0EB0800A842F0D3DAE75D
:102E1000B9F83000616E21F8020B6166B4F86A00FF
:102E20000138A4F86A00E3E7B4F86A00C8B1206882
:102E30004169C90708D1FEF75DF9002EF4D0A0EB77
:102E40000800A842F0D3BEE790F83000616E087029
:102E5000606E01306066B4F86A000138A4F86A0058
:102E6000E2E7204601F014F8012084F881000020F8
:102E700084F88000D4F88400002818BF0120BDE841
:102E8000F8832DE9F047044690F8800001282FD000
:102E900001201D4617460E46D4F8009084F88000A5
:102EA000FEF728F9804694F8810001281DD116B359
:102EB0000FB3032084F881000020C4F88400A4F834
:102EC0006270A4F86070E665A4F868006066C4E902
:102ED0001C00A4F86A00A1682068B1F5C02F10D1C9
:102EE0000168024641F4006111E0002084F880008E
:102EF0000220BDE8F087002084F880000120BDE8B2
:102F0000F0870246012352F80C1F63F3524111600F
:102F10004FF6FF724168914339444160016841F0C6
:102F2000010101606168B1F5800F03D1016841F4CE
:102F300000710160E06810281CD36E1CB4F86200B8
:102F4000002800F0898020684169890708D4FEF7CD
:102F5000D1F8002EF2D0A0EB0800A842EED397E003
:102F6000E16D04C90262E165B4F862000138A4F8B9
:102F70006200E3E707282FD94FF6FC706E1C00F1C2
:102F8000020AC71CB4F86200002865D020684169B5
:102F9000890708D4FEF7AEF8002EF3D0A0EB0800A6
:102FA000A842EFD374E0B4F86210022907D3E16BB2
:102FB00029B1E16D04C90262E165504606E0E06DA9
:102FC00030F8021BA9F82010E0653846B4F862100A
:102FD0000844A4F86200D5E74FF6FC706E1C00F1BF
:102FE000020AC71CB4F86200B0B3206841698907BF
:102FF00008D4FEF77FF8002EF4D0A0EB0800A8421A
:10300000F0D345E0B4F86210042909D3E16B4129FB
:1030100006D3E16D04C90262E1654FF6FC7015E06C
:10302000B4F86210022909D3E16B39B1E06D30F8D0
:10303000021BA9F82010E065504607E0E16D097811
:1030400080F82010E06D0130E0653846B4F8621079
:103050000844A4F86200C5E720462946424600F02D
:103060006DFF28B1D4F8840040F02000C4F884003B
:10307000204600F00DFF012084F88100002084F834
:103080008000D4F88400002818BF0120BDE8F08734
:10309000204600F0FDFED4F8840040F48070C4F8AF
:1030A0008400002084F88000012084F8810003203F
:1030B000BDE8F087034A136823EA00000843106064
:1030C000704700BF040400580648016821F0010160
:1030D0000160704703490A6822F002021043086049
:1030E000704700BF003C0058411E0020B0EB116F3C
:1030F00001D001207047044AF023516003490B704E
:10310000906007211160704710E000E023ED00E0BF
:1031100070B590F83C20012A01D1022136E001224D
:1031200080F83C201A4E91E83C0025F47C5524F4AC
:103130007054334022F477222C43694D23431A43C1
:103140000B6923F476231A434B691A438B6A22F4E2
:10315000742223F470231A438B6942EA0343026802
:1031600042F48064AC420DD1D1E90745496A094E69
:1031700023F07C7306EA0151194324F000731943CC
:1031800041EA0503002180F83C105364084670BDF5
:10319000FF87F0FF0000F0FC70B590F83C30022291
:1031A000012B30D080F83D20012280F83C204C4C8F
:1031B000026842F4806655689368A64202BF25F40F
:1031C00070054E683543B2F1804F0E6825F07005EA
:1031D00045EA060555600BD03C4DAA421CBF3C4D4C
:1031E000AA4205D03B4DAA421CBF3B4DAA420CD17E
:1031F00023F08003896819439160002280F83C2005
:10320000012180F83D10104670BD9C4DAA42EFD0C0
:10321000324DAA4218BFA242EAD0EEE710B50446EA
:1032200041B1082909D0042914BF04F1470004F171
:10323000450004E004F1440001E004F14600007898
:1032400001280AD1022051B108290BD0042914BF4A
:1032500084F8470084F8450006E0012010BD84F89A
:10326000440001E084F846002068042201F02CFEAE
:103270002168B1F1804F486C40F4004048640BD0A5
:10328000124881421CBF1248814205D01148814238
:103290001CBF1148814209D18868124A02400020AF
:1032A000062A18BFB2F5803F09D110BD734881428C
:1032B000F2D00A488142EFD009488142ECD0086838
:1032C00040F001000860002010BD00BF0004004075
:1032D00000080040000C0040001800400040014081
:1032E000000401400700010010B586B0044601A8A3
:1032F0001421FCF7F4FF20686049884217D10D487B
:10330000016841F010010160006801A900F010009F
:103310000090012005900020CDE9030002200290DA
:103320004FF48060019000980348FDF705FE06B059
:1033300010BD00BFE044025800100258B0B504466A
:1033400090F83C00012801D10220B0BD0D464FEAA3
:10335000B201012084F83C00052948D8DFE801F0DB
:10336000030B131B23332068294601F0BDFD2068A1
:1033700050F8181F1EE02068294601F0F7FD20686C
:1033800050F8181F26E02068294601F02BFE20681F
:1033900050F81C1F0EE02068294601F061FE2068ED
:1033A00050F81C1F16E02068294601F089FE2068AD
:1033B00050F8541F41F008010160016821F0040138
:1033C000016029690FE02068294601F0A7FE206806
:1033D00050F8541F41F400610160016821F48061DC
:1033E000016029690902026811430160002000217F
:1033F00084F83C10B0BD60B310B5044690F83D00B1
:1034000028B9002084F83C00204600F025F802206E
:1034100084F83D00211D206801F0F8FC012084F8AB
:10342000480084F83E0084F83F0084F8400084F8A7
:10343000410084F8420084F8430084F8440084F892
:10344000450084F8460084F8470084F83D000020D9
:1034500010BD01207047000081B000680749884214
:1034600009D10748016841F001010160006800F0DE
:1034700001000090009801B0704700BF00000140BB
:10348000F0440258FEE7000070B52DED048B194E94
:103490000C463168896B4CB3814227D000EE101A7C
:1034A00001EE104AB8EE408A00EE100AB8EE400A6B
:1034B000B8EE411A30EE480A80EE019AFDF71AFE86
:1034C00005460120FDF728FDFDF714FE401BB0EE78
:1034D000481A00EE100AA042B8EE400A09EE001A9F
:1034E000BCEEC10A316881ED0E0AEAD3BDEC048B53
:1034F00070BD00BFE40600242DE9F04F03AF91B08A
:10350000814608200C2B8A464FF007011D461646BF
:103510006C4608BF062047F8200C584301EB4000DA
:10352000924920F00700B1F800B0ADEB000047F879
:10353000280C85468E48A7F1180100F1080840467E
:1035400000F008FFA7F11401404647F8448C00F052
:1035500007FFA6F1200047F81CBC47F8409C47F83D
:10356000344CC1B2B86947F82C1C00286FD07F4892
:1035700057F8146C4FF0000854464FF0000C47F811
:10358000389C008800BA020C57F8180C47F83C0C1D
:10359000784800EB011047F8240C10465A46A8451D
:1035A00000F0CC80864657F82C0C57F8241C0C2DC4
:1035B00001EB080300EB40016F4800EB810108BFFD
:1035C00001EB080357F8280C28F001011B7800EBE9
:1035D000010B70464FF0000E04F1080147F8301C53
:1035E000BEF1070F2ED859B2B1F1FF3F08DC1FFA28
:1035F0008CF157F8202C514357F81C2C2BF8110054
:103600000CF1010C01341FFA8CF11FFA84F9A94264
:103610004FF0000128BF8C464E4540F29E80A9EB3A
:103620000A010EF1010E5B00A942D9D157F8381CEE
:1036300057F83C3C5446013147F8381C89B28B425C
:1036400002D88AE057F8304C08F10108A7E79BFA46
:103650009BF047F8240C57F814BC00264FF0000EDE
:1036600047F8489CC448008890FA80F857F8180C2E
:1036700047F84C0C3F4800EB011047F8380C504617
:10368000AE425BD057F82C2C57F8381C0C2D314427
:1036900002EB4203384A02EB830308BF99190C7806
:1036A00057F8282C47F8306C26F00101002302EB74
:1036B000010900F1080147F83C1C2C490988072B37
:1036C00034D861B21FFA8EF20EF1010E0130B1F161
:1036D000FF3F57F8241C1FFA80FCC8BF4FEA18416F
:1036E00057F8206C724329F812101FFA8EF2AA4282
:1036F0004FF0000228BF9646E34557F81C2C2CD902
:10370000ACEB0A0201336400AA42D8D1174857F83B
:103710001C2C018057F8480C57F84C1C013047F816
:10372000480C80B28142504604D816E00F48018010
:1037300057F83C0C57F8306C0136A1E782B057F8C7
:10374000200CCDE90005524657F8283C57E91101F5
:1037500000F056FD57F81C2C02B00448028057F8C0
:1037600034DCA7F10C04A546BDE8F08F100000245E
:10377000A8000024D1C200085DBE00082DE9F84F62
:10378000834658180C46DDF828900B9F02EB0B017E
:103790004FEA590886B25D461FFA81FA3A78A2F1DB
:1037A0002000C0B25E2811D8A8B2504524BF5FFAED
:1037B0008BF54C44A1B2B14208D2002000904B4698
:1037C000A8B2FFF799FE45440137E7E7BDE8F88F57
:1037D0002DE9F04F87B0674D4FF48070664C674914
:1037E00004F1080BA8810320A860584601F0A4F852
:1037F000634E584605212A4633689847B268211D12
:1038000058469047DFF87CA100215F4B0022DAF890
:103810000000816358460021B46AA047FDF76AFCA6
:1038200006465A485A4D6427A0EB060928464FF42D
:103830000051FDF749FC012859D00A20FDF76CFB27
:10384000FDF758FC0446FDF755FCA0EB0608A01B4D
:10385000B0F57A7F09D808FB07F04FF47A71B0FB16
:10386000F1F0DAF800108863E0E7FDF743FC40F67A
:10387000B831801B884532D8A0F57A700A2102AC95
:10388000B0FBF1F2204643A101F062FEDFF8E480D4
:10389000102001211023B8F80020CDE90004A2F186
:1038A0001E0080B2FFF76AFF35482F46D8F8045053
:1038B000846BFDF71FFCD8F80010484403220092E7
:1038C00048434FF6FF724FF4FA610192EA1E3D46FB
:1038D0006427B0FBF1F358460021A047A6E740F665
:1038E000B9318842A2D302E00A20FDF715FB284631
:1038F0004FF40051FDF7E8FB0128F5D000204FF40C
:1039000096710024FFF7C0FD1D481A4E00210022C9
:10391000856BD6E90030CDE900045846A8471F481A
:1039200002901023102402AD1CA0D0E90112CDE9B1
:103930000312007B32888DF81400042004210094C7
:103940000195FFF71BFFFDF7C9FB024617A12846AB
:1039500001F0FEFD3288042016211023CDE9004538
:10396000FFF70CFF6420C82107B0BDE8F04FFFF758
:103970008BBD00BFE8000024A800002460000024E4
:1039800014000024E4060024145A000818FCFFFF69
:103990000008025825303364000000005765416379
:1039A000742053747564696F0000000053544D33E4
:1039B000324837787820307825580000B0B56F4D00
:1039C0000446082101222846FDF783FB601EFDF70F
:1039D000A3FA284608210022FDF77BFB40F2F310F2
:1039E000BDE8B040FDF798BA10B5C1F30453C1F378
:1039F000406107249C409A4000EB81004169A1434B
:103A00001143416110BD0000F0B587B068461C212C
:103A1000FCF765FC264C27480125042600271521C4
:103A200025622577A661A782C4E90275206004F1AA
:103A300024002661FCF753FC2046FDF70DF808B181
:103A4000FCF728FE40F2FF708DF81970CDE904678D
:103A50000390694606200290CDE900501448FCF717
:103A600067FE08B1FCF716FE0C200190694612486B
:103A700000900F48FCF75CFE08B1FCF70BFE12202B
:103A8000019069460D4800900948FCF751FE08B1C5
:103A9000FCF700FE18200190694609480090044890
:103AA000FCF746FE08B1FCF7F5FD07B0F0BD00BF1E
:103AB000F8050024006002580000B8CF000084CB55
:103AC000000052C72DE9F04387B02B480026069628
:103AD0002A4C00220825016841F0100101600168AC
:103AE00001F0100101910199016841F004010160A8
:103AF000016801F0040101910199016841F0800120
:103B00000160016801F0800101910199016841F0B3
:103B1000010101600068082100F001000190019896
:103B20002046FDF7D6FA20464FF4205101224FF4EB
:103B300020584FF00109FDF7CCFACDE90466CDE934
:103B4000025902AD0E4F20462946B8470220CDE962
:103B5000036029464FF400500290A4F50060B84776
:103B60000320CDE904602946CDE902892046B84703
:103B700007B0BDE8F08300BFE044025800100258CF
:103B8000390F0008F8B5144C00204FF000514FF0E9
:103B9000806207234FF4C0254FF480060F4F206248
:103BA000C4E90076C4E90253C4E90400C4E906216B
:103BB000C4E90900E0624FF080406063242104F111
:103BC0003800FCF78CFB2046FEF776FF18B1BDE805
:103BD000F840FCF75FBDF8BD5C06002400340140EE
:103BE000B0B596B00CA81C2100241594CDE913445F
:103BF000FCF775FB01A82C21FCF771FB234840F270
:103C0000E7310B22224BC0E90032C0E90241C0E992
:103C100004448461FFF7EFFB08B1FCF73BFD1B4850
:103C200013A91594CDE91344FFF7B6FA08B1FCF7D0
:103C300031FD082000251295CDE910550F90CDE9F2
:103C40000D550CA9042260200C901048FFF776FB5C
:103C500008B1FCF71FFD01AC14212046FCF73FFB27
:103C60004FF00070CDE90A550990CDE9075521467E
:103C70004FF4005006900548FFF74AFA08B1FCF7E8
:103C800009FD0248FFF730FB16B0B0BDE406002482
:103C900000000140FEE7704770470000F8B57B4F19
:103CA0000546B86A00F00300032801D10120F8BDE1
:103CB00038680C4620F080603860FDF71BFA064635
:103CC0003868000105D5FDF715FA801B0228F7D9E1
:103CD0005CE095E80F00BE6A26F47C36A1F1010194
:103CE00046EA0030B8626FF35F214FF47E4000EB8C
:103CF00042204FF0FE4280B208444FF4FE0101EB37
:103D0000034101F4FE010844296902EB016101F05D
:103D1000FE410844B8636869F96A21F0C00140EACD
:103D20000100F862A869F96A21F0200140EA010067
:103D3000F8624FF6F871F86A20F01000F862F86B3C
:103D400020EA0100E96940EAC100F863F86A40F03E
:103D50001000F8623CB1F86A012C14BF40F4001066
:103D600040F4801002E0F86A40F40020F8623868FD
:103D700040F080603860FDF7BDF904463868000106
:103D800006D4FDF7B7F9001B0328F7D30320F8BDCD
:103D90000020F8BDF8B53D4F0546B86A00F00300B5
:103DA000032801D10120F8BD38680C4620F080506E
:103DB0003860FDF79FF906463868800005D5FDF7A5
:103DC00099F9801B0228F7D95CE095E80F00BE6ADC
:103DD00026F07C76A1F1010146EA0050B8626FF34B
:103DE0005F214FF47E4000EB42204FF0FE4280B254
:103DF00008444FF4FE0101EB034101F4FE010844C5
:103E0000296902EB016101F0FE41084438646869E8
:103E1000F96A21F4406140EA0100F862A869F96A90
:103E200021F4007140EA0100F8624FF6F871F86A77
:103E300020F48070F862786C20EA0100E96940EAB9
:103E4000C1007864F86A40F48070F8623CB1F86AA6
:103E5000012C14BF40F0807040F4000002E0F86ACA
:103E600040F48000F862386840F080503860FDF718
:103E700041F904463868800006D4FDF73BF9001B81
:103E80000328F7D30320F8BD0020F8BD00440258F2
:103E900010B5016840F26F344A698B6943F008033A
:103EA0008B618B6943F010038B610B6823F0010376
:103EB0000B600B69A3430B6194068B6823F44043AA
:103EC0008B6090F881300BD5042B09D0D0F884306A
:103ED00043F08003C0F884308B6943F020038B618A
:103EE00090F8813054060BD5032B09D0D0F88430DC
:103EF00043F00403C0F884308B6943F040038B61C6
:103F0000930509D5D0F8843043F00103C0F884301C
:103F10008B6943F400738B61D20509D5D0F88420F6
:103F200042F00802C0F884208A6942F480728A61F3
:103F30000021A0F86210A0F86A1010BDF8B5144670
:103F40000D4606464F1C30684069000708D4FDF74F
:103F5000D1F8002FF7D0001BA842F4D30320F8BDFE
:103F60000020F8BD002070472DE9F84307460020E7
:103F70000DF103098DF803003D4D1321002307F1D6
:103F800020044A462046A847804638460A2100F0C9
:103F9000EFF9204628214A460023A847064638461E
:103FA0000A2100F0E5F9204636214A460023A847B9
:103FB000EE496E4B8A68097B03EBC202002906EBCF
:103FC000080101EB000520464946526808BF42F04F
:103FD00008028DF80320012201F0B2FA4042281AAB
:103FE00018BF4FF0FF30BDE8F88300BF2DE9F8435C
:103FF000074600200DF103098DF803001C4D132125
:10400000002307F120044A462046A8478046384648
:104010000A2100F0ADF9204629214A460023A8478D
:10402000064638460A2100F0A3F9204636214A46C2
:104030000023A847CD494D4B8A68097B03EBC20298
:10404000002906EB080101EB0005204649465268AD
:1040500008BF42F008028DF80320012201F070FA37
:104060004042281A18BF4FF0FF30BDE8F88300BF68
:10407000475500082DE9FE4FDFF8149C1E46044604
:104080000F46D3F802B0D3F80AA0D3F81230D9F80B
:104090000400D6F816100091801A451A20463946B9
:1040A0002A4600F0E9FCE0B9D9F808002F4904F1EC
:1040B00020080DF10902012351F8300099F80C1085
:1040C000002908BF40F008008DF80900362140465D
:1040D00001F039FA28B9204639462A4600F05EFC3C
:1040E00020B14FF0FF352846BDE8FE8F5644ABEBBC
:1040F0000A0700250DF10A0A705D514602228DF86B
:104100000B00701940788DF80A00404601F018FA4B
:1041100020B90235BD42EFD3002601E04FF0FF3653
:104120001249D9F808000DF10902012301EBC00082
:1041300099F80C10406800294FF0360108BF40F094
:1041400008008DF80900404601F0FDF94FF0FF35F9
:104150000028C8D1D9E90030009000210022204673
:1041600000F08AFC002808BF3546BCE7C4C8000838
:10417000B0B505461C4658187C4B1B68984203D8BE
:10418000284600F00BFC10B14FF0FF30B0BD0B49DA
:10419000049823460131020A2BB1087001F8012C62
:1041A0000231013BF8E705F120006200034901F00C
:1041B000C7F9002818BF4FF0FF30B0BDF800002449
:1041C0002DE9F0410E46694907469818496888422A
:1041D0000ED81C461546DDF818806CB138463146BD
:1041E0002A46434600F030FD0135013C0028F4D05A
:1041F0004FF0FF30BDE8F0810020BDE8F08100BF46
:104200002DE9FE4F07460C980E46154601445748C7
:104210000268914202D94FF0FF393AE0DDF834B03C
:1042200040684FF0FF390BEB0501814231D80C9803
:104230001C464FF000084FF0000A4000029007F1C2
:1042400020000190144801300090DA4520D00AEB9C
:1042500005023846314600F0A1FB10B14FF0FF389F
:1042600013E000980C9941B12278013900F8012C33
:104270006278023402700230F5E701980649029A2A
:1042800001F05EF9002818BFC8460AF1010ADCE710
:10429000C1464846BDE8FE8F780300242DE9F84367
:1042A000994615460E460746DDE908485CB1384692
:1042B00031462A464B46CDF80080FFF759FF28B912
:1042C000013C0135F2E70020BDE8F8834FF0FF30F4
:1042D000BDE8F8834FF0FF30704700002348806846
:1042E00008600020704700BF2DE9FC47984606464D
:1042F00000F054FB0DF10507203681462E21304693
:104300003A4601F017F98246114C304639460122EF
:10431000A04707460DF1070130460122A047054698
:104320000DF1060130460122A0479DF806109DF8C8
:104330000720404242EA0121C8F800100AEB0901B7
:1043400039442944081A18BF4FF0FF30BDE8FC87F4
:104350003B5500080548006808600020704700BF12
:104360000248406808600020704700BFE800002451
:1043700070B50546C0690C4680470646E869804727
:10438000801BA042FAD370BD2DE9F04FBDB00028CC
:104390003A923C9100F09C8200210DF1EF0500F172
:1043A00020078DF8EF100646DFF8C8460023384690
:1043B00001212A46A047304678214FF0000839965F
:1043C000FFF7D6FF384601212A4600238DF8EF80FB
:1043D0004FF00008A047389030467821FFF7C8FF1B
:1043E000384611212A4601238DF8EF80A0473790E7
:1043F0003846B1212A460023A0473690DFF8AC8723
:1044000038462946012201268DF8EF60C0473590D5
:104410002C208DF8EF00294601224FF02C0B384656
:10442000C04734902D208DF8EF00294601224FF02F
:104430002D093846C04733903846B2212A46012319
:104440008DF8EF604FF0010AA047329038462946B8
:1044500001228DF8EFB02C26C0473190384629460E
:1044600001228DF8EF904FF02D09C047309038466B
:10447000B3212A4601238DF8EFA04FF0010BA0478E
:104480002F903846294601228DF8EF602C26C04730
:104490002E903846294601228DF8EF904FF02D09D5
:1044A000C0472D903846294601228DF8EFB0C0470D
:1044B0002C903846294601228DF8EF60C0472B909A
:1044C0003846294601228DF8EF90C0472A900720F0
:1044D0008DF8EF00B4212A4601234FF00709384632
:1044E000A0472990A2208DF8EF00C0212A46012381
:1044F0003846A047289002208DF8EF002946012277
:104500003846C047279084208DF8EF0029460122C5
:104510003846C0472690C5208DF8EF00C1212A46B5
:1045200001233846A04725900A208DF8EF00C221CC
:104530002A4601233846A0472490384629460122BE
:104540004FF0000B8DF8EFB0C04723903846C321E1
:104550002A4601238A268DF8EF60A04722902A2060
:104560008DF8EF00294601223846C0472190384691
:10457000C4212A4601238DF8EF60A0472090EE2049
:104580008DF8EF00294601223846C0471F900E20C3
:104590008DF8EF00C5212A4601233846A0471E901A
:1045A0003A9820212A460023007B0028384608BF7D
:1045B0002121A0471D903CAA38463A210123A0475B
:1045C0001C9002208DF8EF00E0212A460123384696
:1045D000A0471B901C208DF8EF0029460122384689
:1045E000C0471A903846294601228DF8EF90C047FF
:1045F000199012208DF8EF00294601223846C04755
:10460000189037208DF8EF00294601223846C04720
:10461000179032208DF8EF00294601223846C04716
:1046200016903846294601224FF029098DF8EF905F
:10463000C04715903846294601224FF02D0A8DF8C3
:10464000EFA0C04714903846294601228DF8EF901C
:10465000C047139025208DF8EF00294601223846E7
:10466000C04712902B208DF8EF00294601223846D2
:10467000C047119039208DF8EF00294601223846B5
:10468000C04710903846294601228DF8EFB0C04748
:104690000F9001208DF8EF00294601223846C047CF
:1046A0000E9038462946012203268DF8EF60C04758
:1046B0000D9010208DF8EF00294601223846C047A2
:1046C0000C903846E1212A4601238DF8EF60A0477F
:1046D0000B901D208DF8EF00294601223846C04777
:1046E0000A9007208DF8EF00294601223846C0477E
:1046F000099006208DF8EF00294601223846C04770
:1047000008903846294601222E268DF8EF60C047D2
:1047100007902C208DF8EF00294601223846C0472B
:1047200006903846294601228DF8EF90C047059043
:104730003846294601228DF8EFA0C047049038463C
:10474000294601228DF8EF60C0470390384629467C
:1047500001228DF8EF60C047029037208DF8EF00FE
:10476000294601223846C04701903F208DF8EF00CE
:10477000294601223846C0470446384629460122C8
:1047800000268DF8EF60C04783463846294601224F
:104790008DF8EF604FF0000AC047814602208DF887
:1047A000EF00294601223846C047064610208DF802
:1047B000EF00294601223846C047DDE937210123B1
:1047C0004FF000088DF8EFA01144369A1144359A45
:1047D0001144349A1144339A1144329A1144319A53
:1047E0001144309A11442F9A11442E9A11442D9A53
:1047F00011442C9A11442B9A11442A9A1144299A53
:104800001144289A1144279A1144269A1144259A52
:104810001144249A1144239A1144229A1144219A52
:104820001144209A11441F9A11441E9A11441D9A52
:1048300011441C9A11441B9A11441A9A1144199A52
:104840001144189A1144179A1144169A1144159A52
:104850001144149A1144139A1144129A1144119A52
:104860001144109A11440F9A11440E9A11440D9A52
:1048700011440C9A11440B9A11440A9A1144099A52
:104880001144089A1144079A1144069A1144059A52
:104890001144049A1144039A1144029A1144019A52
:1048A00011442A462144734C5944494431440E185A
:1048B00038461321A0470644384629212A460123B9
:1048C000A0473518DDE9390100F072F9C54201D081
:1048D0004FF0FF3840463DB0BDE8F08F7CB500F1A9
:1048E00020050DF105060C46DA212846324600F077
:1048F00021FE58B9721C2846DB2100F01BFE28B9A6
:10490000B21C2846DC2100F015FE10B14FF0FF303C
:104910007CBDBDF806009DF80510000400BA40EA11
:104920000140206000207CBD0369084611461847FD
:104930008369084611461847E8B1B0B50F4A42628C
:104940000F4AC2620F4A82620F4A0262D1E9002313
:10495000D1E90345C0E900230B890381C0E9034580
:1049600000634B6943618B69C9698361C161BDE8BB
:10497000B04002B110474FF0FF307047294900089E
:10498000314900088D490008954C000843690846E4
:10499000114618474FF0FF30704700002DE9F84FDF
:1049A0000C46BB498B684D7B012B08D8012D0CD1DF
:1049B000097B002912BF183401321A3416E0012D88
:1049C0000BD1097B81B1183210E0022D0ED1097B89
:1049D000012904BF0132023408E0022D06D1097B0F
:1049E000012903D1023200E01A32013400F120061D
:1049F0000DF1030791461F4D2A21002330463A4608
:104A0000A8478246200A8DF80300DFF8A0813946C6
:104A100001223046C04783463046394601228DF890
:104A20000340C047044630462B213A460023A8479E
:104A300005464FEA19208DF8030039460122304619
:104A4000C0470BEB0A0101228DF803902144294451
:104A50000C1830463946C047044430462C213A46AB
:104A60000023044DA8474042201A18BF4FF0FF30E2
:104A7000BDE8F88F475500082DE9F04F85B00E4688
:104A800083491C4692468B684A7B012B09D8012A30
:104A900012D1097B002912BF18360AF1010A1A3611
:104AA0001BE0012A11D1097B0136002914BF0AF14C
:104AB000180A0AF11A0A10E0022A0ED1097B01290C
:104AC00004BF0AF1010A023607E0022A05D1097B78
:104AD000012904BF0AF1020A013600F120070DF195
:104AE00013052A21002338462A4600F02CFD0390A6
:104AF000300A8DF81300DFF8B480294601223846C9
:104B0000C04702903846294601228DF81360C047FD
:104B10000190A01929460122441E200A8DF8130095
:104B20003846C04700903846294601228DF8134088
:104B3000C047044638462B212A46002300F003FDD7
:104B400081464FEA1A208DF8130029460122384683
:104B5000C047564682463846294601228DF81360E2
:104B6000C04783460E98294601223044461E300A2B
:104B70008DF813003846C047DDE902218DF8136037
:104B80001144019A1144009A1144012221444944DC
:104B9000514459440C1838462946C0474042201A0F
:104BA00018BF4FF0FF3005B0BDE8F08F4155000849
:104BB0007CB504468A68487B012A08D878B1022867
:104BC0000DD0012814D1324BA02550260EE050B153
:104BD000022808D001280BD12D4B502505E02C4B85
:104BE000A025802602E02A4B8025A026C3E9006587
:104BF000274E7073087BB260002100223073D6E923
:104C0000003000902046FFF737FF0546B0680D4999
:104C10000DF10702012301EBC000317B4068002940
:104C20004FF0360108BF40F008008DF8070004F18E
:104C3000200000F088FC4042281A18BF4FF0FF30D7
:104C40007CBD00BFC4C80008BCB50446180240EAD9
:104C500013200F4BADF806004FF0FF301D688D425A
:104C600014D95B68934211D92046FFF797FE10B123
:104C70004FF0FF30BCBD04F120000DF1060102220F
:104C800000F05EFC002818BF4FF0FF30BCBD00BF35
:104C9000E800002410B51C46C368084611462246A9
:104CA000BDE8104018477047FCF728BAB0B59CB073
:104CB00009A84C21FBF713FB01A82021FBF70FFBF0
:104CC0000220FCF7FBFA314900200090086820F030
:104CD00001000860086800F0010000902C4802689C
:104CE00042F440420260026802F440420092009A9C
:104CF00002689204FCD5274A835843F0020383508C
:104D0000825802F002020092009A00220092026889
:104D100042F440420260026802F4404200920A6893
:104D200042F001020A60096801F001010091009956
:104D300001688904FCD5022060210024CDE91A44D1
:104D4000082519951890CDE91600159105211491A3
:104D5000CDE912004FF480300A900120099009A893
:104D6000FDF726FC80B903200594CDE903450290A8
:104D700001213F200190CDE90644089401A8FDF7E8
:104D800061FA08B91CB0B0BDFBF784FC2C040058D4
:104D900018480258DCFCFFFF10B51748184CD0F833
:104DA000801041F47001C0F8801014490A6842F084
:104DB00001020A6000220A610B6823400B608A61CD
:104DC000CA610A628A62CA620A634A638A63CA6300
:104DD0000A644A640B6823F480230B600A6609495D
:104DE0000968B2EB517F02D1074901220A604FF0F6
:104DF0000061016010BD00BF08ED00E000440258F2
:104E00007FEDF6EA0010005C08810051B0B5026841
:104E1000B0F1804F05D0294B98421CBF284B9842D7
:104E200037D122F070024B681A43B0F1804F1CBF9B
:104E3000224B98420BD0224B98421CBF214B9842E8
:104E400005D0CE4B98421CBFCD4B98422BD122F4BB
:104E50004072CB681A434D6922F080020B688C685F
:104E60002A430260C4628362C44A90421CBFC44A9F
:104E7000904204D10969016301214161B0BDC14A79
:104E80009042F7D0C04A9042F4D0C04A9042F1D04C
:104E9000F2E70C4B9842C4D0B94B9842C1D0B74B03
:104EA0009842BED0C1E7B74B9842D0D0B64B98429B
:104EB000CDD0B64B9842CAD0CDE700BF0004004029
:104EC00000080040000C004010B501F01F01042351
:104ED000046A8B4002FA01F124EA03030362026AC6
:104EE0001143016210BD000070B5026A5B4E22F0F2
:104EF000010202620B688A68046A24F002042243F9
:104F00004468856935402B439C4DA8421CBF9C4E8C
:104F1000B04216D1CE6822F00C0226F004063243CD
:104F2000A8421CBF964DA84215D124F44074D1E983
:104F300005562C43344344608361496841630262EF
:104F400070BD904EB042E5D08F4EB042E2D08F4E51
:104F5000B042DFD0E4E78B4DA842E6D08A4DA842AC
:104F6000E3D08A4DA842E0D0E5E700BFF0B5026A81
:104F7000524E22F0100202620C688A68036A23F023
:104F8000200343EA021243688569354040F4806695
:104F900045EA04247A4DAE4207D1CE686FF040074F
:104FA00022F0C00207EA06163243744EB04218BF20
:104FB000A8420DD1D1E9055623F4406343EA8503A5
:104FC00043EA860343608461496881630262F0BDFD
:104FD0006C4DA842EED06C4DA842EBD06B4DA84270
:104FE000E8D0EFE7F0B5026A1C4E22F4807202624C
:104FF0000C688A68036A23F4007343EA0222436858
:10500000C569354040F480662C435D4DAE4207D102
:10501000CE6840F2FF4722F440623602BE4332437C
:10502000564EB04218BFA8420DD1D1E9055623F41F
:10503000405343EA051343EA06134360C4614968D9
:10504000C1630262F0BD4F4DA842EED04E4DA84262
:10505000EBD04E4DA842E8D0EFE700BF8CFFFEFF3B
:1050600070B5026A154E22F4805202620C688A689A
:10507000036A23F4005343EA02324368C5693540AA
:1050800045EA04243D4DA8421CBF3D4DA8420AD12B
:105090004D6923F4804343EA85134360C461496842
:1050A0000164026270BD374DA842F1D0364DA8426E
:1050B000EED0364DA842EBD0EFE700BFFF8CFFFEED
:1050C00070B5026A144E22F4803202620C688A685B
:1050D000036A23F4003343EA02424368456D3540D6
:1050E0002C43264DA8421CBF254DA8420AD14D692C
:1050F00023F4803343EA05234360446549688165AE
:10510000026270BD1F4DA842F1D01F4DA842EED0E3
:105110001E4DA842EBD0EFE78FFFFEFF70B5026A8D
:10512000154E22F4801202620C688A68036A23F426
:10513000001343EA02524368456D354045EA0424B2
:105140000E4DA8421CBF0E4DA8420AD14D6923F452
:10515000802343EA8523436044654968C165026250
:1051600070BD084DA842F1D0074DA842EED0074DC2
:10517000A842EBD0EFE700BFFF8FFFFE0000014029
:10518000000401400040014000480140004401404B
:10519000FEE7000010B500F00F03D54C044AB0F153
:1051A000FF3F2344C8BF83180801187010BD00BF1B
:1051B00000E400E0FBF79EBF80B503480421FEF742
:1051C0002DF8002080BD00BFE40600242DE9FC413D
:1051D000524C88468DF80700514E4FF40061002272
:1051E0002046B04720464FF400510022B0474D4DB5
:1051F0000DF10701012264232846FDF742FE074610
:1052000020464FF400510122B04728464146012272
:105210004FF4FA73FDF760FD054620464FF4006138
:105220000122B0476842381A18BF4FF0FF30BDE87E
:10523000FC8100BF70B5394C0D4606464FF4006145
:1052400000222046FBF745FFAAB2364831464FF40C
:10525000FA73FDF741FD054620464FF40061012237
:10526000FBF737FF002D18BF4FF0FF35284670BD04
:1052700070B52A4C0D4606464FF4006100222046C8
:10528000FBF727FFAAB2274831466423FDF7F9FD53
:10529000054620464FF400610122FBF71AFF002D5E
:1052A00018BF4FF0FF35284670BD00BF2DE9FC4701
:1052B0001A4D174688468DF80700DFF864A04FF4B2
:1052C0000061002200242846D04728464FF40051B0
:1052D0000022D04713480DF1070101226423FDF796
:1052E000D0FD064628464FF400510122A946D0477A
:1052F0003FB1BAB20B4841464FF4FA73FDF7C1FD16
:10530000064448464FF400610122FBF7E2FE002EFE
:10531000C8BF4FF0FF342046BDE8FC87001002589C
:10532000D31000085C0600248AB001240294FBF725
:1053300061FF1B20059402AC8DF8100000254FF092
:1053400010464FF480778DF813500396ADF8117026
:105350002046FBF729FF05208DF813000396ADF8D2
:10536000117016208DF8100040F20110ADF8080001
:105370005E4805902046FBF717FF0420FBF744FF2B
:105380005B480168890311D4BFF34F8FBFF36F8F60
:10539000C0F83C52BFF34F8FBFF36F8F016841F4E9
:1053A00000310160BFF34F8FBFF36F8F0168C903F6
:1053B00027D40021016743F6E07CBFF34F8FC26E14
:1053C000C2F34E31C2F3C9034FEA837E5D1C0CEA7F
:1053D000411677462B4647EA060207F14047013B54
:1053E000C0F84C22F7D14A1E00291146EFD1BFF375
:1053F0004F8F016841F480310160BFF34F8FBFF3DD
:105400006F8FFBF785FEFFF751FCFEF75BFBFEF7A6
:10541000FBFAFEF7B7FBFEF7E3FBFEF7D9F93548D9
:10542000002140F2FF72FBF73BF900285CD14FF0FE
:10543000000ADFF8C090304E4FF6FF780C24484643
:10544000BAF1040F1DD0FBF7D3FC00284CD148461D
:105450006421FBF743FC002846D1484606EB4A0B83
:10546000FBF7F6FAABF8100040F6E44206EB8A00D0
:105470000AF1010ABBF810105143B1FBF8F1816148
:10548000DDE7FBF729FDB269F369306A0227716A2B
:1054900002ADC6E90023A0F51B70890090FBF7F070
:1054A0001E30C6E9020115A1284600F051F8194F37
:1054B00000202E211023CDE900454FF0000A3A8844
:1054C000FEF75CF9D6E90223284613A100F040F864
:1054D0003A8800203E211023CDE90045FEF74EF921
:1054E0000320FEF76BFAAAE7FBF7D4F800000101EE
:1054F00014ED00E0F8050024800000242050433221
:105500003A202534646D5620567265663A2025345B
:10551000646D5600E800002474656D703A202533F0
:105520006420274320766261743A202534646D56E6
:1055300000000000436800691847D0E903301847AD
:10554000836800691847D0F800C000696047000010
:105550000FB4084B10B504A902AA039800F01CF878
:10556000044602A9002000F048FA204610BC5DF86D
:1055700014FB0000FB59000802E008C8121F08C114
:10558000002AFAD170477047002001E001C1121FC4
:10559000002AFBD1704700002DE9FF4F8DB00F4668
:1055A0000546002606E025280BD0DDE90F129047BE
:1055B0006D1C761C28780028F5D111B03046BDE866
:1055C000F08F0024A246A1460122EC4900E00443EA
:1055D00015F8013F203B02FA03F00842F7D1287882
:1055E0002A2810D06FF02F022878A0F13001092965
:1055F00014D80AEB8A0102EB410144F0020400EBEB
:10560000010A6D1CF0E701CF5FEA000A03D544F4FC
:105610000054CAF1000A44F002046D1C28782E28B8
:1056200017D115F8010F44F004042A280ED06FF0AA
:105630002F022878A0F1300109290AD809EB890145
:1056400002EB410100EB01096D1CF2E757F8049BE6
:105650006D1C28786C280FD006DC4C2817D06828E1
:105660000DD06A2814D104E0742810D07A280FD104
:105670000DE044F400140AE044F4801401E044F422
:1056800040146978814202D104F580146D1C6D1CB0
:105690002A786E2A1FD00CDC632A31D004DC002A61
:1056A0008BD0582A11D1A3E0642A68D0692A0CD182
:1056B00065E0732A2ED004DC6F2A73D0702A04D1DF
:1056C0009BE0752A6FD0782A6ED01046DDE90F1264
:1056D0009047761C50E1C4F30250022806D00328FC
:1056E00009D0042801CF09D0066045E101CFF117A8
:1056F000C0E9006140E101CF06803DE106703BE179
:1057000017F8040B8DF8000000208DF80100EB461F
:10571000012003E057F804BB4FF0FF3061074FF062
:10572000000102D40DE008F10101884649450FDA75
:105730008045F8DB1BF808100029F4D108E008F1D7
:10574000010188468142FADB1BF808100029F6D1D6
:10575000DDE90F23AAEB08008146214600F036F967
:10576000304400EB080604E0DDE90F121BF8010BE2
:105770009047B8F10108F7D221464846F7E00A21E0
:10578000C4F302534FF0000B0891022B04D001CF59
:10579000C117032B09D00AE0FF1D27F00707F7E820
:1057A000020108E032E01FE020E000B2C117042B44
:1057B00001D140B2C117031E71F1000307DA4FF0A7
:1057C000000CD0EB0C006CEB01012D2302E0230553
:1057D00004D52B238DF82430012303E0E30701D007
:1057E0002023F7E7984658E00A2110E010210EE048
:1057F00010204FF0000B08900CE010214FF0000B30
:1058000044F004044FF00809089103E008214FF028
:10581000000B0891C4F30253022B04D001CF0021E6
:10582000032B06D006E0FF1D27F00707F7E802016B
:1058300003E080B2042B00D1C0B24FF00008230770
:105840002BD5702A07D0DDF820C08CF0100C5CEA54
:105850000B0C05D00EE040238DF82430012308E026
:1058600050EA010306D030238DF824308DF825202E
:1058700002239846DDF820C08CF0080C5CEA0B0C83
:105880000BD150EA010301D1630706D530238DF80F
:1058900024304FF00108A9F10109582A04D038A298
:1058A0000B9208AA0A920BE03AA2F9E75B46089A23
:1058B000FAF720FD0B9B9B5C0A9A521E0A9213700A
:1058C00050EA0102F2D10A98ADEB000000F1200B82
:1058D000600702D524F4803401E04FF00109D94576
:1058E00002DDA9EB0B0000E0002000EB0B014144BE
:1058F0000890AAEB010AE00306D4DDE90F23214654
:10590000504600F063F806444FF0000908E009A98A
:1059100011F80900DDE90F12904709F10109761C21
:10592000C145F4DBE0030CD5DDE90F2321465046E9
:1059300000F04CF8064404E0DDE90F1230209047F7
:10594000761C0899481E08900029F5DC08E00A98A2
:105950000A990078491C0A91DDE90F129047761CDC
:10596000BBF10001ABF1010BF1DC21465046DDE952
:105970000F2300F019F806446D1C1BE609280100EE
:1059800030313233343536373839616263646566B5
:105990000000000030313233343536373839414277
:1059A00043444546000000002DE9F041044600252F
:1059B0001E461746880404D405E039462020B04727
:1059C0006D1C641EF9D52846BDE8F0812DE9F04133
:1059D000044600251E469046C80301D5302700E046
:1059E0002027880404D505E041463846B0476D1CA1
:1059F000641EF9D52846BDE8F0810A68531C0B6087
:105A0000107070470000000001020304010203044B
:105A100006070809424D48640000000000004600E7
:105A2000000038000000A00000005000000001004D
:105A300010000300000002640000120B0000120BB3
:105A40000000000000000000000000F80000E00777
:105A500000001F0000000000000000000000000027
:105A60000000000000000000000000000000000036
:105A70000000000000000000000000000000000026
:105A80000000000000000000000000000000000016
:105A90000000000000000000000000000000000006
:1069C00000000000000008422D6B2D6B2D6B242170
:1069D00000000000000000000000000000000000B7
:1069E00000000000000000000000000000000000A7
:1069F0000000000000000000000000000000000097
