:020000040800F2
:10000000480B0024AD020008E9560008F943000837
:10001000E1560008C10300086976000800000000EE
:10002000000000000000000000000000E97200086D
:10003000C903000800000000F1560008F172000832
:10004000C7020008C7020008C7020008C70200086C
:10005000C7020008C7020008C7020008C70200085C
:10006000C7020008C7020008C7020008C70200084C
:10007000C7020008C7020008C7020008C70200083C
:10008000C7020008C7020008C7020008C70200082C
:10009000C7020008C7020008C7020008C70200081C
:1000A000C7020008C7020008C7020008C70200080C
:1000B000C7020008C7020008C7020008C7020008FC
:1000C000C7020008C7020008C7020008C7020008EC
:1000D000C7020008C7020008C7020008C7020008DC
:1000E000C7020008C702000800000000C70200089D
:1000F000C7020008C7020008C7020008C7020008BC
:10010000C7020008C7020008C7020008C7020008AB
:10011000C7020008C7020008C7020008C70200089B
:10012000C7020008C7020008C7020008C70200088B
:10013000C7020008C7020008C7020008C70200087B
:1001400000000000000000000000000000000000AF
:10015000C7020008C7020008C7020008C70200085B
:10016000C7020008C7020008C7020008C70200084B
:10017000C7020008C7020008C7020008C70200083B
:10018000C7020008C7020008C7020008C70200082B
:10019000C7020008C7020008C7020008C70200081B
:1001A000C7020008C7020008C7020008C70200080B
:1001B000C7020008C7020008C7020008C7020008FB
:1001C000C7020008C7020008C7020008C7020008EB
:1001D000C7020008C7020008C7020008C7020008DB
:1001E000C7020008C7020008C7020008C7020008CB
:1001F000C7020008C7020008C7020008C7020008BB
:10020000C7020008C7020008C7020008C7020008AA
:10021000C7020008C7020008C7020008C70200089A
:10022000C7020008C7020008C7020008000000005B
:10023000C7020008C702000800000000C70200084B
:10024000C7020008C7020008C7020008C70200086A
:10025000C7020008C7020008C7020008C70200085A
:10026000C7020008C7020008C7020008C70200084A
:10027000C7020008C7020008C7020008000000000B
:10028000C7020008C7020008C702000800000000FB
:1002900000000000C7020008DFF80CD000F05CF896
:1002A0000048004721780008480B00240648804792
:1002B00006480047FEE7FEE7FEE7FEE7FEE7FEE74B
:1002C000FEE7FEE7FEE7FEE79174000899020008EA
:1002D000D2B201E000F8012B491EFBD27047002288
:1002E000F6E710B513460A4604461946FFF7F0FF35
:1002F000204610BD2DE9F05F0546002092469B4642
:1003000088460646814640241BE02846414647462B
:10031000224600F042F853465A46C01A914110D383
:1003200011461846224600F029F82D1A67EB0108FD
:100330004F4622460120002100F020F817EB00096B
:100340004E41201EA4F10104DFDC484631462A4616
:100350004346BDE8F09F0000064C074D06E0E0680C
:1003600040F0010394E8070098471034AC42F6D3FC
:10037000FFF796FF34EE000854EE0008202A04DB55
:10038000203A00FA02F1002070479140C2F12003A8
:1003900020FA03F3194390407047202A04DB203AE7
:1003A00021FA02F00021704721FA02F3D040C2F195
:1003B00020029140084319467047000000000000E9
:1003C000FEE7000000000000704700000000000091
:1003D00010B541F200040821C5F6020401222046AE
:1003E00000F022F940F2F31000F00EF8082100228C
:1003F000204600F019F940F2F310BDE8104000F07B
:1004000003B8000000000000B0B5044600F024F975
:1004100040F200010546C2F20041621C097818BF93
:100420000C4400BF00F018F9401BA042FAD3B0BD45
:100430002DE9F04F85B00D680290002D00F0E680A8
:1004400002988E4600F126420A2102F1FF7342F221
:100450000042C5F60202002490424FEAB32208BFD0
:100460000921092A4FF0010738BF4FEAB3210026BE
:100470004FF000080091CDF80CE00DE0DEF80050E0
:1004800008F1010835FA07F006F1020607F1010745
:1004900004F1040400F0BA80A7F1010A012000FA77
:1004A0000AF315EA0309E9D0DEF804B00BF00305FE
:1004B0006A1E012A22D802984FEA4801D0F808C0E3
:1004C0000191032101FA06F203992CEA020CD1F8FA
:1004D0000CE00EFA06F1DDF80CE041EA0C01816057
:1004E00041686FEA020CCBF300129943034601986E
:1004F00002FA0AF2114359600CE000BF0320032DF9
:1005000000FA06F0029B6FEA000C304602D130463A
:10051000032526E0D968DEF8082001EA0C018240B4
:10052000022D41EA0201D9601BD102466FF003009F
:1005300000EA5A010F20194404F01C0300FA03F5E5
:100540001046D1F820E0039A2EEA0505DDF80CE00C
:1005500012699A40029B2A430A62DEF804B00BF04B
:100560000305196805FA00F001EA0C011BF4403F8D
:1005700040EA010018603FF481AF44F2F44140F2D8
:100580000845C5F60201C5F600050F23086840F0CE
:1005900002000860086800F0020004902AF00300DE
:1005A000049904F00C0142598B409A43009B03FAD2
:1005B00001F1114341514FF0B0452868DEF80410B5
:1005C00040EA0902CB0258BF20EA09028B022A60E6
:1005D00040F20405C5F60005286840EA090258BF44
:1005E00020EA09028B032A60D5F8800040EA09025C
:1005F00058BF20EA0902C903C5F88020E86F40EA25
:10060000090258BF20EA0902EA6737E705B0BDE8EA
:10061000F08F0000000000000069084018BF0120B2
:100620007047000000000000002A08BF0904816133
:10063000704700000000000041F20000C5F60040D5
:1006400000686FF31F30704741F20000C5F60040AC
:100650000068000C7047000040F24470C2F2004095
:10066000006870470000000040F2000040F2447152
:10067000C2F20040C2F2004100780A6810440860EB
:10068000704700000000000080B5032000F0E8F88B
:1006900001F062FC44F2184147F65473C5F60201BA
:1006A000C0F600030A68C2F30322096801F00F01D3
:1006B0009A5C595C02F01F02D04040F20C02C2F278
:1006C000004201F01F0120FA01F1116040F208011F
:1006D000C2F200410860002000F00AF800281CBFA8
:1006E000012080BD00F07CF8002080BD00000000EB
:1006F00070B540F20006C2F200463178E1B104461E
:1007000040F20800C2F200404FF47A72B2FBF1F1FD
:100710000068B0FBF1F003F05FFA0F2C4FF0010519
:1007200008D838B94FF0FF3000222146002500F0EC
:1007300067F87460284670BD012070BD000000009D
:10074000B0B502784EF69C5CCEF2000C43784CF8C3
:10075000043CF2B14368CCF80030037BC17A90F8D6
:100760000AE0457B447A42EA0372837B42EA0161F4
:10077000C27B41EACE41007A41EA854141EA4341E8
:1007800041EA024141EA042141EA4000CCF8040078
:10079000B0BD0020CCF80000CCF80400B0BD0000D3
:1007A0004EF62450CEF20000BFF35F8F016821F4B3
:1007B00080310160002101677047000000000000E7
:1007C0004EF6245140F00100CEF20001086708689F
:1007D00040F480300860BFF34F8FBFF36F8F7047D6
:1007E00081B044F2F440C5F60200016841F0020114
:1007F0000160006800F002000090009801B07047AE
:1008000070B54EF60C5C4FF0FF36CEF2000C00F1E6
:100810006045DCF80030C3F3022E8EF00703042B92
:1008200028BF0423BEF1030406FA03F321EA0301FF
:1008300000F00F0338BF0024043BB0F1FF3F6344D6
:1008400006FA04F003F10C0301FA04F1C8BF05F540
:10085000644322EA000008430001187070BD0000E4
:100860004EF60C514FF6FF03CEF200010A681A4013
:1008700060F30A2242F0806040F0FD70086070472B
:10088000B0B544F60C05C5F6020529684907296884
:1008900005D401F00701081A18BF0120B0BD21F0EE
:1008A000070108432860FFF7D7FE044655F8080CF7
:1008B000800407D4FFF7D0FE001BB0F57A7FF5D98E
:1008C0000120B0BD0020B0BD44F60000C5F6020016
:1008D000016841F480710160704700000000000071
:1008E00080B544F2304EC5F6020E5EF8083C5EF864
:1008F000082CC2F3051C5EF8042CDEF8041002F08C
:100900000102BCF1000FC1F3CC0102FB01F100EECA
:10091000101AB8EE400A0DD003F00303022B0ED0DC
:10092000012B0FD01BB95EF8301C89060DD49FED4A
:10093000351A18E00021C0E90011816080BD9FEDEB
:10094000301A10E09FED2D1A0DE05EF8301C49F2D0
:100950000002C0F2D032C1F3C10122FA01F101EE6E
:10096000101AB8EE411A02EE10CA9FED274AB8EEEF
:10097000422ADEF800106FF35F2103EE101A81EEB9
:10098000021AB8EE433ADEF8001000EE043AB7EE71
:10099000000AC1F3462133EE002A03EE101AB8EE26
:1009A000433A21EE021A33EE002A81EE022ABCEE0F
:1009B000C22A80ED002ADEF80010C1F3064102EEE3
:1009C000101AB8EE422A32EE002A81EE022ABCEE5C
:1009D000C22A80ED012ADEF80010C1F3066102EEA2
:1009E000101AB8EE422A32EE000A81EE000ABCEE7E
:1009F000C00A10EE101A816080BD00BF0024744A46
:100A000020BCBE4B0024744C0000003900000000E4
:100A100080B544F2384EC5F6020E5EF8103C5EF822
:100A2000102CC2F3053C5EF80C2CBCF1000FC2F395
:100A30000012DEF80410C1F3CC0102FB01F100EE5C
:100A4000101AB8EE400A0BD003F00303022B0CD0AF
:100A500073B95EF8381C89060DD49FED351A18E07D
:100A60000021C0E90011816080BD9FED301A10E0C7
:100A70009FED2D1A0DE05EF8381C49F20002C0F21D
:100A8000D032C1F3C10122FA01F101EE101AB8EE21
:100A9000411A02EE10CA9FED274AB8EE422ADEF84C
:100AA00000106FF35F2103EE101A81EE021AB8EE08
:100AB000433ADEF8001000EE043AB7EE000AC1F344
:100AC000462133EE002A03EE101AB8EE433A21EE27
:100AD000021A33EE002A81EE022ABCEEC22A80ED11
:100AE000002ADEF80010C1F3064102EE101AB8EE3B
:100AF000422A32EE002A81EE022ABCEEC22A80EDA2
:100B0000012ADEF80010C1F3066102EE101AB8EEF9
:100B1000422A32EE000A81EE000ABCEEC00A10EE54
:100B2000101A816080BD00BF0024744A20BCBE4BF7
:100B30000024744C0000003980B544F2404EC5F6E4
:100B4000020E5EF8183C5EF8182CC2F3055C5EF8E5
:100B5000142CBCF1000FC2F30022DEF80410C1F324
:100B6000CC0102FB01F100EE101AB8EE400A0BD0E6
:100B700003F00303022B0CD073B95EF8401C890606
:100B80000DD49FED351A18E00021C0E900118160F5
:100B900080BD9FED301A10E09FED2D1A0DE05EF83C
:100BA000401C49F20002C0F2D032C1F3C10122FA66
:100BB00001F101EE101AB8EE411A02EE10CA9FEDD3
:100BC000274AB8EE422ADEF800106FF35F2103EEE9
:100BD000101A81EE021AB8EE433ADEF8001000EE69
:100BE000043AB7EE000AC1F3462133EE002A03EEC1
:100BF000101AB8EE433A21EE021A33EE002A81EEC3
:100C0000022ABCEEC22A80ED002ADEF80010C1F3F1
:100C1000064102EE101AB8EE422A32EE002A81EEA8
:100C2000022ABCEEC22A80ED012ADEF80010C1F3D0
:100C3000066102EE101AB8EE422A32EE000A81EE88
:100C4000000ABCEEC00A10EE101A816080BD00BF21
:100C50000024744A20BCBE4B0024744C00000039B0
:100C600010B584B0024641F6FF7300209B1A70EB6A
:100C700001032EDB40F2FF339B1A70EB010354DAC1
:100C800082F480630B4300F0CD8082F400630B4359
:100C900000F0E08082F48052114340F0448144F23D
:100CA0000041C5F60201086DC0F30232042A00F2C9
:100CB000058248F20000C0F2BB00DFE812F0050038
:100CC00036013B01340140010868800140F1F681A2
:100CD00003E147F6FF739B1A70EB010348DA82F4D5
:100CE00000430B4300F0CE8082F480330B4300F0CE
:100CF000DB8082F40022114340F0158144F2004071
:100D0000C5F60200816D01F44031B1F5003F00F0FD
:100D1000EA80B1F5803F00F0F480002940F0CE81F8
:100D20000068000100F17081C8E182F480730B4318
:100D300048D082F40072114340F0F58044F2004143
:100D4000C5F60201086DC0F38212042A00F2B681D2
:100D500048F20000C0F2BB00DFE812F0050003011A
:100D60000801E5000D010868800140F1A781B4E0A9
:100D700082F400530B433FD082F48042114340F091
:100D8000D28044F20044C5F60204A06DC0F30270A4
:100D9000052800F29381DFE810F006006301670187
:100DA0006B017001720101F07FF8216A47F65472FD
:100DB000C0F60002C1F30211515C01F01F01C840EE
:100DC00004B010BD44F20041C5F60201086D00F008
:100DD0000702042A00F2728148F20000C0F2BB0050
:100DE000DFE812F00500DB00E000A100E500086884
:100DF000800140F1638170E044F20040C5F60200DA
:100E0000016DC1F30241052900F25881DFE811F0BC
:100E1000060041014A01530159014A0001F06CF8F2
:100E200004B010BD44F20041C5F60201886DC0F364
:100E30004252042A00F2428148F20000C0F2BB0094
:100E4000DFE802F003C7CB71CF000868800140F1F2
:100E5000358142E044F20041C5F60201886DC0F3DD
:100E60000262042A00F22A8148F20000C0F2BB00AC
:100E7000DFE802F003C7D059D9000868800140F1CB
:100E80001D812AE044F20040C5F60200016D01F028
:100E90004051B1F1005F3ED0B1F1805F19D000291F
:100EA00040F00C810068EBE044F20040C5F602001F
:100EB000C16C0068C90303D4800140F1FF800CE0DD
:100EC000000140F1FB8001A8FFF7A2FD039804B0E8
:100ED00010BD0068800140F1F18001A8FFF700FD1E
:100EE000029804B010BDC16C036811F04051026853
:100EF00040F0F18013F0040300F0ED80C2F3C10074
:100F0000F8E00068800040F1D98001A8FFF714FEE6
:100F1000039804B010BD0068000140F1CF8001A823
:100F2000FFF776FD029804B010BD0868000140F19B
:100F3000C58069E00868800040F1C0806DE0C86C41
:100F40000B6810F04052086803D113F0040340F01E
:100F5000CF80B2F1805F75D110F4807040F0C18015
:100F600070E00868000140F1A9804DE00868800049
:100F700040F1A48051E0C86C0B6810F04052086842
:100F800003D113F0040340F0B380B2F1805F59D174
:100F900010F4807040F0A58054E00868000140F132
:100FA0008D8031E00868800040F1888035E0C86CB1
:100FB0000B6810F04052086803D113F0040340F0AE
:100FC0009780B2F1805F3DD110F4807040F089804D
:100FD00038E00868000171D516E0086880006DD51A
:100FE0001BE0C86C0B6810F04052086802D113F087
:100FF00004037DD1B2F1805F24D110F4807070D1F0
:1010000020E00868000159D501A8FFF701FD01980B
:1010100004B010BD0868800050D501A8FFF78CFD12
:10102000019804B010BDC86C0B6810F040520868FD
:1010300002D113F004035BD1B2F1805F02D110F44E
:1010400080704ED1086810F400301CBF47F6400095
:10105000C0F27D10B2F1005F18BF002004B010BDD7
:10106000206800012AD517E02068800026D51CE002
:101070002068400722D520683AE0206822E02068F6
:1010800047F640018003C0F27D1101EAE07004B030
:1010900010BD0068000111D501A8FFF7B9FC029846
:1010A00004B010BD0068800008D501A8FFF744FD1A
:1010B000029804B010BD0168490718D4002004B09C
:1010C00010BD006840F60011C005C0F23D0101EA04
:1010D000E07004B010BDB1F1805F13D112F48072E2
:1010E00010D040F60010C0F23D0004B010BD006802
:1010F000C0F3C10049F20001C0F2D03121FA00F082
:1011000004B010BD006810F400301CBF47F640006A
:10111000C0F27D10B1F1005F18BF002004B010BD17
:101120002DE9F0470446C07844F22C480007C5F684
:10113000020830D5A06E4FEA305103290AD8DFE803
:1011400001F0020E1A23D8F8001041F40031C8F85B
:10115000001019E001266078C0070AD01FE004F1F2
:101160000800022104F0C8FA064660B16078C007A2
:1011700015D1354645E004F12800022104F04CFB6E
:1011800006460028F2D1A06ED8F8241021F44011B0
:101190000843C8F8240000266078C007E9D0A06D95
:1011A00004280DD83546DFE800F00311171D1D0097
:1011B000D8F80000354640F40030C8F8000011E0CF
:1011C00001250127607880071FD450E004F1080052
:1011D000002104F091FA04E004F12800002104F059
:1011E0001BFB05462F461DB1607880070DD43EE0FD
:1011F000D8F82400A16D20F0070000250843C8F8A6
:10120000240037466078800731D5E06D4FEAB01092
:1012100004280BD8DFE800F00310161C1C00D8F8D7
:10122000000040F40030C8F8000011E0012501265C
:10123000607840071FD453E004F10800002104F057
:101240005BFA04E004F12800002104F0E5FA054609
:101250002E461DB1607840070DD441E0D8F8240037
:10126000E16D20F4E07000250843C8F824003E46F4
:101270006078400734D5D4F8A8004FEA70500428AD
:101280000BD8DFE800F00311171D1D00D8F800008F
:1012900040F40030C8F8000012E001254FF00109C9
:1012A0006078000720D453E004F10800002104F026
:1012B00023FA04E004F12800002104F0ADFA054609
:1012C000A9461DB1607800070ED441E0D8F82C0083
:1012D000D4F8A81020F4600000250843C8F82C00BA
:1012E000B1466078000733D5D4F8AC004FEA3060DF
:1012F00004280BD8DFE800F00310161C1C00D8F8F7
:10130000000040F40030C8F8000011E0012501277A
:10131000E078800720D44CE004F10800002104F0BC
:10132000EBF904E004F12800002104F075FA054609
:101330002F461DB1E07880070ED43AE0D8F82C0093
:10134000D4F8AC1020F0E06000250843C8F82C0069
:101350004F46E07880072CD5E06C4FEA3010032828
:101360000CD8DFE800F008021108D8F8000040F4BB
:101370000030C8F800002E4675B911E0012501269D
:101380006078C00619D44AE004F10800022104F094
:10139000B3F905462E461DB16078C0060DD43EE077
:1013A000D8F82000E16C20F0300000250843C8F890
:1013B00020003E466078C00631D5206E4FEA3030BE
:1013C00004280BD8DFE800F00310161C1C00D8F826
:1013D000000040F40030C8F8000011E001250127AA
:1013E000607880061FD44FE004F10800002104F06B
:1013F00083F904E004F12800002104F00DFA054609
:101400002F461DB1607880060DD43DE0D8F8240049
:10141000216E20F4E04000250843C8F82400374638
:101420006078800630D5606E4FEA3040052807D8D6
:10143000DFE800F0030C180303032E4675B91AE029
:10144000012501266078400622D454E004F108000A
:10145000012104F051F905462E4665B16078400639
:1014600016D448E004F12800012104F0D5F905461E
:10147000002D2E46F2D1D8F82400616E20F4E02031
:1014800000250843C8F824003E466078400632D55F
:10149000D4F8B0004FEA3070052807D8DFE800F034
:1014A000030C180303032F4675B91AE00125012721
:1014B0006078000623D444E004F10800012104F020
:1014C0001BF905462F4665B16078000617D438E051
:1014D00004F12800012104F09FF90546002D2F4654
:1014E000F2D1D8F82C00D4F8B01020F0E04000255C
:1014F0000843C8F82C0037466078000621D5206FD5
:1015000058B1B0F1005F0BD0B0F1805F2DD1D8F8A9
:10151000000040F40030C8F800002E4695B907E0FE
:1015200004F10800012104F0E7F805462E464DB904
:10153000D8F82400216F20F0405000250843C8F857
:1015400024003E46E078C00731D0A06C032812D8B2
:10155000DFE800F008021808D8F8000040F4003076
:10156000C8F80000A946ADB918E001250126E078C9
:10157000C007EAD11BE001254FF00109A078400621
:1015800019D51AE004F10800022104F0B5F8054667
:10159000A9461DB1A07840060DD50EE0D8F8200070
:1015A000A16C20F0030000250843C8F82000B146D4
:1015B000A078400601D44F4616E0D8F8D40340F492
:1015C0008070C8F8D403FFF747F80646D8F8D4036C
:1015D000C00507D4FFF740F8801B6428F6D903251F
:1015E000032701E02F4685B12078C00761D0E06F66
:1015F0004FEAF000052838D8DFE800F0033D490342
:101600000303002D2E463ED14AE0D8F84410D4F80A
:10161000B400414011F4407F11D0D8F84410D8F8FC
:10162000442042F48032C8F84420D8F8442021F401
:10163000407122F48032C8F84420C8F84410B0F554
:10164000807F40F0E482FFF707F8064641F2883ACF
:1016500003250327D8F84400800700F1D682FEF75F
:10166000FBFF801B5045F5D9BEE7012601252078F8
:10167000800722D450E004F10800012104F03CF876
:1016800005462E4665B12078800716D444E004F163
:101690002800012104F0C0F80546002D2E46F2D1A5
:1016A000D8F82800E16F20F0380000250843C8F87A
:1016B00028003E46207880072ED5A06F052807D841
:1016C000DFE800F0030C180303032F4675B91AE096
:1016D000012701252078400722D452E004F10800B8
:1016E000012104F009F805462F4665B1207840072E
:1016F00016D446E004F12800012104F08DF80546D7
:10170000002D2F46F2D1D8F82800A16F20F0070055
:1017100000250843C8F8280037462078400730D510
:10172000D4F89400052807D8DFE800F0030C18036C
:1017300003032E4675B91AE001260125207880069C
:1017400023D455E004F10800012103F0D5FF05463C
:101750002E4665B12078800617D449E004F12800B0
:10176000012104F059F80546002D2E46F2D1D8F893
:101770002C00D4F8941020F0070000250843C8F886
:101780002C003E462078800632D5D4F890004FEAEF
:101790003070052807D8DFE800F0030C18030303B6
:1017A0002F4675B91AE0012701252078400623D479
:1017B00055E004F10800002103F09EFF05462F4686
:1017C00065B12078400617D449E004F128000221D1
:1017D00004F022F80546002D2F46F2D1D8F8280053
:1017E000D4F8901020F0E04000250843C8F8280005
:1017F00037462078400632D5D4F89C004FEAB02016
:10180000052807D8DFE800F0030C180303032E4671
:1018100075B91AE0012601252078000623D45AE084
:1018200004F10800002103F067FF05462E4665B16C
:101830002078000617D44EE004F12800022103F0BE
:10184000EBFF0546002D2E46F2D1D8F82C00D4F837
:101850009C1020F4E05000250843C8F82C003E46B8
:101860002078000637D5D4F8A0004FEA703005285C
:101870000ED8DFE800F003131D0303032F4605B362
:10188000206801072BD4C10642D4000359D479E063
:101890000127012520680107F5D520E004F10800A3
:1018A000002103F029FF0546002D2F46E8D108E06E
:1018B00004F12800022103F0AFFF0546002D2F465A
:1018C000DED1D8F82C00D4F8A01020F46040002518
:1018D0000843C8F82C00374620680107D3D5D4F850
:1018E0008410B1F5805F0AD104F12800022103F0D1
:1018F00093FF002818BF01272068D4F88410D8F877
:10190000282022F440521143C8F82810C106BCD543
:10191000D4F89810B1F5807F0AD104F12800022193
:1019200003F07AFF002818BF01272068D4F8981028
:10193000D8F82C2022F440721143C8F82C10000370
:1019400020D5D4F8A400B0F5003F0FD0B0F5803F0B
:1019500006D078BB04F10800002103F0CDFE04E0BE
:1019600004F12800022103F057FF05462E4655B921
:10197000D8F82C00D4F8A41020F4403000250843F7
:10198000C8F82C003E46A07840072BD5D4F8880034
:10199000B0F5401F0BD0B0F5001F11D0B0F5801F7F
:1019A00029D1D8F8000040F40030C8F800002F46D4
:1019B000CDB90DE001260125A0784007E6D411E05D
:1019C00004F12800012103F027FF05462F4655B9F1
:1019D000D8F82800D4F8881020F4401000250843D7
:1019E000C8F828003746A078C00709D13E462168CC
:1019F000880015D530E001270125A078C007F5D073
:101A0000206DB0F5803F0FD008BBD8F8000040F43F
:101A10000030C8F800002E467DB1216888001BD434
:101A200060688A0324D468E004F10800022103F00E
:101A300063FE0546002D2E46EFD1D8F82000216D1B
:101A400020F4803000250843C8F82000CEE70126A6
:101A5000012521688800E3D504F12800022103F064
:101A6000DBFE002818BF0126D4E900108A0344D504
:101A7000D4F880206FF0010303EB3223022B0BD349
:101A80004FEA322343B1012B40F0BA80D8F800303E
:101A900043F40033C8F8003045B3CA0230D4CA005A
:101AA00038D48A0241D44A0049D4B1F1FF3F56DD0F
:101AB00009025ED4C10767D1810770D441077AD487
:101AC000010700F18480C10600F18D80800607D5F2
:101AD00004F12800022103F09FFE002818BF012511
:101AE000002D18BF01252846BDE8F087D8F828301A
:101AF00023F440731A43C8F828203546CA02CED5CD
:101B0000D8F82420636F22F000421A43C8F824203A
:101B1000CA00C6D558F81C2CD4F8B83022F480423C
:101B20001A4348F81C2C8A02BDD5D8F82420E36E4D
:101B300022F080721A43C8F824204A00B5D558F81C
:101B40001C2C22F4004248F81C2CD4F8BC2058F875
:101B50001C3C1A4348F81C2CB1F1FF3FA8DCD8F814
:101B60002020636D22F040521A43C8F82020090259
:101B7000A0D5D8F82810D4F88C2021F440011143C6
:101B8000C8F82810C10797D004F10800002103F01D
:101B9000B3FD002818BF0546606881078ED504F1A3
:101BA0000800012103F0A8FD002818BF0546606861
:101BB00041077FF585AF04F10800022103F09CFD89
:101BC000002818BF0546606801077FF57CAF04F167
:101BD0002800002103F020FE002818BF0546606899
:101BE000C1067FF573AF04F12800012103F014FE54
:101BF000002818BF0546606880067FF571AF67E76B
:101C00000125CA027FF54BAF7AE7D4F8B4004FF64E
:101C1000CF7358F81C2CC0F2FF0300F4407122F47B
:101C20007C5203EA1013B1F5407F4FF0000508BF66
:101C30001A436FF31F3048F81C2CD8F8441008439F
:101C4000C8F84400FFF7B7BC2DE9F04381B0002885
:101C500000F0268142F200080446C5F200288946B9
:101C6000D8F8000000F00F0088420ED2D8F800002B
:101C700020F00F0040EA0900C8F80000D8F8000082
:101C800000F00F00484540F00B81206844F21847EF
:101C90004107C5F602070AD521693A6802F07002C9
:101CA000914204D93A6822F0700211433960010769
:101CB0000AD561697A6802F07002914204D97A68A3
:101CC00022F0700211437960C1060AD5A1697A68D1
:101CD00002F4E062914204D97A6822F4E06211438E
:101CE000796081060AD5E169BA6802F07002914212
:101CF00004D9BA6822F070021143B96010F00201F1
:101D00000AD0E2683B6803F00F039A4204D93B68AB
:101D100023F00F031A433A60C20743D0386820F417
:101D20007061D4E90102032841EA0201396007D059
:101D300002280BD157F8181C890340F1B18010E03C
:101D400057F8181C890140F1AB800AE0012857F8C8
:101D5000181C03D1C90540F1A38002E0490740F1F6
:101D60009F8057F8081C21F00701084347F8080C2A
:101D7000FEF772FC064641F2883500BF57F8080CA2
:101D8000616800F03800B0EBC10F08D0FEF764FCCA
:101D9000801BA842F2D9032001B0BDE8F08320687F
:101DA00000F0020151B1E1683A6802F00F0291427D
:101DB00004D23A6822F00F0211433960D8F80010BB
:101DC00001F00F0149450DD9D8F8001021F00F019D
:101DD00041EA0901C8F80010D8F8001001F00F011D
:101DE00049455DD141070AD521693A6802F0700280
:101DF000914204D23A6822F070021143396001071F
:101E00000AD561697A6802F07002914204D27A6858
:101E100022F0700211437960C1060AD5A1697A687F
:101E200002F4E062914204D27A6822F4E062114343
:101E3000796080060AD5E069B96801F070018842CE
:101E400004D2B96821F070010843B86000F084F84A
:101E5000396847F65473C0F60003C1F303213A68AA
:101E600002F00F02595C9A5C01F01F0120FA01F1A7
:101E700002F01F0040F20C0221FA00F0C2F2004210
:101E8000106040F2040040F20802C2F20040C2F2C8
:101E900000420068116001B0BDE8F043FEF728BCC5
:101EA000012001B0BDE8F08380B500F055F844F2A0
:101EB000184147F65473C5F60201C0F600030A68DC
:101EC000C2F30322096801F00F019A5C595C02F029
:101ED0001F0220FA02F201F01F0040F20C0122FA68
:101EE00000F0C2F20041086040F20801C2F2004175
:101EF0000A6080BD0000000080B500F02DF844F2BB
:101F0000184C47F65471C5F6020CC0F60001DCF817
:101F10000020C2F30322DCF8003003F00F038A5CD8
:101F2000CB5C02F01F02D04003F01F0240F20C0312
:101F300020FA02F2C2F200431A6040F20803C2F231
:101F400000431860DCF80400C0F30210085C00F0E5
:101F50001F0022FA00F080BD44F20041C5F60201E4
:101F60000869C0F3C20003280FD002282BD078BB29
:101F70000868800649F20000C0F2D03058BF7047B0
:101F80000968C1F3C101C84070478A6A886AC0F312
:101F9000051CCB6A486B03F00103BCF1000FC0F3D2
:101FA000CC0003FB00F000EE100AB8EE400A14D09B
:101FB00002F00302022A12D0A2B90868800614D4E3
:101FC0009FED251A1EE047F64000C0F27D107047D5
:101FD00040F60010C0F23D007047002070479FEDB2
:101FE0001D1A0FE09FED1A1A0CE0086849F2000272
:101FF000C0F2D032C0F3C10022FA00F001EE100AA4
:10200000B8EE411A02EE10CA9FED144AB8EE422A09
:10201000086B6FF35F2003EE100A81EE021AB8EE30
:10202000433A086B00EE043AB7EE000AC0F34620CC
:10203000013033EE000A21EE000A01EE100AB8EE7C
:10204000411A80EE010ABCEEC00A10EE100A704779
:102050000024744A20BCBE4B0024744C000000399C
:10206000F0B581B0002800F057810446007844F2B2
:102070000046C007C5F6020621D12078800740F14E
:10208000B280306910F03801B06A3CD0182908BF1E
:102090005FEA807037D0E068316800285CD021F0BA
:1020A000190108433060FEF7D7FA0546306840074B
:1020B00043D4FEF7D1FA401B0228F7D969E1306911
:1020C00000F03801B06A102905D018290AD100F0B3
:1020D0000300022806D130688003CED5606800284E
:1020E000CBD119E16068002847D0B0F5803F06D019
:1020F000B0F5A02F30685ED140F4802030603068A9
:1021000040F480305DE030684007E06802D5002888
:1021100000F00281316821F0190108433060FEF7B8
:102120009BFA05463068400707D4FEF795FA401B36
:1021300002284FF00300F5D915E2FEF785FA41F2C7
:102140000301884230D820697168402821F47C312D
:1021500046D141F4003045E021F001003060FEF747
:102160007BFA0546306840073DD5FEF775FA401BFF
:1021700002284FF00300F5D9F5E1306820F48030F3
:102180003060306820F480203060FEF765FA054644
:10219000306880037FF571AFFEF75EFA401B64285C
:1021A0004FF00300F4D9DEE17068216920F0FE40B1
:1021B00040EA016016E020F480303060306820F49E
:1021C00080203060FEF748FA054600BF3068800383
:1021D0003FF553AFFEF740FA401B6428F6D9D8E02C
:1021E00041EA003070602078C00653D5306900F0B5
:1021F0003801B06A082905D0182919D100F0030068
:10220000012815D13068C00503D5E069802840F069
:102210008380FEF719FA41F2030188421DD8206A33
:102220007168202821F0F84131D141F0804030E040
:10223000E0690028306818D040F080003060FEF778
:102240000BFA05463068C005E3D4FEF705FA401BDB
:1022500002284FF00300F5D985E1F068216A20F0EB
:102260007C5040EA0160F06014E020F080003060B3
:10227000FEF7F2F9054600BF3068C0050AD5FEF743
:10228000EBF9401B02284FF00300F5D96BE141EA5E
:10229000806070602078000741D42078800652D496
:1022A0002078400763D4656A9DB3306900F0380038
:1022B000182840F0A580012DB16A306B2CD001F0B8
:1022C0000302A36A9A4227D1C1F30511E26A91423F
:1022D00022D10146226B6FF35F21013A91421BD15B
:1022E000C0F34621626B013A914215D1C0F3064119
:1022F000A26B013A91420FD1C0F30660E16B013944
:10230000884209D1706BC0F3CC00A16C814240F0CF
:102310002C81002001B0F0BD012001B0F0BD60694A
:102320000028706F38D040F001007067FEF794F914
:10233000054600BF706F8007AFD4FEF78DF9401BD4
:102340000228F7D925E0A0690028306846D040F47B
:1023500080503060FEF780F9054600BF3068800489
:102360009ED4FEF779F9401B0228F7D911E0D6F880
:10237000000440F48070C6F80004FEF76DF90546CD
:10238000D6F80004C00519D4FEF766F9401B64288E
:10239000F6D9032001B0F0BD20F001007067FEF710
:1023A0005BF90546706F80077FF577AFFEF754F94C
:1023B000401B02284FF00300F4D9D4E0A0680028A5
:1023C00040D0012806D00528306F40F0B58040F09D
:1023D00004003067306F40F00100B3E020F480501B
:1023E0003060FEF739F90546306880047FF558AF54
:1023F000FEF732F9401B02284FF00300F4D9B2E097
:10240000306820F080703060FEF726F9022D054616
:102410000CD100BF306880012ED5FEF71DF9401B9E
:1024200002284FF00300F5D99DE000BF306880011D
:102430007FF56FAFFEF710F9401B02284FF0030045
:10244000F4D990E0306F20F001003067306F20F059
:1024500004003067FEF700F9054641F2883700BFF7
:10246000306F80077FF51FAFFEF7F6F8401BB842CC
:102470004FF00300F4D976E004F12807B06A40F287
:10248000F33188438ECF0843591E40EA02104FF4BF
:102490007E42B06202EB47206FF35F214FF4FE02F1
:1024A00080B2E36B0844A16B02EB01414FF0FE42A6
:1024B00001F4FE0102EB0362084402F0FE4108440D
:1024C0003063F06A4FF6F87120F00100F062706B33
:1024D000A26C884340EAC2007063F06A216C20F06D
:1024E0000C000843F062F06A616C20F002000843BF
:1024F000F062F06A40F48030F062F06A40F400303C
:10250000F062F06A40F48020F062F06A40F001006E
:10251000F062306840F080703060FEF79DF804464D
:10252000306880013FF5F5AEFEF796F8001B0228F3
:102530004FF00300F4D916E020F001003067306F4F
:1025400020F004003067FEF787F8054641F288372F
:10255000306F80073FF5A7AEFEF77EF8401BB8420C
:102560004FF00300F4D901B0F0BDF06A20F0010093
:10257000F062FEF771F80546FEF76EF8A842FBD050
:10258000706B4FF6F871A26C884340EAC20070632A
:10259000F06A40F00100F062002001B0F0BD0000E0
:1025A000006800EB8100006D704700000000000033
:1025B000006800EB81000265704700000000000029
:1025C000B0B50068002A40684FEA1043CB70C0F3F2
:1025D000042E00F03F0C81F801E081F802C0C0F346
:1025E00042320A7001D00020B0BDC0F3035203F0A4
:1025F0000F034FEA1E1402EB8202050A00F00F00DF
:1026000003EB4202CA7044EA840305F00F054FEA67
:102610001C1405EB43034B7044EA840200EB4200B8
:1026200088700020B0BD0000B0B50068002A836A41
:102630004B6003696FF3DF338B60006800F07F0C41
:10264000C0F305430B70C0F3062E81F801E081F85A
:1026500002C0C0F38052CA7001D00020B0BD1B0977
:10266000020C43EA830302F00F024FEA1E1402EB4E
:1026700043020A7004EB84034FEA1C14050A00F0BD
:102680000F0004EB840205F00F0505EB43034B70CC
:1026900000EB420088700020B0BD00000000000088
:1026A00070B500284FD0044690F8210028B90020CA
:1026B00084F82000204600F05BF8022084F8210016
:1026C0002168C868C0064DD4CA20486253204862B9
:1026D000C86840061BD44FF0FF30C860FDF7BCFF50
:1026E0002168CA68520612D406460025FDF7B4FFD9
:1026F000801BB0F57A7F02D9032584F82150216828
:10270000032DC86802D010F04000EFD0BDB94FF6DD
:10271000BF728868CFF68F72261D104088604DCE3C
:102720003043A66930438E683043886043EA0240F4
:102730000861204603F000F9216838B10546FF2002
:102740004862E8B270BD0125E8B270BDC86C20F0E7
:102750000300C8646069E2691043CA6C1043C8642E
:10276000FF2048620025012084F82100E8B270BDF6
:1027700010B5B0B004466846C021FDF7B0FD44F284
:1027800000012068C5F60001884201D030B010BDBC
:10279000002001904FF4800000904FF480702D9045
:1027A0006846FEF7BDFC08B1FDF712FE44F270402A
:1027B000C5F60200016841F40041016030B010BD6F
:1027C0002DE9F04381B0044690F82000022501284D
:1027D00000F0A0804FF0010084F8200084F8215020
:1027E0003AB14878CA7891F80290000240EA02486B
:1027F0004EE04878C20603D500F0EF000A3048707A
:10280000CA780A2A10D30A3A4CF6CD47D3B2CCF68E
:10281000CC47A3FB0737FB0803EB8307A2EB470278
:10282000102707EB031300E000231A430A28D2B253
:102830004FEA024210D30A384CF6CD47C3B2CCF669
:10284000CC47A3FB0737FB0803EB8307A0EB47004C
:10285000102707EB031300E0002303438878DBB263
:102860000A2842EA032810D30A384CF6CD43C2B2F4
:10287000CCF6CC43A2FB0323DA0802EB8203A0EBE5
:102880004300102303EB021200E0002240EA020999
:1028900022680F78CA20506253205062D0684006E8
:1028A0001ED44FF0FF30D060FDF7D6FE2268D1680D
:1028B000490615D406460025FDF7CEFE801BB0F56F
:1028C0007A7F02D9032584F821502268032DD0682D
:1028D00002D010F04000EFD015B1FF20506216E09A
:1028E0005FFA89F0790340EA080020F0C00008434D
:1028F0005060204603F020F82168054600284FF07C
:10290000FF00486203D10025012084F82100002047
:1029100084F82000E8B201B0BDE8F08300000000B8
:102920002DE9F041044690F820000227012800F02C
:10293000AD80012084F8200084F821700D462168C4
:10294000CA209046486253204862C86840061FD497
:102950004FF0FF30C860FDF77FFE2168CA6852065D
:1029600016D40646002700BFFDF776FE801BB0F5A3
:102970007A7F02D9032784F821702168032FC86861
:1029800002D010F04000EFD017B1FF2048627AE08B
:102990008868B8F1000F00F0400003D0C8B1E878B3
:1029A000800518E008B90020E8702A784CF6CD4080
:1029B000CCF6CC400A2A17D30A3AD3B2A3FB00378D
:1029C000FB0803EB8307A2EB4702102707EB031773
:1029D0000BE00020E8702A786B78AF781B0243EA9E
:1029E00002423A44104330E000276B783A43D2B2B7
:1029F0000A2B4FEA02420CD30A3BDFB2A7FB007658
:102A0000F70807EB8706A3EB4603102606EB07172C
:102A100000E000271F43AB78FFB20A2B42EA0722EF
:102A20000CD30A3BDFB2A7FB0007F80800EB8007D6
:102A3000A3EB4703102707EB001000E0002018432A
:102A4000EB78C0B2104340EA835047F67F72C0F281
:102A50007F0210400860886820F480208860D5E9F3
:102A6000030210438A6810438860204602F064FF26
:102A70002168074600284FF0FF00486203D1002775
:102A8000012084F82100002084F82000F8B2BDE87D
:102A9000F0810000000000002DE9F04184B0044600
:102AA00003200D4684F83000A06B03280FD14FF0AF
:102AB0008050616B40F6FF7808436063606BC1F63D
:102AC000E07858B32068C0F8388001259BE0002DDD
:102AD00050D0B5F5004FEAD0B5F5804F61D1002058
:102AE0000021CDE90200206803F0C6FA80015BD422
:102AF00002A9204603F0E4FA0028DAD19DF80E007E
:102B000040074BD5616C2068090402F05DFF002886
:102B1000CFD12068022102F0CBFFCAE74FF480300A
:102B20000021FEF79DF800B343F689316369C5F2D1
:102B3000E651A268A0FB01166168D4F810C0B3EB9F
:102B4000166F59D2A76DB7F5007F55D0B7F5807FC6
:102B50002DD14FF2800E002BC0F2FA2E42D05F0032
:102B6000B0FBF7F070453FD846E0606B40F0006086
:102B70006063AAE700200021CDE90200206803F08D
:102B80007BFA800110D402A9204603F099FA0028AC
:102B90007FF48FAF9DF80E00C00716D14FF0806014
:102BA00087E74FF0006084E74FF4006081E747F665
:102BB000400E4FEA1666C0F27D1EBBB15F00B0FB4F
:102BC000F7F0704588BF334616E0616C2068090451
:102BD00002F0FAFE00287FF46CAF2068002102F0BA
:102BE00067FF66E7704506D9730E05E0704598BF2C
:102BF0000026334600E000232068CDE900C32B46C1
:102C000003F03EFA002520684FF4007102F03CFF0B
:102C100030B121680125C1F83880616B08436063D9
:102C2000012084F83000284604B0BDE8F08100009F
:102C300080B5D0F838C0D0E9173EBCF1010F4FEA9B
:102C400093720A70C3F383624A70C3F301628A709D
:102C50004FEA1342CA704FEA13220A714B714FEACE
:102C60001E52CA80CEF303420A72CEF3C0324A72B9
:102C7000CEF380328A72CEF34032CA72CEF3003283
:102C80000A734FF000024A7337D0BCF1000F40F0D6
:102C9000888040F6FC72436E02EA8E0242EA93722A
:102CA0000A61426EC2F3C2630B75C2F302634B75D5
:102CB000C2F342538B75C2F38243CB75C2F3C23366
:102CC0000B76D1F810C00B7E0CF1010C03F007035A
:102CD00002330CFA03FCC0F848C00B7A03F00F0E65
:102CE000012303FA0EF3C3644FEA532E0EFB0CF3D9
:102CF00003654FF40073436512E00EF03F02B0F835
:102D0000663043EA02420A610A694FF4806303EBCA
:102D1000822282644FF40073C0E91332426E43652D
:102D2000C2F380334B76C2F3C6138B7602F07F0278
:102D3000CA76806EC20F0A77C0F341724A77C0F339
:102D400082628A77C0F38352CA77C0F3405281F817
:102D50002020002281F82120C0F3004381F8223096
:102D6000C0F3C03381F82330C0F3803381F82430BE
:102D7000C0F3403381F82530C0F3003381F82630AA
:102D8000C0F3812381F82730C0F3012381F8283074
:102D9000C0B2400881F82900012081F82A001046BD
:102DA00080BD016840F6FF72C1F6E0728A630122BD
:102DB000416B41F08051416380F83020104680BD66
:102DC0002DE9F04196B0044690F83000032804D174
:102DD0000125284616B0BDE8F08140F6FF780D4683
:102DE000C1F6E078FDF738FC06462068002103F0C4
:102DF00043F9800123D42068402102F045FED0B978
:102E0000616C2068090402F0DFFDA0B94FF0FF30CB
:102E1000109040201190602012900220139000200A
:102E2000149001201590206810A903F055F820682F
:102E300003F03EF8F8B10146606B606301E04FF4C7
:102E4000006120680125C0F83880626B114361631E
:102E500084F830504FF4007102F016FE0028B8D00C
:102E600021680125C1F83880606384F83050284615
:102E700016B0BDE8F0816F4607E000BFFDF7ECFB40
:102E8000801B4FF000410130DBD02068416B11F412
:102E9000957F416B22D10904F0D503F00DF938601C
:102EA000206803F009F97860206803F005F9B8603C
:102EB000206803F001F9F860206803F0FDF838613C
:102EC000206803F0F9F87861206803F0F5F8B8613C
:102ED000206803F0F1F8F8612037CFE7090750D4F4
:102EE000416B89074FD4416B89064ED4416BC904AD
:102EF0000CD503F0E1F83860FDF7AEFB801B013024
:102F000045D020680437416BC904F2D440F63A71C9
:102F1000C1F600018163DDE9001CCEB2DDE90237B4
:102F2000B2092A70C6F340126FF0FF066A7006EA13
:102F3000112242EA116169809CFA8CF169602B725E
:102F4000190A6972C3F30351A97206EA1341FAB26E
:102F50001144A981C7F38521A973C7F30121E9733E
:102F60001109297407F00F0169749DF81310A974F1
:102F700000254FF4007102F087FD00287FF470AF48
:102F800027E708215DE702215BE7202159E74FF0A1
:102F9000004156E700000000B0B586B068B30446B3
:102FA00090F8300020B900202076204600F084F907
:102FB000042084F83000204600F052F8E8B901A956
:102FC0002046FFF7FDFEC0B99DF814109DF81520AE
:102FD000A06B012805D11143C9B211B14FF40070A3
:102FE00005E0012802D14FF4807000E00020A065C8
:102FF0002046E168FFF750FD10B1012006B0B0BDDA
:10300000FDF72AFB054607E0616B08436063FDF7A7
:1030100023FB401B013017D0616C2068090402F0CB
:10302000C3FE0028F0D12068002103F025F800F449
:10303000F050B0F5006FEAD100206063E06201213A
:1030400084F8301006B0B0BD4FF00040606301203E
:1030500084F83000032006B0B0BD0000000000007E
:10306000F0B58FB004464FF4803000210027FDF703
:10307000F7FDA0B348F659310546000AC0F24F11DA
:10308000A0FB01012068002200230E090021009707
:10309000019602F0F5FF206803F006F843F20050B5
:1030A000C0F20C00854202D37000B5FBF0F542F28D
:1030B0001010C0F20100B0FBF5F00130FDF7A4F9EB
:1030C00000200490206802F007FD88B1012184F8F7
:1030D0003010626B1043606308460FB0F0BD0121F1
:1030E00084F830104FF00060606308460FB0F0BD08
:1030F000206802F029FDB0F1004F0AD10020E06302
:10310000206802F0E9FC0028E0D1E06B012802D041
:1031100009E00120E0632068002102F055FC10B1B5
:103120004FF08050D2E704984FF6FE71884220D8C5
:1031300000254FF6FF76CCF2101500BF2068002165
:1031400002F042FC0028C1D12068294602F050FC60
:10315000A8BB2068002102F08FFF0499002801F12C
:1031600001010491049901D4B142E7D3C0F3807006
:1031700000E0002004994FF6FF72914202D34FF015
:103180008070A3E7A0630020ADF80E00FDF764FA9D
:103190000546206802F06CFFA0B1A06B032814D193
:1031A0002068042102F068FF000D206404A9204675
:1031B000FFF73EFD002859D04FF0805086E74FF0D2
:1031C000805083E74FF0806080E7206802F028FDA0
:1031D00000287FF47BAF2068002102F04DFFE066FD
:1031E0002068042102F048FF20672068082102F0CF
:1031F00043FF606720680C2102F03EFFA16BA067CF
:103200000329CDD00DF10E0641F2873720683146F3
:1032100002F0DEFD00287FF459AFFDF71DFA401BD8
:10322000B84244D8BDF80E100029EFD0A06B032897
:10323000B6D061642068090402F04AFD00287FF4DA
:1032400045AF2068002102F017FFE06520680421E7
:1032500002F012FF20662068082102F00DFF606670
:1032600020680C2102F008FFA06699E7616C2068D5
:10327000090402F0C1FC00287FF428AF20684FF455
:10328000007102F001FC70B1216840F6FF72C1F6D6
:10329000E0728A63616B08430121606384F8301037
:1032A00008460FB0F0BD002108460FB0F0BD4FF04A
:1032B00000400BE7000000002DE9F043B7B00446E2
:1032C00002A8C0210025CDE93555CDE93355329509
:1032D000FDF705F847F200012068C5F20021884299
:1032E00002D037B0BDE8F08303954FF480300290F0
:1032F000052104911E2105914FF00208CDF8188098
:10330000802107910122CDE908212021CDE90A156C
:10331000169002A8FDF704FF08B1FDF759F844F232
:10332000E04040F60004C5F60200C5F6020432ADE6
:103330004FF0000950F80C1C032641F4803140F88E
:103340000C1C50F80C1C0C2701F4803101910199E0
:10335000016841F004010160016801F0040101917C
:103360000199016841F0080101600068294600F0F8
:103370000800019001984FF4F850CDE9320820463A
:10338000CDF8D09035963697FDF752F832A9042043
:1033900081E8010304F580602946CDE93567FDF732
:1033A00047F837B0BDE8F0832DE9F047002857D043
:1033B00043F6000304460068C4F2000343F2000E23
:1033C00043F6004C9842C4F2010EC4F2000C4FF0D8
:1033D0000001A16203D0604518BF70453DD1E16B8B
:1033E0000122E568984202EB511105F108024FEA0B
:1033F000D20202FB01F118BF704525D110292FD848
:1034000094F8811031B9002084F88000204600F043
:103410009FF82068022184F88110016821F00101E1
:1034200001608168D4F81880B8F1806F01F4F81E4B
:10343000D4F804A01FD1BAF1000F14D0BAF5800F50
:1034400019D1A36BFBB912E0604518BF082907D852
:10345000704518BF6045D1D0D2E7E1680F29BED9C9
:103460000120BDE8F087A36BB3F1805F06D103684C
:1034700043F4805303605FEA4A2304D4D4F80C90E9
:103480004FF0010C0FE0D4F80C90B9F1070F08D3FE
:10349000056825F4807C256D45EA0C054FF0000C8D
:1034A00004E04FF0000C056825F480750560BAF162
:1034B000000FE769A26A47EA0E07E36B42EA0702D8
:1034C000A56842EA03022669676942EA0902826046
:1034D0004AEA0803626B616A42EA0302A36B41EAAB
:1034E000020141EA0301226A41EA0601E36C41EA72
:1034F000070141EA0201A26C41EA0301A36D41EA1E
:10350000050141EA020141EA0301C16009D1816874
:10351000012262F3CC2181608168022262F34A2198
:103520008160016DBCF1000F21F00101016505D141
:10353000C168626D21F000411143C1600020C4F8F0
:103540008400012184F88110BDE8F08700000000AC
:10355000B0B5B8B0044602A8C0210025CDE9365563
:10356000CDE934553395FCF7BAFE43F200412068AB
:10357000C4F20101884201D038B0B0BD4FF4005010
:10358000029002A803951B95FDF7CAFD08B1FCF750
:103590001FFF44F2E040C5F60200016941F400510A
:1035A0000161016901F4005101910199016841F043
:1035B000100101600068002100F0100001900198E6
:1035C0004FF4A040339002203490CDE9351005200F
:1035D000379041F2000033A9C5F60200FCF728FF3E
:1035E00038B0B0BD000000002DE9F04381B00446C2
:1035F00090F8800001281BD01D4617460E46D4F8CF
:103600000090012084F88000FDF726F894F88110DE
:1036100001290AD1002E18BF002F0DD1002084F8F7
:103620008000012001B0BDE8F083002084F8800014
:10363000022001B0BDE8F0838046042084F88100B8
:103640000020C4F884006666A4F86870A4F86A7064
:10365000E065A4F86000A4F86200A1682067B1F5F5
:10366000C02F6067206804D1016821F40061016007
:1036700004E0C168022262F35241C16041684FF622
:10368000FF72914339444160016841F001010160DA
:103690006168B1F5800F03D1016841F400710160E8
:1036A000E268102A27D3B4F86A10002900F0988045
:1036B000691C00F0A68048F20806416931420AD030
:1036C000006B616E41F8040B6166B4F86A00013862
:1036D000A4F86A0006E0FCF7BFFFA0EB0800A842D0
:1036E00080F0AD80B4F86A00002879D02068416984
:1036F0003142E5D1EFE7B4F86A10072A38D900293A
:103700006ED0691C1ED04069C00706D1FCF7A4FF2B
:10371000A0EB0800A8420BD391E0B9F83000616E2D
:1037200021F8020B6166B4F86A000138A4F86A0057
:10373000B4F86A00002853D020684069C007E5D07B
:10374000EBE720684069C00702D1FCF785FF0AE07B
:10375000B9F83000616E21F8020B6166B4F86A00B6
:103760000138A4F86A00B4F86A000028E9D137E00B
:10377000B1B3691C1ED04169C90706D1FCF76CFFC3
:10378000A0EB0800A8420CD359E090F83000616E1D
:103790000870606E01306066B4F86A000138A4F801
:1037A0006A00B4F86A00D8B120684169C907E5D059
:1037B000EBE720684169C90702D1FCF74DFF0BE038
:1037C00090F83000616E0870606E01306066B4F889
:1037D0006A000138A4F86A00B4F86A000028E8D149
:1037E000204602F0E1FC002084F88000012084F8EB
:1037F0008100D4F88400002818BF012001B0BDE882
:10380000F08348F20805416929420DD0006B616ED2
:1038100041F8040B6166B4F86A000138A4F86A0044
:10382000B4F86A0030B9DBE7FCF716FFB4F86A00B9
:103830000028D5D0206841692942E7D1F4E7204625
:1038400002F0B2FC002084F88000D4F8840040F438
:103850008070C4F88400012084F88100032001B046
:10386000BDE8F083000000002DE9F04381B004467C
:1038700090F8800001281BD01D4617460E46D4F84C
:103880000090012084F88000FCF7E6FE94F8811097
:1038900001290AD1002E18BF002F0DD1002084F875
:1038A0008000012001B0BDE8F083002084F8800092
:1038B000022001B0BDE8F0838046032084F8810037
:1038C0000020C4F88400E665A4F86070A4F8627073
:1038D0006066A4F86800A4F86A00A1682067B1F5E2
:1038E000C02F6067206804D10168024641F400617E
:1038F00005E00246012352F80C1F63F352411160A8
:103900004FF6FF724168914339444160016841F0CC
:10391000010101606168B1F5800F03D1016841F4D4
:1039200000710160E268102A3AD3B4F862100029ED
:1039300000F01181691C1ED04169890706D4FCF78B
:103940008BFEA0EB0800A8420AD330E1E16D51F8EC
:10395000042B0262E165B4F862000138A4F8620049
:10396000B4F86200002800F0F680206841698907F9
:10397000E5D5EBE720684169890702D4FCF76CFEC6
:1039800009E0E16D51F8042B0262E165B4F86200D0
:103990000138A4F86200B4F862000028EAD1DAE045
:1039A000B4F86210072A5BD9002900F0D480691CA2
:1039B00031D04FF6FE714E1C4169890706D4FCF7E1
:1039C0004BFEA0EB0800A8421AD3F0E0B4F8621056
:1039D000022909D3E16B39B1E16D51F8042B026280
:1039E000E1654FF6FE7006E0E06D30F8021BA9F8C5
:1039F0002010E0653046B4F862100844A4F8620074
:103A0000B4F86200002800F0A680206841698907A8
:103A1000DCD4D4E720684169890702D4FCF71CFE96
:103A200019E0B4F8621002290AD3E16B41B1E16DEB
:103A300051F8042B0262E165B4F86200023808E034
:103A4000E06D30F8021BA9F82010E065B4F86200C0
:103A50000138A4F86200B4F862000028DAD17AE0F4
:103A6000002978D0691C40D04FF6FE718E1E4F1C85
:103A70004169890706D4FCF7EFFDA0EB0800A842D6
:103A80002AD394E0B4F86210042909D3E16B4029E9
:103A900006D9E16D51F8042B0262E165304616E06B
:103AA000B4F8621002290AD3E16B41B1E06D30F83D
:103AB000021BA9F82010E0654FF6FE7007E0E16DEB
:103AC000097880F82010E06D0130E0653846B4F8E0
:103AD00062100844A4F86200B4F86200D8B3206809
:103AE00041698907CED4C6E720684169890702D4B5
:103AF000FCF7B2FD2BE0B4F8621004290BD3E16BA4
:103B0000412908D3E16D51F8042B0262E165B4F854
:103B10006200043819E0B4F8621002290BD3E16B9B
:103B200049B1E06D30F8021BA9F82010E065B4F847
:103B30006200023809E0E16D097880F82010E06D3C
:103B40000130E065B4F862000138A4F86200B4F80E
:103B500062000028C8D1681C14D000BF20684069EA
:103B6000000713D4FCF778FDA0EB0800A842F5D3BA
:103B7000D4F8840040F02000C4F8840006E000BFC0
:103B8000FCF76AFD206840690007F9D5204602F07D
:103B90000BFB002084F88000012084F88100D4F819
:103BA0008400002818BF012001B0BDE8F083204642
:103BB00002F0FAFA002084F88000D4F8840040F47F
:103BC0008070C4F88400012084F88100032001B0D3
:103BD000BDE8F08300000000411E0020B0EB116F33
:103BE00001D0012070474EF21002F023CEF2000205
:103BF00051604EF62351CEF200010B700721906008
:103C0000116070470000000010B590F83C20012AB8
:103C100001D1022010BDCB6848F2FF7ED1E901C27C
:103C200023F47C5322F47052CFF6F07E1A430CEA50
:103C30000E03D1F800C042EA030E2CF477230A6980
:103C400043EA0E0322F47622D0F800E01A434B69CF
:103C50001A434EF4806322F4742C40F20042C4F202
:103C600001028C6993428A6A22F470224FF00103A8
:103C700042EA0C0280F83C3042EA044310D140F2A0
:103C8000000C23F07C724B6ACFF6F04CCC690CEA46
:103C900003531A4324F00073096A1A4342EA0103EA
:103CA0000021CEF8443080F83C10084610BD0000DA
:103CB000B0B590F83C20012A4FF002025CD00123FD
:103CC00080F83C3080F83D2040F2004C0268C4F29D
:103CD000010C42F4806363455368D2F808E002BFE8
:103CE00023F470034C68234341F2FF740D68C4F25F
:103CF000000423F07003A24243EA050353600BDC87
:103D000040F2FF73C4F200039A4215DCB2F1804F17
:103D100027D040F2004317E040F2FF33C4F2010322
:103D20009A4216DC41F60003C4F200039A4218D00E
:103D30000023C4F2010309E040F60003C4F20003CB
:103D40009A420ED040F60043C4F200039A4208D0D3
:103D50000CE044F20003C4F201039A4201D0624530
:103D600004D12EF08003896819439160002201215B
:103D700080F83D1080F83C201046B0BD00000000E7
:103D800051B1082916D004291AD100F14502127840
:103D9000012A06D00120704700F144021278012A5E
:103DA000F8D1022291B1082913D0042914D180F846
:103DB000452013E000F146021278012AF1D0E9E72C
:103DC00000F147021278012AE4D1EAE780F84420A2
:103DD00004E080F8462001E080F84720026801F006
:103DE0001F00042101FA00F0116A81431162116A77
:103DF0000843106241F2FF70516CC4F2000082422D
:103E000041F4004050640DDC40F2FF70C4F2000049
:103E1000824215DCB2F1804F29D040F20040C4F25A
:103E2000000022E040F2FF30C4F20100824212DCC6
:103E300041F60000C4F20000824218D0002012E0D7
:103E400040F60000C4F20000824210D040F600406C
:103E5000C4F2000009E044F20000C4F20100824212
:103E600005D040F20040C4F2010082420BD107218C
:103E70009068C0F2010101400020062918BFB1F589
:103E8000803F00D17047106840F0010010600020B2
:103E900070470000000000002DE9F04390F83C302E
:103EA000012B02D10220BDE8F0834FEAB2030122C8
:103EB000052B80F83C2000F25082DFE813F006006A
:103EC00038007F00C600F700280103684FF68C74A5
:103ED000CFF6FE7443F6FF781A6AC4F2010822F0A6
:103EE00001021A621A46D3F820E0D3F804C0434511
:103EF00052F8185F0E6804EA05048F682EF0020578
:103F000044EA060447EA050E40F3338144F2000513
:103F1000C4F20105AB4200F0378144F60005C4F25B
:103F20000105AB4200F0308144F2004528E103680E
:103F300048F6FF4CCFF6FF6C1A6A22F010021A62A4
:103F40001A461F6AD3F8048027F0200752F8186F2A
:103F50000D6806EA0C068C6846EA052C40F200451E
:103F600043F48066C4F20105AE4247EA041E08D15C
:103F7000CC686FF040062EF0C00706EA041646EA49
:103F8000070E43F6FF74C4F20104A34240F3178105
:103F900044F20004C4F20104A34200F0178144F685
:103FA0000004C4F20104A34200F0108144F2004472
:103FB000C4F20104A34200F009810FE103684FF647
:103FC0008C75CFF6FE7540F200481A6AC4F20108FB
:103FD00022F480721A621A461F6AD3F8049027F4FA
:103FE000007752F81C6F8C682E4043F4806545457D
:103FF0000D6846EA050E47EA042C09D1CC6840F268
:10400000FF4524022CF4406724EA050646EA070C23
:1040100043F6FF74C4F20104A34240F3F18044F27A
:104020000004C4F20104A34200F0F18044F600044D
:10403000C4F20104A34200F0EA8044F20044C4F256
:104040000104A34200F0E380E9E0036848F6FF4C76
:10405000CFF6FF6C1A6A22F480521A621A461F6A5F
:10406000D3F8048027F4005752F81C6F0D6806EA55
:104070000C068C6846EA052C43F6FF76C4F201066E
:1040800047EA043EB34240F3DC8044F20004C4F249
:104090000104A34200F0E08044F60004C4F20104ED
:1040A000A34200F0D98044F20044D1E003684FF607
:1040B0008C76CFF6FE7643F6FF7C1A6A033622F43E
:1040C00080321A621A461F6AD3F804E0C4F2010C67
:1040D00052F8545F0C682E408D6827F40037634512
:1040E00044EA060447EA054C40F3CD8044F200055B
:1040F000C4F20105AB4200F0D18044F60005C4F2E1
:104100000105AB4200F0CA8044F20045C2E00368FA
:1041100048F6FF45CFF6FF651A6A05F5407522F4AB
:1041200080121A621A461F6AD3F8048027F4001717
:1041300052F8546F0C682E408D6846EA042C43F602
:10414000FF76C4F2010647EA055EB34240F3BC8045
:1041500044F20004C4F20104A34200F0C08044F61B
:104160000004C4F20104A34200F0B98044F2004408
:10417000B1E00025C4F20105AB4205D040F2004594
:10418000C4F20105AB4206D1CD682EF00C0725F034
:10419000040646EA070E434540F3B98044F20005A1
:1041A000C4F20105AB4200F0BD8044F60005C4F244
:1041B0000105AB4200F0B68044F20045AEE00024B9
:1041C000C4F20104A34201D0AB4207D14C6928F4E8
:1041D00040658E6945EA840444EA8608C3F8048091
:1041E000C3F818C04F6809699F63C3F820E09F694E
:1041F00047F400679F619F6927F480679F6184E0AF
:104200000024C4F20104A34201D0434507D14C6904
:1042100029F440558E6945EA041444EA0619C3F8A6
:104220000490C3F81CE04F680969DF63C3F820C03D
:10423000DF6947F00807DF61DF6927F00407DF6106
:1042400087E00024C4F20104A34205D040F20044F8
:10425000C4F20104A34204D14C6928F4804545EA24
:104260008418C3F80480C3F81CC04F6809691F6430
:10427000C3F820E0DF6947F40067DF61DF6927F4F6
:104280008067DF6141E00025C4F20105AB4205D043
:1042900040F20045C4F20105AB4204D14D692EF451
:1042A000803747EA052EC3F804E05C654F6809696A
:1042B0009F65C3F820C05F6D47F008075F655F6DBD
:1042C00027F004075F6544E00024C4F20104A34220
:1042D00005D040F20044C4F20104A34204D14C6969
:1042E00028F4802545EA8428C3F80480C3F854C024
:1042F0004F680969DF65C3F820E05F6D47F4006728
:104300005F655F6D27F480675F65090221E0002526
:10431000C4F20105AB4205D040F20045C4F20105EC
:10432000AB4206D12CF44077D1E90565374347EA23
:10433000050CC3F804C09C614F6809695F63C3F84A
:1043400020E09F6947F008079F619F6927F00407F5
:104350009F611368194311600022002180F83C100E
:104360001046BDE8F083000060B310B5044690F835
:104370003D0028B9002084F83C00204600F024F8D5
:10438000022084F83D002068211D03F0C1F80120BF
:1043900084F8480084F83E0084F83F0084F8400028
:1043A00084F8410084F8420084F8430084F8440013
:1043B00084F8450084F8460084F8470084F83D00FE
:1043C000002010BD0120704781B000210068C4F2B8
:1043D0000101884201D001B0704744F2F040C5F6B7
:1043E0000200016841F001010160006800F0010075
:1043F0000090009801B07047FEE700000000000048
:104400002DE9F04F03AF8DB09A460823BAF10C0F97
:10441000164608BF062347F81C1C40F2100147F857
:10442000203C03FB0AF347F8340C0720C2F200419A
:1044300047F838DC00EB4300D7F8188020F007007D
:104440000988ADEB000047F8301C47F8240C85467E
:1044500040F28005A7F11801C2F2004505F10804F9
:10446000204602F09DFAA7F11401204647F83C4C83
:1044700002F09EFAB8F1000FA6F1200000F03181A1
:10448000BAF1000F00F0898340F21001BAF10C0F6D
:10449000C2F20041C0B2098809BA4FEA114147F897
:1044A0002C1C57E9061B47F8281C40F0678200EBDC
:1044B00040004EF2AD31C0F600014FF0000C01EBB0
:1044C000800E0020002657F8342C57F81C9C00BFA3
:1044D0001EF900104FEA5008B1F1FF3F0DDC57F80C
:1044E000204C57F8245CB3B2634305EB480C57F8F3
:1044F0002C4C2CF813404FF0000C0136B3B253454E
:1045000009F101039BB228BF66469B4540F25583E3
:1045100057F81C5C5B1B534500F0D680C9B24B06B4
:104520000BD557F8204C57F8245CB3B2634305EB26
:10453000480457F82C5C24F813500136B3B25345A5
:1045400009F102039BB228BF66469B4540F23583C2
:1045500057F81C5C5B1B534500F0B6808B060BD5EF
:1045600057F8204C57F8245CB3B2634305EB48047A
:1045700057F82C5C24F813500136B3B2534509F1B7
:1045800003039BB228BF66469B4540F2168357F84B
:104590001C5C5B1B534500F09780CB060BD557F88E
:1045A000204C57F8245CB3B2634305EB480457F83A
:1045B0002C5C24F813500136B3B2534509F10403BF
:1045C0009BB228BF66469B4540F2F78257F81C5CB9
:1045D0005B1B534578D00B070BD557F8204C57F889
:1045E000245CB3B2634305EB480457F82C5C24F811
:1045F00013500136B3B2534509F105039BB228BFEE
:1046000066469B4540F2D98257F81C5C5B1B5345BC
:104610005AD04B070BD557F8204C57F8245CB3B24F
:10462000634305EB480457F82C5C24F8135001361B
:10463000B3B2534509F106039BB228BF66469B45BA
:1046400040F2BB8257F81C5C5B1B53453CD08B0788
:104650000BD557F8204C57F8245CB3B2634305EBF5
:10466000480457F82C5C24F813500136B3B2534574
:1046700009F107039BB228BF66469B4540F29D8225
:1046800057F81C5C5B1B53451ED0C90709F108098C
:104690000BD057F8203C57F82C5CB1B2594357F86F
:1046A000243C03EB480323F811500136B1B25145C5
:1046B0001FFA89F128BF66468B4540F27E8257F883
:1046C0001C5C491B514507D1013257F8283C91B277
:1046D000A9468B4240F2718201300C287FF4F8AE7B
:1046E0005BE2BAF1000F00F058822988BAF10C0F92
:1046F000C0B209BA4FEA114147F8281C57F8301CDC
:1047000091FA91FC57E9061E47F82C1C40F0638291
:1047100000EB40004EF2AD31C0F600010023002650
:1047200057F8349C57F81C8C01EB800047F8400C7C
:1047300057F8400C654657F8284C4FF0000BC2560E
:1047400023F00100B1B20136B2F1FF3FC8BF2546E8
:1047500057F8204C4C4357F8241C0144B0B2504544
:1047600008F1010080B228BF5E46864521F814504A
:1047700040F2238257F81C4C001B504500F0E080AB
:104780005FFA82FB65465FEA4B6057F8280C58BF1A
:10479000054657F8204C0022B0B201364443B0B26F
:1047A000504508F1020080B228BF1646864521F820
:1047B000145040F2028257F81C4C001B504500F088
:1047C000BF805FEA8B60654657F8280C4FF0000207
:1047D00058BF054657F8204CB0B201364443B0B23A
:1047E000504508F1030080B228BF1646864521F8DF
:1047F000145040F2E28157F81C4C001B504500F069
:104800009F805FEACB60654657F8280C4FF00002A6
:1048100058BF054657F8204CB0B201364443B0B2F9
:10482000504508F1040080B228BF1646864521F89D
:10483000145040F2C28157F81C4C001B504500F048
:104840007F805FEA0B70654657F8280C4FF0000236
:1048500058BF054657F8204CB0B201364443B0B2B9
:10486000504508F1050080B228BF1646864521F85C
:10487000145040F2A28157F81C4C001B50455FD0E9
:104880005FEA4B70654657F8280C4FF0000258BF9E
:10489000054657F8204CB0B201364443B0B25045FB
:1048A00008F1060080B228BF1646864521F814504C
:1048B00040F2838157F81C4C001B504540D05FEA02
:1048C0008B70654657F8280C4FF0000258BF05461C
:1048D00057F8204CB0B201364443B0B2504508F10D
:1048E000070080B228BF1646864521F8145040F2D2
:1048F000648157F81C4C001B504521D057F8202CE0
:104900005FEACB70B0B206F1010602FB00F008F1DD
:104910000808654657F8284CB2B208BF25465245EC
:104920004FF000041FFA88F228BF2646964521F86A
:10493000105040F2428157F81C4C101B504513D1C7
:1049400009F1010957F82C1C1FFA89F0A046814291
:1049500040F21000C2F20040058040F22E81013387
:104960000C2B7FF4E5AE18E140F21000C2F20040DB
:10497000058001330C2B7FF4DBAE0EE14EF62101F6
:104980004FF0000EC0F60001002601EB001C0020D5
:1049900057F8342C57F81C9C1CF900104FEA5008AB
:1049A000B1F1FF3F0BDC57F8204C57F82C5CB3B249
:1049B000634357F8244C04EB480424F813500136A1
:1049C000B3B2534509F101039BB228BF76469B451C
:1049D00040F2F38057F81C4C1B1B534500F0D2806B
:1049E000C9B24B060BD557F8204C57F82C5CB3B224
:1049F000634357F8244C04EB480424F81350013661
:104A0000B3B2534509F102039BB228BF76469B45DA
:104A100040F2D38057F81C4C1B1B534500F0B2806A
:104A20008B060BD557F8204C57F82C5CB3B2634378
:104A300057F8244C04EB480424F813500136B3B261
:104A4000534509F103039BB228BF76469B4540F2CC
:104A5000B48057F81C4C1B1B534500F09380CB06C9
:104A60000BD557F8204C57F82C5CB3B2634357F87A
:104A7000244C04EB480424F813500136B3B25345D8
:104A800009F104039BB228BF76469B4540F295800E
:104A900057F81C4C1B1B534574D00B070BD557F80C
:104AA000204C57F82C5CB3B2634357F8244C04EB0A
:104AB000480424F813500136B3B2534509F10503F5
:104AC0009BB228BF76469B4577D957F81C4C1B1BD9
:104AD000534557D04B070BD557F8204C57F82C5C53
:104AE000B3B2634357F8244C04EB480424F8135042
:104AF0000136B3B2534509F106039BB228BF76468F
:104B00009B455AD957F81C4C1B1B53453AD08B0771
:104B10000BD557F8204C57F82C5CB3B2634357F8C9
:104B2000244C04EB480424F813500136B3B2534527
:104B300009F107039BB228BF76469B453DD957F83C
:104B40001C4C1B1B53451DD0C90709F108090BD08C
:104B500057F8203C57F82C4CB1B2594357F8243C35
:104B600003EB480323F811400136B1B251451FFA57
:104B700089F128BF76468B451FD957F81C4C091B75
:104B8000514506D1013257F8283C91B2A1468B42DB
:104B900013D9013082457FF4FFAE82B057F8200C64
:104BA00057F8341CCDE9000A57F83C0C57F81C2C78
:104BB00057F8243C01F044FD02B040F2100057F8D1
:104BC000301CC2F20040018057F838DCA7F10C0419
:104BD000A546BDE8F08F4EF621010023C0F6000186
:104BE0004FF0000B57F8349C01EB001057F81C4CA9
:104BF00047F8400C57F8400C654657F8286CC256E9
:104C000023F001001FFA8BF10BF1010BB2F1FF3F12
:104C1000C8BF354657F8206C06FB01F857F8241C2E
:104C2000014400261FFA8BF0504504F1010080B2C8
:104C300028BFB346864521F81850BED957F81C6CDA
:104C4000801B504500F0F2805FFA82F865465FEA0B
:104C5000486057F8280C58BF054657F8206C0022CA
:104C60001FFA8BF00BF1010B46431FFA8BF05045F6
:104C700004F1020080B228BF9346864521F8165001
:104C80009BD957F81C6C801B504500F0CF805FEA21
:104C90008860654657F8280C4FF0000258BF05465B
:104CA00057F8206C1FFA8BF00BF1010B46431FFAEB
:104CB0008BF0504504F1030080B228BF934686452F
:104CC00021F816507FF679AF57F81C6C801B5045C1
:104CD00000F0AC805FEAC860654657F8280C4FF0DA
:104CE000000258BF054657F8206C1FFA8BF00BF1F5
:104CF000010B46431FFA8BF0504504F1040080B2CB
:104D000028BF9346864521F816507FF656AF57F8D0
:104D10001C6C801B504500F089805FEA0870654676
:104D200057F8280C4FF0000258BF054657F8206C82
:104D30001FFA8BF00BF1010B46431FFA8BF0504525
:104D400004F1050080B228BF9346864521F816502D
:104D50007FF633AF57F81C6C801B504566D05FEA76
:104D60004870654657F8280C4FF0000258BF0546BA
:104D700057F8206C1FFA8BF00BF1010B46431FFA1A
:104D80008BF0504504F1060080B228BF934686455B
:104D900021F816507FF611AF57F81C6C801B504558
:104DA00044D05FEA8870654657F8280C4FF000023F
:104DB00058BF054657F8206C1FFA8BF00BF1010B1A
:104DC00046431FFA8BF0504504F1070080B228BF1C
:104DD0009346864521F816507FF6EFAE57F81C6CC7
:104DE000801B504522D057F8202C5FEAC8701FFA6C
:104DF0008BF00BF1010B02FB00F004F10804654697
:104E000057F8286C1FFA8BF208BF354652454FF011
:104E10000006A2B228BFB346964521F810507FF68F
:104E2000CCAE57F81C0C101A504514D109F10109E9
:104E300057F82C1C1FFA89F057F81C4C814240F29D
:104E40001000C2F2004005807FF6B7AE01339A45EC
:104E50007FF4D0AEA1E640F21000C2F2004005801F
:104E600001339A457FF4C6AE97E6000000000000CB
:104E70002DE9F04F81B00B9F97F800C0ACF12005F1
:104E8000EDB25E2D26D80C4680460A9E1044194489
:104E90004FEA5609013745461FFA80FA1FFA81FB8F
:104EA000A8B2504528BF344428BF5FFA88F5A1B2A4
:104EB00059450FD2A8B200235FFA8CF20093334613
:104EC000FFF79EFA17F801CB4D44ACF12000C0B2B9
:104ED0005F28E5D301B0BDE8F08F000000000000BE
:104EE0002DE9F04F81B02DED048B8AB040F2C00463
:104EF00040F28008C2F20044C2F2004808F10806FD
:104F000040F2600140F600050320A0604FF480707D
:104F1000A081C2F200413046C5F6020502F00CF84D
:104F200040F214070521C2F20047304622463B6892
:104F30009847BA6808F104013046904740F2F86A91
:104F40004FF00008C2F2004A47F66473C0F600034F
:104F50000021DAF800000022C0F838803046BF6A2D
:104F60000496B847FBF778FB07464FF400512846F4
:104F7000FBF752FB012800F0A8804FF6184044F6DA
:104F8000D356CFF6FF7005A94FF06409C1F262064F
:104F900040F6B83BC01B0390481C029010E000BFD5
:104FA00004FB09F0A0FB0601DAF80000890981631F
:104FB0004FF400512846FBF72FFB012800F08580B5
:104FC0000A20FBF721FAFBF747FBC41BFBF744FB66
:104FD000B4F57A7FA0EB0704E2D9FBF73DFB5C4513
:104FE000A0EB07006AD84CF6CD41A0F57A70CCF65C
:104FF000CC41A0FB010105A8CA08BDA102F050FDEB
:105000009DF81420A2F12000C0B25E2827D840F2FB
:10501000C0000125C2F20040DDF808B00088A0F110
:105020001E0909EB000A4C461FFA8AF0A1B2814220
:1050300028BF103528BF5FFA89F4A9B210290ED80D
:10504000A0B21023D2B2CDF80080FFF7D9F91BF837
:10505000012B0834A2F12000C0B25F28E4D340F253
:10506000C00640F21401C2F20046C2F2004170686C
:105070008D6BC41EFBF7F0FA3168039A104444F6B6
:10508000D3564843C1F262062246A0FB0601032024
:1050900000904FF6FF70CB09002101900498A847BB
:1050A00040F2F86A40F60005C2F2004AC5F6020571
:1050B0004FF0640940F6B83B7AE700BF58457FF6E9
:1050C00077AF02E00A20FBF79FF94FF40051284622
:1050D000FBF7A2FA0128F5D0DAF80000806B10B3D4
:1050E00000EE100AB8EE408A9FED830A88EE009A1F
:1050F000FBF7B2FA064600BF0120FBF785F9FBF784
:10510000ABFA801BB0EE481A00EE100AB0F5967F9D
:10511000B8EE400ADAF8001009EE401ABCEEC10AF7
:1051200081ED0E0AE8D340F2140040F2C004C2F24E
:105130000040C2F2004400210022876B4FF00008BB
:10514000D4E9003000900498CDF80480B84746F2C6
:10515000575005A9C6F24130059042F274004E1C2A
:10516000C7F25340069046F275404FF00409C6F668
:1051700069700790208857220424042704308DF892
:10518000208085B2A0B2A84228BF103728BF4C4665
:10519000B9B213290ED8A0B21023D2B2CDF8008034
:1051A000FFF72EF916F8012B0834A2F12000C0B247
:1051B0005F28E7D3FBF740FA05AC02464FA1204633
:1051C00002F06EFC9DF81420A2F12000C0B25E280F
:1051D00026D840F2C0000134C2F2004016264FF03B
:1051E00004084FF0000900880427043085B200BF8E
:1051F000B8B2A84228BF103628BF4746B1B2252909
:105200000ED8B8B21023D2B2CDF80090FFF7F8F85C
:1052100014F8012B0837A2F12000C0B25F28E7D3B1
:1052200040F2800005ACC2F2004038A1426820463E
:1052300002F036FC9DF81420A2F12000C0B25E28D6
:1052400026D840F2C0000134C2F2004028264FF0B8
:1052500004084FF0000900880427043085B200BF1D
:10526000B8B2A84228BF103628BF4746B1B2372986
:105270000ED8B8B21023D2B2CDF80090FFF7C0F824
:1052800014F8012B0837A2F12000C0B25F28E7D341
:10529000DAF80000806B642824D000EE100A9FED3D
:1052A0001F1AB8EE408A9FED1C0A38EE000A80EE05
:1052B000019AFBF7D1F904460120FBF7A5F8FBF7AB
:1052C000CBF9001BB0EE481A00EE100AC828B8EE61
:1052D000400ADAF8001009EE401ABCEEC10A81ED6E
:1052E0000E0AE9D30AB0BDEC048B01B0BDE8F08F23
:1052F00025303364000000000000964353544D33C2
:105300003248377878203078255800004C434420C4
:1053100049443A30782558000000C8C2000048438C
:105320002DE9F04186B044F2E0400026C5F60200C7
:10533000059641F2000400220168C5F6020441F01E
:10534000100101600168082501F010010091009929
:10535000016841F004010160016801F0040100915D
:105360000099016841F080010160016801F080014D
:1053700000910099016841F001010160016801F0AC
:10538000010100910099016841F008010160006885
:10539000082100F00800009000982046FBF744F92F
:1053A0004FF42051012220464FF420580127FBF7EB
:1053B0003BF9CDE9015701AD20462946CDE9036609
:1053C000FBF736F84FF400502946CDE901060220DC
:1053D0000390A4F50060FBF72BF8CDE901870320CB
:1053E0000490204629460396FBF722F806B0BDE854
:1053F000F081000000000000B0B586B040F2D0504F
:1054000041F20004C2F20040C5F602040021A4F5F6
:10541000E832CDE90411CDE90211CDE90011C0E96E
:1054200000217F228260FF22C0E90321C0E905112B
:10543000C161FDF735F908B1FAF7CAFF40F2D05063
:105440000121C2F20040FDF7ABF843F2F22188429D
:1054500039D144F2D045C5F60205286800020CD5C2
:10546000082101222046FBF7DFF80920FAF7CCFFDC
:10547000082100222046FBF7D7F8286840021CD5F7
:10548000082101222046FBF7CFF80920FAF7BCFFDC
:10549000082100222046FBF7C7F86320FAF7B4FF83
:1054A000082101222046FBF7BFF80920FAF7ACFFDC
:1054B000082100222046FBF7B7F8286840F4803026
:1054C000286006B0B0BD40F2D0540121C2F20044C1
:1054D00043F2F2222046FDF76BF81220ADF80400EB
:1054E00000208DF80600CDE9040001A90122204624
:1054F000FDF716FA08B1FAF76BFF40F20160694652
:10550000C2F20100009040F2D0500122C2F20040ED
:10551000FDF756F90028D4D0FAF75AFF06B0B0BD0F
:1055200080B540F2F45047F20001C2F20040C5F2EB
:1055300000214FF4804201600021C0E90111C0E95F
:10554000032105214161FDF727FD002808BF80BD2B
:10555000BDE88040FAF73CBF10B540F2706443F2FA
:105560000040C2F20044C4F201004FF080612060AC
:105570004FF4800060604FF4C020A0600720E0601E
:105580000020C4E90400A1614FF00051C4E90710F4
:10559000C4E90900E0624FF08040606304F1380024
:1055A0002421FAF79CFE2046FDF7FEFE002808BFE6
:1055B00010BDBDE81040FAF70BBF0000000000006E
:1055C000B0B59CB0002501A82C2100241594C4F28C
:1055D0000105CDE91344CDE91144CDE90F44CDE9EE
:1055E0000D440C94FAF77BFE40F2F8600B21C2F2F6
:1055F00000400560C0E9011440F2E731C0E903143E
:10560000C0E90544FEF7B0FE08B1FAF7E1FE40F24A
:10561000F86013A9C2F20040CDE913441594FEF7D7
:1056200047FB08B1FAF7D4FE60200C900024082054
:10563000CDE90D44CDE90F0440F2F8600CA9C2F2A7
:1056400000400422CDE91144FEF726FC08B1FAF728
:10565000BFFE05944FF40050CDE90344CDE9014469
:10566000CDE9060408944FF00070CDE909040B94CD
:1056700040F2F864C2F2004401A92046FEF7C4FAE1
:1056800008B1FAF7A5FE21680020A9421B90CDE9D8
:1056900019001890179001D01CB0B0BD44F2E04141
:1056A000C5F602010A6842F010020A60096801F0BA
:1056B0001001169116994FF4806117910221CDE9DE
:1056C00018101A9001201B9041F20000C5F602004C
:1056D00017A9FAF7ADFE1CB0B0BD00000000000035
:1056E000FEE700000000000070470000000000001E
:1056F0007047000000000000F0B581B044F22C4774
:10570000C5F6020757F8042C02F00302032A02D15F
:10571000012001B0F0BD054657F82C0C0C4620F0D6
:10572000806047F82C0CFAF797FF064657F82C0CC8
:10573000000105D5FAF790FF801B0228F6D964E036
:1057400057F8040CEE6895E80E0020F47C3040EA2F
:105750000130A2F101014FF47E4247F8040C02EB44
:1057600043224FF0FE436FF35F2192B202EB010040
:105770004FF4FE012A6901EB064101F4FE0103EB3F
:105780000262084402F0FE410844F8603868696922
:1057900020F0C00040EA010038603868A96920F0B4
:1057A000200040EA0100386038684FF6F87120F0B8
:1057B000100038603869EA6920EA010040EAC20056
:1057C0003861386840F0100038602CB1012C38681E
:1057D00006D140F4801005E0386840F4002001E074
:1057E00040F40010386057F82C0C40F0806047F807
:1057F0002C0CFAF731FF044657F82C0C000107D4A3
:10580000FAF72AFF001B0328F6D3032001B0F0BDEE
:10581000002001B0F0BD0000F0B581B044F22C478B
:10582000C5F6020757F8042C02F00302032A02D13E
:10583000012001B0F0BD054657F82C0C0C4620F0B5
:10584000805047F82C0CFAF707FF064657F82C0C47
:10585000800005D5FAF700FF801B0228F6D964E026
:1058600057F8040CEE6895E80E0020F07C7040EAD2
:105870000150A2F101014FF47E4247F8040C02EB03
:1058800043224FF0FE436FF35F2192B202EB01001F
:105890004FF4FE012A6901EB064101F4FE0103EB1E
:1058A0000262084402F0FE41084478613868696980
:1058B00020F4406040EA010038603868A96920F4AB
:1058C000007040EA0100386038684FF6F87120F443
:1058D00080703860B869EA6920EA010040EAC200D5
:1058E000B861386840F4807038602CB1012C386899
:1058F00006D140F4000005E0386840F4800001E083
:1059000040F08070386057F82C0C40F0805047F819
:105910002C0CFAF7A1FE044657F82C0C800007D493
:10592000FAF79AFE001B0328F6D3032001B0F0BD5E
:10593000002001B0F0BD000070B544F20806044636
:10594000C5F600064FF65F70C0F20300716821F0E3
:10595000400171603168890612D42168C860FAF785
:105960007BFE05462068C068800625D4FAF774FEE1
:10597000401BB0F57A7FF5D9032084F8210070BD73
:10598000316821F0200131602168C860FAF764FEB7
:10599000054600BF2068C06880060FD4FAF75CFE99
:1059A000401BB0F57A7FF5D9032084F821003168D7
:1059B00041F02001316070BD002070BD00203168D1
:1059C00041F02001316070BD81604EF2C002C168BB
:1059D000CFF6FE7201EA020341F2371C372141F291
:1059E000883243EA0C03C36000F08EBA0000000066
:1059F00081604EF2C002C168CFF6FE72114041F2E2
:105A000029121143C16040F2080144F6D352C2F298
:105A10000041C1F262026FF003030968A1FB0212A8
:105A2000510A41F2883201FB123100BF043126D005
:105A3000426B12F0450F02D012F4005214D0426BA8
:105A400012F0450F02D012F400520DD0426B12F04A
:105A5000450F02D012F4005206D0426B12F0450FEF
:105A6000E4D012F40052E1D1416B042211F00401A0
:105A700004BFC522C0F220028263084670474FF07F
:105A8000004108467047000081604EF2C002C168C4
:105A9000CFF6FE7201EA020341F2101C102141F21E
:105AA000883243EA0C03C36000F02EBA0000000005
:105AB00081604EF2C002C168CFF6FE7201EA0203B5
:105AC00041F2061C062141F2883243EA0C03C3600E
:105AD00000F01ABA00000000002181604EF2C002FE
